:020000040800F2
:1000000000800120C92800086D1600086F1600083E
:10001000711600087316000875160008000000002D
:10002000000000000000000000000000771600083B
:1000300079160008000000007B1600087D160008F5
:100040001929000819290008192900081929000888
:100050001929000819290008192900081929000878
:100060001929000819290008192900081929000868
:100070001929000819290008192900081929000858
:100080001929000819290008192900080000000092
:100090000000000000000000000000001929000816
:1000A0001929000819290008192900081929000828
:1000B0001929000819290008192900081929000818
:1000C0001929000819290008192900081929000808
:1000D0001929000819290008192900080000000042
:1000E0001929000819290008192900080000000032
:1000F00000000000000000000000000019290008B6
:100100000000000019290008192900081929000811
:1001100000000000000000000000000000000000DF
:1001200019290008192900081929000819290008A7
:100130001929000800000000000000000000000075
:100140000000000000000000000000001929000865
:100150001929000819290008192900081929000877
:1001600019290008192900080000000000000000FB
:10017000000000000000000000000000000000007F
:100180000000000019290008000000000000000025
:040190001929000821
:1001C000044B05481B1A062B02D9044B03B11847F0
:1001D000704700BF73000020700000200000000086
:1001E00005490648091A891001EBD171491002D05E
:1001F000034B03B1184770477000002070000020C7
:100200000000000010B5064C237843B9FFF7D8FF73
:10021000044B13B10448AFF300800123237010BDD9
:1002200070000020000000001C29000808B5084BE1
:100230001BB108490848AFF300800848036813B9A8
:10024000BDE80840CCE7064B002BF9D09847F7E70C
:1002500000000000740000201C290008700000202D
:100260000000000070B50F4E0F4D761BB61018BF82
:10027000002405D0013455F8043B9847A642F9D133
:100280000A4E0B4D761B02F049FBB61018BF002436
:1002900006D0013455F8043B9847A642F9D170BD09
:1002A00070BD00BF982A0008982A00089C2A000800
:1002B000982A0008844641EA000313F003036DD135
:1002C000403A41D351F8043B40F8043B51F8043B19
:1002D00040F8043B51F8043B40F8043B51F8043B20
:1002E00040F8043B51F8043B40F8043B51F8043B10
:1002F00040F8043B51F8043B40F8043B51F8043B00
:1003000040F8043B51F8043B40F8043B51F8043BEF
:1003100040F8043B51F8043B40F8043B51F8043BDF
:1003200040F8043B51F8043B40F8043B51F8043BCF
:1003300040F8043B51F8043B40F8043B51F8043BBF
:1003400040F8043B403ABDD2303211D351F8043B5F
:1003500040F8043B51F8043B40F8043B51F8043B9F
:1003600040F8043B51F8043B40F8043B103AEDD20E
:100370000C3205D351F8043B40F8043B043AF9D25F
:10038000043208D0D2071CBF11F8013B00F8013B32
:1003900001D30B8803806046704700BF082A13D33F
:1003A0008B078DD010F003038AD0C3F10403D21A57
:1003B000DB071CBF11F8013B00F8013B80D331F88B
:1003C000023B20F8023B7BE7043AD9D3013A11F80B
:1003D000013B00F8013BF9D20B7803704B78437076
:1003E0008B7883706046704770B4860746D0541E81
:1003F000002A41D0CAB2034602E014F1FF343BD3D5
:1004000003F8012B9D07F8D1032C2ED9CDB245EA74
:1004100005250F2C45EA054519D903F1100226469A
:10042000103E0F2E42F8105C42F80C5C42F8085C5B
:1004300042F8045C02F11002F2D8A4F1100222F09A
:100440000F0204F00F041032032C13440DD91E4682
:100450002246043A032A46F8045BFAD8221F22F007
:1004600003020432134404F003042CB1C9B21C4447
:1004700003F8011B9C42FBD170BC70471446034635
:10048000C2E700BF0CB4F0B59DB022AC029154F8A5
:10049000042B069123466FF000454FF402774FF688
:1004A000FF7602A90194ADF8147004950795ADF894
:1004B000166000F093F9029B00221A701DB0BDE88F
:1004C000F04002B0704700BF0EB4F0B59CB021AB55
:1004D0000F4953F8042B019305466FF00044086858
:1004E00002954FF402774FF6FF7602A90695ADF814
:1004F000147004940794ADF8166000F06FF9029B35
:1005000000221A701CB0BDE8F04003B0704700BF75
:1005100000000020000000000000000000000000BB
:1005200000000000000000000000000000000000CB
:1005300000000000000000000000000000000000BB
:1005400090F800F06DE9024520F007016FF0000C13
:1005500010F0070491F820F040F049804FF00004BB
:100560006FF00700D1E9002391F840F000F1080096
:1005700082FA4CF2A4FA8CF283FA4CF3A2FA8CF3CE
:100580004BBBD1E9022382FA4CF200F10800A4FA35
:100590008CF283FA4CF3A2FA8CF3E3B9D1E9042389
:1005A00082FA4CF200F10800A4FA8CF283FA4CF3C0
:1005B000A2FA8CF37BB9D1E9062301F1200182FA7A
:1005C0004CF200F10800A4FA8CF283FA4CF3A2FA80
:1005D0008CF3002BC6D0002A04BF04301A4612BA8E
:1005E000B2FA82F2FDE8024500EBD2007047D1E991
:1005F000002304F00305C4F100004FEAC50514F020
:10060000040F91F840F00CFA05F562EA05021CBFF0
:1006100063EA050362464FF00004A9E72DE9F047BD
:100620008E689E420C461D46174628D8804688890B
:1006300010F4906F32D04E692368096906EB4606C4
:10064000A3EB010906EBD6766B1C76104B44B34244
:10065000324684BF1E463246430522D511464046E7
:1006600000F0BAFC824680B34A462169FFF722FEB9
:10067000A38923F4906343F08003A38116E0086804
:100680001E462A46394600F0FBFBA2682368961BEB
:100690002B44A66023600020BDE8F087086835463B
:1006A000EFE7404600F0F6FC824650B1A6EB0903A6
:1006B0000AEB09006661C4F810A02060A3602E4612
:1006C000DFE72169404600F03FFC0C23C8F800300A
:1006D000A38943F04003A3814FF0FF30BDE8F087CA
:1006E0002DE9F04F936883B09046002B70D082467E
:1006F0000C4617688D68086842E0A38913F4906F70
:100700002ED06569216905EB4505A0EB010B05EBD2
:10071000D5750BF101006D103044A8422A4684BF04
:1007200005462A465B0538D51146504600F054FC74
:1007300000283CD05A4621690190FFF7BBFDA289F1
:10074000019B22F4906242F08002A281A5EB0B0291
:1007500003EB0B00656123612060A2603546B34660
:100760005A46494600F08CFBD8F80830A268206849
:10077000551B58449E1BA5602060C8F808603EB316
:100780007E683B460837002EFAD0AE42D3F8009080
:10079000AB46B2D23546B346E2E7504600F07AFCAB
:1007A00003460028D2D12169504600F0CDFB0C232E
:1007B000CAF80030A389002243F040034FF0FF3015
:1007C000A381C8F80820C8F8042003B0BDE8F08F62
:1007D0000020C8F8040003B0BDE8F08F2DE9F04F09
:1007E00014468A899DB0150689460393824603D52F
:1007F0000B69002B00F0EB8030238DF82A30237832
:100800007C4E0022202109928DF829100127002B0F
:1008100000F08480252B254603D117E0252B00F01E
:10082000878015F8013F002BF8D1B5EB040B75D08C
:1008300022465B4649465046FFF7F0FE01306DD038
:10084000099B2A785B440993002A67D000234FF064
:10085000FF3201350493079306938DF853301A93B2
:10086000059204E0049A07FA03F3134304932978EA
:100870000522304600F0B4FA2C46831B01350028CF
:10088000F0D1049BD90644BF20228DF85320217853
:100890001A0744BF2B228DF853202A296BD0A1F1CF
:1008A0003002092A0BD8079B14F8011F03EB8303BE
:1008B00002EB4303A1F13002092AF5D907932E294F
:1008C00041D04D4D0322284600F08AFA38B1049BEE
:1008D000401B402202FA00F00343013404932178C4
:1008E00046488DF828100622013400F079FA0028D5
:1008F0004BD0434B03B303AB00934A46414B04A98F
:100900005046AFF300808046B8F1FF3F06D0099B08
:10091000434409932378002B7FF47CAFB9F80C3063
:100920005B0654BF09984FF0FF301DB0BDE8F08F53
:10093000B5EB040B8AD07BE7039B073323F0070357
:1009400008330393E3E761782A2904F1010026D0F4
:10095000A1F130020023092A05930446B1D814F806
:10096000011F03EB830302EB4303A1F13002092AC9
:10097000F5D90593A5E7039A11680432002903927B
:100980001FDB07916178013499E703AB00934A4676
:100990001C4B04A9504600F0D1F88046B4E7039BF5
:1009A0001A680592002A03F104030393B8BF4FF0BD
:1009B000FF3204F10203AEBFA178A17805921C4674
:1009C0007FE7494243F0020307910493DAE74021AD
:1009D00000F002FBC9F80000C9F8100018B140236C
:1009E000C9F8143008E70C23CAF800304FF0FF3084
:1009F0009BE700BF542A00085C2A0008602A000810
:100A0000000000001D0600082DE9F0470C46914645
:100A10000A698968DDF820808A42B8BF0A46C9F8A9
:100A2000002094F8431006461F4611B10132C9F860
:100A30000020236899065DD5D9F800200232C9F854
:100A40000020236813F0060F19461DD1E1688A1AA9
:100A5000002AD8BF194617DD04F1190A002505E060
:100A6000E368D9F800209B1AAB420CDD0123524603
:100A700039463046C047013005F10105F0D14FF04D
:100A8000FF30BDE8F087216894F84330003318BF89
:100A900001238A060AD5E1185A1C302081F8430048
:100AA000224494F8451082F84310023304F14302C3
:100AB00039463046C0470130E1D0236803F00603D1
:100AC000042B29D0A36822699342C8BF4FF00009C4
:100AD00030DD9B1A99441A34002501E04D4529D098
:100AE0000123224639463046C047013005F1010551
:100AF000F4D1C4E713F0060F08D1E168D9F800205B
:100B00008A1A002AD8BF1946A6DCBDE794F84330FC
:100B1000003318BF0123C9E7D9F80010E068A368C3
:100B20002269A0EB0109934229EAE979D1DCB9F104
:100B3000000FD0D10020BDE8F08700BF2DE9F043C1
:100B40000C46097E85B06E29064617460C989846D5
:100B500004F1430C55D00FD8632900F01B8100F23B
:100B6000D68000295CD0582940F0E88084F84510F0
:100B70002268DFF860E213E0732900F0FD8000F2E4
:100B800089806F2900F0E480702940F0D7802268C6
:100B900042F0200222607823DFF83CE284F84530FE
:100BA0000368150603F1040100F1FF8055064BBFF1
:100BB0001B881B6801600160D00744BF42F020021F
:100BC0002260002B40F09580226822F020022260F3
:100BD0001021002284F843206068A0600028C0F241
:100BE0008D80226822F004022260002B67D1002849
:100BF00040F08680654608296FD0ACEB0503236181
:100C000011E023681A0600F1D38013F0400F036847
:100C1000626903F1040101601B6814BF1A801A6045
:100C2000002365462361CDF800803B4603AA214698
:100C30003046FFF7E9FE013021D02A4623693946C4
:100C40003046C04701301AD02368E06813F0020F25
:100C5000039B19D0C21A002A16DD04F119090025D8
:100C600004E0E068039BC21AAA420DDD01234A4654
:100C700039463046C047013005F10105F1D14FF04A
:100C8000FF3005B0BDE8F0839842B8BF184605B004
:100C9000BDE8F08375295BD078294FD122687AE7C7
:100CA0006168A1602D200029C3F1000384F843008E
:100CB00021DB22F00402DFF81CE122600A216546F4
:100CC000B3FBF1F201FB123013461EF8002005F8C9
:100CD000012D002BF4D108298FD12368D9078CD599
:100CE000626823699A4288DC302305F8013C013DA3
:100CF00083E710216DE7DFF8DCE00A21002BDED16D
:100D00009EF8003084F8423004F1420573E764290C
:100D100001D0692912D122680368150603F1040184
:100D200052D455064BBFB3F900301B680160016017
:100D3000002BB5DBDFF89CE00A214DE7012384F8A6
:100D40004210236104F14205002384F843306AE72E
:100D500023681A0633D413F0400F036803F104022A
:100D600015BF1B881B68026002606F2914BF0A212F
:100D70000821DFF860E02CE703686268191D016054
:100D80001D680021284600F02BF800B3401B60606E
:100D90002061D9E703681A68191D0123016004F175
:100DA000420584F842202361CEE701601B6803E717
:100DB00003686269191D01601B681A6030E70368E7
:100DC0001A1D02601B68D0E701601B68B0E760680D
:100DD000DEE700BF682A00087C2A00080000000047
:100DE00001F0FF01102A2BDB10F0070F08D010F8DC
:100DF000013B013A8B422DD010F0070F42B3F6D1E0
:100E0000F0B441EA012141EA014122F007047FF0F8
:100E100000070023F0E80256083C85EA010586EA4F
:100E2000010685FA47F5A3FA87F586FA47F6A5FA8B
:100E300087F68EB9EED1F0BC01F0FF0102F0070297
:100E400032B110F8013B013A83EA010313B1F8D142
:100E50000020704701387047002D06BF3546033823
:100E6000073815F0010F07D1013015F4807F02BF5C
:100E7000013015F4C03F0130F0BC0138704700BFAD
:100E80008842F0B50DD98B1898420AD28418002AEE
:100E900051D0224613F8014D02F8014D9942F9D183
:100EA000F0BD0F2A48D941EA00039B0746D100F163
:100EB000100401F11003154653F8106C44F8106C3F
:100EC00053F80C6C44F80C6C53F8086C44F8086C3C
:100ED000103D53F8046C44F8046C0F2D03F110031B
:100EE00004F11004E8D8A2F1100323F00F0302F07C
:100EF0000F0E1033BEF1030F1944034421D91E1FF6
:100F00000D467446043C55F8047B46F8047F032CD8
:100F1000F8D8AEF1040424F003040434214423443B
:100F200002F0030262B1013B0A4411F8014B03F8DD
:100F3000014F8A42F9D1F0BD0346F3E70346F2E7D9
:100F4000F0BD7246EEE700BF91B151F8043C0439A0
:100F5000002BB8BFC9181F4B1A68FAB18A4230B4C7
:100F60000AD908680C18A24226D04A60196030BC21
:100F700070478B4203D81A465368002BF9D1146886
:100F800015198D420DD006D808680C189C4219D04E
:100F90004B605160EBE70C230360E8E74A6019609F
:100FA000704709680C44111999421460DFD10ACBCB
:100FB0000C4453601460DAE7146852684A602044B5
:100FC0000860D3E71C685B684B6020440860516090
:100FD000CDE700BF8C00002070B5CC1C24F00304CA
:100FE00008340C2C38BF0C24002C06463BDBA142F5
:100FF00039D8274D296851B10A68121B04D436E04C
:101000001A68121B1AD519464B68002BF8D169686B
:10101000002937D02146304600F064F8431C22D026
:10102000C31C23F00305A84205D0291A304600F05E
:1010300059F8013017D02C602B4604E00B2A0DD94B
:101040001A6013441C6003F10B0020F007001A1D06
:10105000821A02D05142995070BD70BD8B420ED0A1
:101060005A684A60EFE70C233360002070BD0B2AFA
:1010700003D84A680B462A60E5E70B46E0E70A46D4
:101080000B46F8E7304600F02DF86860C2E700BF75
:101090008C000020F8B51446F9B1C2B106460D46E1
:1010A00000F032F8844201D82846F8BD2146304687
:1010B000FFF792FF074670B122462946FFF7FAF87C
:1010C000294630463D46FFF73FFF2846F8BDFFF76B
:1010D0003BFF2546E8E70546E6E71146BDE8F84050
:1010E000FFF77ABF38B5074C002305460846236052
:1010F00000F014F8431C00D038BD2368002BFBD04F
:101100002B6038BDE000002051F8040C0028A0F14D
:101110000400BCBF0B58C018704700BF044A054903
:101120001368002B08BF0B46184410601846704720
:1011300094000020E800002053B94AB9002908BFF4
:1011400000281CBF4FF0FF314FF0FF3000F07AB99C
:10115000ADF1080C6DE904CE00F006F8DDF804E00E
:10116000DDE9022304B070472DE9F0478C460D46B7
:101170000446089E002B51D18A4217466DD9B2FA17
:1011800082FEBEF1000F0BD0CEF1200C01FA0EF55D
:1011900020FA0CFC02FA0EF74CEA050C00FA0EF4E9
:1011A0004FEA174A250CBCFBFAF81FFA87F90AFB2D
:1011B00018CC45EA0C4508FB09F3AB420AD9ED19F6
:1011C00008F1FF3280F02381AB4240F22081A8F188
:1011D00002083D44ED1AA4B2B5FBFAF00AFB105523
:1011E00044EA054400FB09F9A14509D9E41900F1D5
:1011F000FF3380F00A81A14540F2078102383C4468
:10120000A4EB090440EA08400021002E61D024FA32
:101210000EF4002334607360BDE8F0878B4207D979
:10122000002E54D0002186E821000846BDE8F08752
:10123000B3FA83F1002940F08E80AB4202D38242A0
:1012400000F2FA80841A65EB03050120AC46002EFB
:101250003FD086E81010BDE8F08712B90127B7FB30
:10126000F2F7B7FA87FEBEF1000F34D1EB1B3A0C50
:101270001FFA87FC0121B3FBF2F8250C02FB18339F
:1012800045EA03450CFB08F3AB4207D9ED1908F119
:10129000FF3002D2AB4200F2D1808046ED1AA3B2F9
:1012A000B5FBF2F002FB105543EA05440CFB00FCD1
:1012B000A44507D9E41900F1FF3302D2A44500F296
:1012C000B8801846A4EB0C0440EA08409DE731467C
:1012D0003046BDE8F087CEF1200405FA0EF307FA98
:1012E0000EF720FA04F83A0C25FA04F448EA030849
:1012F000B4FBF2F14FEA184502FB11441FFA87FCD8
:1013000045EA044501FB0CF3AB4200FA0EF409D99F
:10131000ED1901F1FF3080F08A80AB4240F2878006
:1013200002393D44EB1A1FFA88F5B3FBF2F002FBD9
:10133000103345EA034500FB0CF3AB4207D9ED1926
:1013400000F1FF386FD2AB426DD902383D44EB1A41
:1013500040EA01418FE7C1F1200722FA07F88B40EC
:1013600005FA01F448EA030320FA07FE4FEA134C9A
:10137000FD404EEA040EB5FBFCF94FEA1E440CFB9F
:1013800019551FFA83F844EA054509FB08F4AC42F5
:1013900002FA01F200FA01FA08D9ED1809F1FF305A
:1013A00043D2AC4241D9A9F102091D442D1B1FFAB9
:1013B0008EFEB5FBFCF00CFB10554EEA054400FB1D
:1013C00008F8A04507D9E41800F1FF3529D2A04557
:1013D00027D902381C4440EA0940A4EB0804A0FBCA
:1013E00002894C45C6464D4615D312D056B1BAEBCC
:1013F0000E0364EB050404FA07F7CB401F43CC400F
:10140000376074600021BDE8F0871846F8E6904622
:10141000E0E6C245EAD2B8EB020E69EB03050138FB
:10142000E4E72846D7E7404691E78146BEE7014614
:1014300078E702383C4445E7084608E7A8F1020887
:101440003D442BE7704700BFF0B58BB000240594F6
:1014500006940794089409940194304B1A6B42F057
:1014600004021A631A6B02F004020192019A0294B8
:101470001A6B42F080021A631A6B02F08002029229
:10148000029A03941A6B42F001021A631A6B02F07B
:1014900001020392039A04941A6B42F002021A6347
:1014A0001B6B03F002030493049B1D4D22464FF473
:1014B0009071284600F0BFFE1A4E22464FF4866116
:1014C000304600F0B8FE4FF4005305934FF4041378
:1014D0000693079405A9144800F0CCFD4FF49073CF
:1014E0000593012706970794089405A9284600F05C
:1014F000C1FD4FF48663059306970794089405A9E8
:10150000304600F0B7FD4FF48063059306940794CE
:1015100005A9284600F0AEFD0BB0F0BD0038024032
:1015200000000240000402400008024072B6FEE7DC
:1015300008B50A480A4B03604FF4E13343600023C7
:101540008360C36003610C2242618361C36100F068
:10155000B7F900B908BDFFF7E9FF00BF9800002008
:101560000044004000B595B03022002108A8FEF7E5
:101570003BFF002303930493059306930793019382
:101580001F4A116C41F080511164126C02F08052BC
:101590000192019A02931B490A6822F4404242F4E4
:1015A00000420A600A6802F440420292029A022152
:1015B000089101220B9210220C920E910F9310921F
:1015C0004FF4A8731193042312930723139308A8CD
:1015D00000F014FA80B90F23039302210491002331
:1015E00005934FF480520692079303A800F06CFC19
:1015F00020B915B05DF804FBFFF798FFFFF796FFE1
:10160000003802400070004000B589B000F09AFE3A
:10161000FFF7A8FFFFF718FFFFF78AFF01F0AAF80E
:10162000104C01222021204600F005FEC82000F0C9
:10163000B5FE00222021204600F0FDFDC82000F06C
:10164000ADFE4FF47A7000F0A9FE6C46064D0FCD4A
:101650000FC495E80F0084E80F006946202001F0D0
:10166000D9F8DDE70000024034290008FEE7FEE774
:10167000FEE7FEE7FEE770477047704708B500F0E9
:101680007BFE08BD00B583B0002100910C4B5A6C65
:1016900042F480425A645A6C02F480420092009AEA
:1016A00001911A6C42F080521A641B6C03F0805353
:1016B0000193019B072000F0C5FD03B05DF804FB1A
:1016C0000038024000B589B00023039304930593CA
:1016D000069307930268144B9A4202D009B05DF852
:1016E00004FB0021019103F5FA331A6C42F4003235
:1016F0001A641A6C02F400320192019A02911A6B78
:1017000042F001021A631B6B03F001030293029B78
:101710000C230393022304930723079303A903488D
:1017200000F0A8FCDAE700BF0044004000000240DF
:10173000F8B504460268136923F44053C1680B43AB
:10174000136183680269134342691343C2691343F7
:101750000168CA6822F4164222F00C021343CB60DF
:101760000268536923F4407381690B435361036832
:10177000314A934232D002F5806293422ED000F07B
:1017800059FCE369B3F5004F2BD0256800210618FA
:1017900041EB010736184F41FB0043EA5673F20054
:1017A00016461F4663689A009B0F80197941FFF720
:1017B000C3FC224CA4FB00325109642202FB11023B
:1017C00013013233A4FB03235B0903F0F00202EBA5
:1017D000011203F00F031344AB60F8BD00F03AFCB4
:1017E000CFE725680021061841EB010736184F4165
:1017F000FB0043EA5673F20016461F466268002358
:1018000092185B4180197941FFF796FC0B4CA4FBC1
:1018100000325109642202FB1102D3003233A4FBCF
:1018200003235B095A0002F4F87202EB011203F081
:1018300007031344AB60F8BD001001401F85EB5156
:101840002DE9F04104460F4616469846069D23684A
:101850001B6837EA03030CBF01230023B3422CD1DA
:10186000B5F1FF3FF3D02DB100F092FDA0EB0800E1
:101870008542ECD2226802F10C0353E8003F23F4C6
:10188000D0730C3242E800310029F3D1226802F112
:10189000140353E8003F23F00103143242E80031FF
:1018A0000029F3D1202384F83D3084F83E30002312
:1018B00084F83C300320BDE8F0810020BDE8F081D1
:1018C00058B310B5044690F83D300BB3242384F888
:1018D0003D302268D36823F40053D3602046FFF7DD
:1018E00027FF2268136923F4904313612268536928
:1018F00023F02A0353612268D36843F40053D36072
:1019000000202064202384F83D3084F83E3010BD50
:1019100080F83C30FFF7D6FED8E7012070472DE96C
:10192000F04182B01E4690F83D30DBB2202B04D04F
:101930000223184602B0BDE8F08104460D469046E9
:10194000002954D0002A54D090F83C30012B01D10A
:101950000223EEE7012380F83C30002303642123B7
:1019600080F83D3000F014FD0746A4F82480A4F868
:101970002680A368B3F5805F05D04FF000080023F0
:1019800084F83C3012E0236913B14FF00008F6E709
:10199000A8460025F3E7226838F8023BC3F30803A2
:1019A0005360E38C9BB2013B9BB2E384E38C9BB21C
:1019B00073B100963B46002280212046FFF740FF8E
:1019C000C8B9002DE7D0236815F8012B5A60E8E765
:1019D00000963B46002240212046FFF731FF034698
:1019E00008B10323A5E7202284F83D20A1E70123C5
:1019F0009FE701239DE703239BE70000002800F0F9
:101A0000E98170B582B00446036813F0010F3BD042
:101A1000A74B9B6803F00C03042B2CD0A44B9B68B2
:101A200003F00C03082B21D06368B3F5803F4FD03F
:101A3000B3F5A02F52D09E4B1A6822F480321A6060
:101A40001A6822F480221A606368002B50D000F0DC
:101A50009FFC0546964B1B6813F4003F14D100F021
:101A600097FC401B6428F5D90320B8E1904B5B68D4
:101A700013F4800FD8D08E4B1B6813F4003F03D0B3
:101A80006368002B00F0A881236813F0020F55D083
:101A9000874B9B6813F00C0F3ED0854B9B6803F07F
:101AA0000C03082B33D0E368002B68D00122814B54
:101AB0001A6000F06DFC05467D4B1B6813F0020FA9
:101AC00054D100F065FC401B0228F5D9032086E1C3
:101AD000774A136843F480331360B5E7744B1A6890
:101AE00042F480221A601A6842F480321A60ABE72E
:101AF00000F04EFC05466E4B1B6813F4003FC3D04C
:101B000000F046FC401B6428F5D9032067E1684BD0
:101B10005B6813F4800FC6D1654B1B6813F0020F8E
:101B200004D0E368012B01D0012058E1604A13681A
:101B300023F0F803216943EAC1031360236813F01B
:101B4000080F40D0636963B301225B4B1A6000F059
:101B50001FFC0546564B5B6F13F0020F33D100F0AC
:101B600017FC401B0228F5D9032038E1504A1368BE
:101B700023F0F803216943EAC1031360DEE7002282
:101B80004C4B1A6000F004FC0546494B1B6813F0EF
:101B9000020FD3D000F0FCFB401B0228F5D9032034
:101BA0001DE10022444B1A6000F0F2FB0546404B59
:101BB0005B6F13F0020F06D000F0EAFB401B022817
:101BC000F5D903200BE1236813F0040F79D0384BCB
:101BD0001B6C13F0805F33D100230193344B1A6CDC
:101BE00042F080521A641B6C03F080530193019BF6
:101BF0000125324B1B6813F4807F23D0A368012B8F
:101C000034D0052B38D02A4B1A6F22F001021A6704
:101C10001A6F22F004021A67A368002B36D000F076
:101C2000B7FB0646224B1B6F13F0020F48D100F0A2
:101C3000AFFB801B41F288339842F3D90320CEE0FA
:101C40000025D6E71D4A136843F48073136000F043
:101C50009FFB0646194B1B6813F4807FCED100F022
:101C600097FB801B0228F5D90320B8E0104A136FB8
:101C700043F001031367CFE70D4B1A6F42F00402E4
:101C80001A671A6F42F001021A67C5E700F080FB7D
:101C90000646074B1B6F13F0020F11D000F078FBC4
:101CA000801B41F288339842F3D9032097E000BFAC
:101CB0000038024000004742800E4742007000405A
:101CC000EDB9A369002B00F08980484A926802F0C0
:101CD0000C02082A51D0022B17D00022444B1A6064
:101CE00000F056FB0446414B1B6813F0007F42D0C6
:101CF00000F04EFB001B0228F5D903206FE03B4AA1
:101D0000136C23F080531364DBE70022384B1A6016
:101D100000F03EFB0546354B1B6813F0007F06D0F4
:101D200000F036FB401B0228F5D9032057E0E36999
:101D3000226A1343626A43EA8213A26A5208013A92
:101D400043EA0243E26A43EA0263284A53600122FB
:101D5000274B1A6000F01CFB0446244B1B6813F051
:101D6000007F06D100F014FB001B0228F5D90320E8
:101D700035E0002033E0002031E0012B31D01B4B57
:101D80005B6803F48001E269914201D0012026E002
:101D900003F03F02216A8A4201D001201FE0616AFC
:101DA00047F6C0721A40B2EB811F01D0012016E045
:101DB00003F44031A26A5208013AB1EB024F01D05C
:101DC00001200CE003F07063E26AB3EB026F0AD00B
:101DD000012004E001207047012000E0002002B053
:101DE00070BD0120FBE70020F9E700BF003802408A
:101DF00060004742F8B5314B9B6803F00C03042B9D
:101E000059D0082B01D02E48F8BD2C4B5A6802F04F
:101E10003F025B6813F4800F2AD0284B5B68C3F342
:101E200088131E4600275C010025E41A65EB0705B0
:101E3000A90141EA9461A001001B61EB0501CB00FF
:101E400043EA5073C400A01943EB07014B0243EA75
:101E5000D0534402204619460023FFF76DF9174B73
:101E60005B68C3F3014301335B00B0FBF3F0F8BDE3
:101E7000124B5B68C3F388131E4600275C010025E4
:101E8000E41A65EB0705A90141EA9461A001001B72
:101E900061EB0501CB0043EA5073C400A01943EB8A
:101EA00007018B0243EA905384022046194600231F
:101EB000FFF742F9D3E70348F8BD00BF00380240FE
:101EC0000024F40000127A00002800F09E8070B513
:101ED0000446504B1B6803F007038B4209D2CBB278
:101EE0004C4A1370136803F00703994201D0012094
:101EF00070BD236813F0020F17D013F0040F04D045
:101F0000454A936843F4E0539360236813F0080F45
:101F100004D0414A936843F4604393603E4A936817
:101F200023F0F003A068034393600D46236813F089
:101F3000010F32D06368012B21D09A1E012A25D9C6
:101F4000354A126812F0020F61D033498A6822F0D4
:101F5000030213438B6000F01BFA06462E4B9B686E
:101F600003F00C036268B3EB820F16D000F010FA96
:101F7000801B41F288339842F0D9032070BD264A75
:101F8000126812F4003FE0D1012070BD224A1268AD
:101F900012F0007FD9D1012070BD1E4B1B6803F0E9
:101FA00007039D4209D2EAB21A4B1A701B6803F06C
:101FB00007039D4201D0012070BD236813F0040F78
:101FC00006D0154A936823F4E053E1680B4393600D
:101FD000236813F0080F07D00F4A936823F4604377
:101FE000216943EAC1039360FFF704FF0A4B9B6832
:101FF000C3F30313094AD35CD840094B1860094B5B
:10200000186800F079F9002070BD012070470120A8
:1020100070BD00BF003C024000380240602900084B
:102020006C00002068000020014B1868704700BF5A
:102030006C00002008B5FFF7F7FF044B9B68C3F363
:102040008223034AD35CD84008BD00BF0038024059
:102050007029000808B5FFF7E7FF044B9B68C3F33E
:102060004233034AD35CD84008BD00BF0038024069
:102070007029000800230F2B00F2CD80F0B583B04B
:1020800062E085684FEA430E032707FA0EF725EA58
:102090000705CE6806FA0EF635438560456825EAE1
:1020A00002024D68C5F300159D402A43426057E087
:1020B000DD08083550F8252003F00706B6000F2785
:1020C000B74022EA07020F6907FA06F6324340F8E2
:1020D000252059E0042700E0002707FA06F63243DE
:1020E00002354D4E46F825204C4A9568E24305EAF4
:1020F00002064F6817F4801F01D044EA0506474DD9
:10210000AE60ED6802EA05064F6817F4001F01D0C3
:1021100044EA0506414DEE606D6802EA05064F6827
:1021200017F4003F01D044EA05063C4D6E602D686F
:102130002A404E6816F4803F01D044EA0502374C2D
:10214000226001330F2B64D801229A400C6814409E
:10215000A242F6D14D6805F00305013D012D90D94D
:102160004A6802F00302032A09D0C2685F0003260E
:10217000BE4022EA06028D68BD402A43C2604A681A
:1021800002F00302022A93D002685F000326BE40D9
:1021900022EA06024D6805F00305BD402A430260AD
:1021A0004A6812F4403FCCD0002201921C4A556C80
:1021B00045F480455564526C02F480420192019AC4
:1021C0009D08AE1C144A52F8262003F00306B60000
:1021D0000F27B74022EA0702124FB8423FF47CAF04
:1021E00007F58067B8420ED007F58067B8420CD07B
:1021F00007F58067B8420AD007F58067B8423FF418
:1022000069AF072769E7012767E7022765E7032723
:1022100063E703B0F0BD704700380140003C014067
:1022200000380240000002400369194201D1002039
:1022300070470120704712B90904816170478161BC
:1022400070470000074AD36823F4E0631B041B0CAB
:10225000000200F4E060184340F0BF6040F400303A
:10226000D060704700ED00E030B4164BDB68C3F37C
:102270000223C3F10704042C28BF04241D1D062DCE
:1022800017D9033B012505FA04F4013C214099408C
:1022900005FA03F3013B1340194300280BDB090146
:1022A000C9B200F1604000F5614080F8001330BC15
:1022B00070470023E6E700F00F000901C9B2024BA6
:1022C0001954F4E700ED00E014ED00E00138B0F13E
:1022D000807F0AD2064B5860F021064A82F823100C
:1022E0000020986007221A6070470120704700BFE5
:1022F00010E000E000ED00E010B504460E4B187849
:102300004FF47A73B3FBF0F30C4A1068B0FBF3F0B0
:10231000FFF7DCFF68B90F2C01D9012010BD0022A6
:1023200021464FF0FF30FFF79FFF054B1C60002058
:1023300010BD012010BD00BF640000206C00002013
:102340006800002008B50B4B1A6842F400721A604E
:102350001A6842F480621A601A6842F480721A6045
:102360000320FFF76FFF0020FFF7C6FFFFF78AF992
:10237000002008BD003C0240034A1168034B1B7853
:102380000B441360704700BFDC0000206400002095
:10239000014B1868704700BFDC00002038B50446C8
:1023A000FFF7F6FF0546B4F1FF3F02D0044B1B7860
:1023B0001C44FFF7EDFF401B8442FAD838BD00BF34
:1023C00064000020034AD2F8883043F47003C2F856
:1023D0008830704700ED00E008B50120FFF7DEFF10
:1023E00008BD000038B50446FFF7F6FF002512E0EF
:1023F00001224FF480611548FFF71DFFFFF7ECFF46
:1024000001224FF480711248FFF715FF6400E4B217
:10241000FFF7E2FF0135072D11DC00224FF4807138
:102420000B48FFF708FFFFF7D7FF14F0800FDFD14D
:1024300000224FF480610548FFF7FDFEDEE7002231
:102440004FF480710248FFF7F6FE38BD00040240E9
:102450000000024070B5FFF7BFFF0026344622E0BF
:10246000164D00224FF480712846FFF7E4FEFFF777
:10247000B3FF00224FF480611148FFF7DCFE012218
:102480004FF480712846FFF7D6FEFFF7A5FF6400E2
:10249000E4B24FF480612846FFF7C6FE0443E4B27D
:1024A000FFF79AFF0136072EDADD00224FF4807124
:1024B0000248FFF7C0FE204670BD00BF000002408A
:1024C0000004024070B504460D4616460022102155
:1024D0000948FFF7B0FE2046FFF784FF002403E021
:1024E000FFF7B8FF30550134AC42F9DB012210216F
:1024F0000148FFF7A0FE70BD0004024070B504461D
:102500000D461646002210210948FFF794FE20468A
:10251000FFF768FF002403E0305DFFF763FF01343D
:10252000AC42F9DB012210210148FFF784FE70BDA7
:102530000004024008B5012220210248FFF77BFE7B
:1025400008BD00BF0004024008B500222021024857
:10255000FFF771FE08BD00BF000402402DE9F047FF
:1025600090B000AF05460C46904640220021384608
:10257000FDF73AFFA246E31D23F00703ADEB030D81
:10258000E946424621462846FFF7B8FF6A462146FB
:1025900005F0DF00FFF796FF0026564559DA19F8D7
:1025A000062008EB060418F806309A4227D13C466C
:1025B0002A4D0FCD0FC40FCD0FC495E8030044F88A
:1025C000040B21803846FDF7BBFF254C642382B203
:1025D00039462046FFF7A3F919F8063018F8062007
:1025E00020493846FDF770FF3846FDF7A9FF642300
:1025F00082B239462046FFF792F90136CDE73D46D3
:10260000DFF864E0BEE80F000FC5BEE80F000FC59D
:102610009EE8030045F8040B29803846FDF790FF3B
:102620000F4D642382B239462846FFF778F919F82E
:10263000063022780B493846FDF746FF3846FDF74D
:102640007FFF642382B239462846FFF768F90120EC
:1026500000E000204037BD46BDE8F087282A00088A
:1026600098000020FC290008D429000800B583B098
:102670000143114319439DF8103019439DF814305C
:102680000B439DF81810194302AA02F8011D0121FD
:102690002020FFF763FF03B05DF804FB00B583B0B3
:1026A0000143114319439DF810200A439DF814106B
:1026B000114302AA02F8011D01212120FFF74EFF5C
:1026C00003B05DF804FB00B583B001431143194327
:1026D0009DF810200A439DF81410114302AA02F835
:1026E000011D01212220FFF739FF03B05DF804FB33
:1026F00000B583B002AA02F8010D01212320FFF7E3
:102700002DFF03B05DF804FB00B583B0014302AABE
:1027100002F8011D01212420FFF720FF03B05DF81E
:1027200004FB00B583B002AA02F8010D01212520A7
:10273000FFF714FF03B05DF804FB00B583B001435D
:10274000114302AA02F8011D01212720FFF7D6FE3E
:1027500003B05DF804FB08B50A4601462A20FFF7DE
:10276000FDFE08BD08B50A4601463020FFF7F6FE1B
:1027700008BD000030B589B0FFF7E6FE0320FFF783
:10278000B7FF1F4B93E8030006908DF81C1006A9B5
:102790000520FFF7E7FF06A90520FFF7DCFF01256D
:1027A0000195002400942346224621462046FFF747
:1027B00075FF019500942346224621462046FFF7E7
:1027C00082FF0A212046FFF79FFF2820FFF7A9FF7D
:1027D00008AA072302F8093D29462620FFF7BEFE76
:1027E00002940223019304230093082322462146E6
:1027F0002046FFF73BFF0A20FFF7EEFD09B030BD92
:102800005829000808B50A460146A020FFF776FEC1
:1028100008BD000030B593B0FFF7F4FFFFF78AFE64
:102820000DF1070201210720FFF74CFE9DF807205C
:10283000214902A8FDF748FE02A8FDF781FE6423A6
:1028400082B202A91D48FFF76AF89DF807302E2BC7
:102850001CD002AC1A4D0FCD0FC495E80F0007C471
:1028600024F8023B1B0C237002A8FDF769FE6423C9
:1028700082B202A91148FFF752F81022202140200D
:10288000FFF75BFFFFF760FE13B030BD02AC0D4DEC
:102890000FCD0FC495E80F0007C424F8023B1B0CB2
:1028A000237002A8FDF74CFE642382B202A90348FC
:1028B000FFF735F8E1E700BF78290008980000200D
:1028C000B429000894290008DFF834D00D480E49D7
:1028D0000E4A002302E0D458C4500433C4188C427A
:1028E000F9D30B4A0B4C002301E013600432A242DF
:1028F000FBD3FFF767FDFDF7B5FCFEF785FE7047DC
:10290000008001200000002070000020A02A0008A4
:1029100070000020E4000020FEE70000F8B500BFD2
:10292000F8BC08BC9E467047F8B500BFF8BC08BCB0
:042930009E46704708
:10293400C0C0CAFEC0C0CAFEC0C0CAFEC0C0CAFE73
:10294400C0C0CAFEC0C0CAFEC0C0CAFEC0C0CAFE63
:10295400C0C0CAFE99AABBCCDD0000000000000084
:10296400000000000102030406070809000000003B
:10297400010203043C5354415455533E20524547ED
:102984004953544552203A2025233032780A000016
:102994006E524632342073656E64207374617475AC
:1029A40073202D2073756363657373202D0A0000F3
:1029B4006E524632342073656E642073746174758C
:1029C40073202D206661696C757265202D0A0000E4
:1029D40050726F626C656D2077726974696E6720DE
:1029E400746F206E52463234207265676973746561
:1029F40072202D2D2000000077726974696E6720A3
:102A0400646174613A203C25233032783E2072653B
:102A140061645F646174613A203C25233032783EFE
:102A24000A000000537563636573732077726974D9
:102A3400696E6720746F206E524632342072656767
:102A44006973746572202D2D20000000430000007E
:102A5400232D302B20000000686C4C006566674510
:102A64004647000030313233343536373839414245
:102A740043444546000000003031323334353637A4
:0C2A840038396162636465660000000080
:082A9000D8E6FF7F0100000001
:042A98002D02000803
:042A9C000502000827
:102AA0000400002000000000000000000000000002
:102AB0000000000000000000000000000000000016
:102AC00000000000502A0008000000000000000084
:102AD00000000000000000000000000000000000F6
:102AE00000000000000000000000000000000000E6
:102AF00000000000000000000000000000000000D6
:102B00000000000001000000100000000024F4009C
:04000005080028C9FE
:00000001FF
