:020000040800F2
:1000000000800120E51B0008B50A0008B70A0008B7
:10001000B90A0008BB0A0008BD0A00080000000079
:10002000000000000000000000000000BF0A0008FF
:10003000C10A000800000000C30A0008C50A000841
:10004000351C0008351C0008351C0008351C00084C
:10005000351C0008351C0008351C0008351C00083C
:10006000351C0008351C0008351C0008351C00082C
:10007000351C0008351C0008351C0008351C00081C
:10008000351C0008351C0008351C00080000000065
:10009000000000000000000000000000351C000807
:1000A000351C0008351C0008351C0008351C0008EC
:1000B000351C0008351C0008351C0008351C0008DC
:1000C000351C0008351C0008351C0008351C0008CC
:1000D000351C0008351C0008351C00080000000015
:1000E000351C0008351C0008351C00080000000005
:1000F000000000000000000000000000351C0008A7
:1001000000000000351C0008351C0008351C0008E4
:1001100000000000000000000000000000000000DF
:10012000351C0008351C0008351C0008351C00086B
:10013000351C000800000000000000000000000066
:10014000000000000000000000000000351C000856
:10015000351C0008351C0008351C0008351C00083B
:10016000351C0008351C00080000000000000000DD
:10017000000000000000000000000000000000007F
:1001800000000000351C0008000000000000000016
:04019000351C000812
:1001C000044B05481B1A062B02D9044B03B11847F0
:1001D000704700BF0F0000200C000020000000004E
:1001E00005490648091A891001EBD171491002D05E
:1001F000034B03B1184770470C0000200C0000208F
:100200000000000010B5064C237843B9FFF7D8FF73
:10021000044B13B10448AFF300800123237010BDD9
:100220000C00002000000000381C000808B5084B36
:100230001BB108490848AFF300800848036813B9A8
:10024000BDE80840CCE7064B002BF9D09847F7E70C
:100250000000000010000020381C00080C000020E6
:100260000000000070B50F4E0F4D761BB61018BF82
:10027000002405D0013455F8043B9847A642F9D133
:100280000A4E0B4D761B01F0D7FCB61018BF0024A8
:1002900006D0013455F8043B9847A642F9D170BD09
:1002A00070BD00BFE81D0008E81D0008EC1D000837
:1002B000E81D0008844641EA000313F003036DD1F2
:1002C000403A41D351F8043B40F8043B51F8043B19
:1002D00040F8043B51F8043B40F8043B51F8043B20
:1002E00040F8043B51F8043B40F8043B51F8043B10
:1002F00040F8043B51F8043B40F8043B51F8043B00
:1003000040F8043B51F8043B40F8043B51F8043BEF
:1003100040F8043B51F8043B40F8043B51F8043BDF
:1003200040F8043B51F8043B40F8043B51F8043BCF
:1003300040F8043B51F8043B40F8043B51F8043BBF
:1003400040F8043B403ABDD2303211D351F8043B5F
:1003500040F8043B51F8043B40F8043B51F8043B9F
:1003600040F8043B51F8043B40F8043B103AEDD20E
:100370000C3205D351F8043B40F8043B043AF9D25F
:10038000043208D0D2071CBF11F8013B00F8013B32
:1003900001D30B8803806046704700BF082A13D33F
:1003A0008B078DD010F003038AD0C3F10403D21A57
:1003B000DB071CBF11F8013B00F8013B80D331F88B
:1003C000023B20F8023B7BE7043AD9D3013A11F80B
:1003D000013B00F8013BF9D20B7803704B78437076
:1003E0008B7883706046704770B4860746D0541E81
:1003F000002A41D0CAB2034602E014F1FF343BD3D5
:1004000003F8012B9D07F8D1032C2ED9CDB245EA74
:1004100005250F2C45EA054519D903F1100226469A
:10042000103E0F2E42F8105C42F80C5C42F8085C5B
:1004300042F8045C02F11002F2D8A4F1100222F09A
:100440000F0204F00F041032032C13440DD91E4682
:100450002246043A032A46F8045BFAD8221F22F007
:1004600003020432134404F003042CB1C9B21C4447
:1004700003F8011B9C42FBD170BC70471446034635
:10048000C2E700BF00000000000000000000000004
:10049000000000000000000000000000000000005C
:1004A000000000000000000000000000000000004C
:1004B000000000000000000000000000000000003C
:1004C00090F800F06DE9024520F007016FF0000C94
:1004D00010F0070491F820F040F049804FF000043C
:1004E0006FF00700D1E9002391F840F000F1080017
:1004F00082FA4CF2A4FA8CF283FA4CF3A2FA8CF34F
:100500004BBBD1E9022382FA4CF200F10800A4FAB5
:100510008CF283FA4CF3A2FA8CF3E3B9D1E9042309
:1005200082FA4CF200F10800A4FA8CF283FA4CF340
:10053000A2FA8CF37BB9D1E9062301F1200182FAFA
:100540004CF200F10800A4FA8CF283FA4CF3A2FA00
:100550008CF3002BC6D0002A04BF04301A4612BA0E
:10056000B2FA82F2FDE8024500EBD2007047D1E911
:10057000002304F00305C4F100004FEAC50514F0A0
:10058000040F91F840F00CFA05F562EA05021CBF71
:1005900063EA050362464FF00004A9E753B94AB97C
:1005A000002908BF00281CBF4FF0FF314FF0FF307B
:1005B00000F07AB9ADF1080C6DE904CE00F006F850
:1005C000DDF804E0DDE9022304B070472DE9F047CF
:1005D0008C460D460446089E002B51D18A42174690
:1005E0006DD9B2FA82FEBEF1000F0BD0CEF1200C15
:1005F00001FA0EF520FA0CFC02FA0EF74CEA050C93
:1006000000FA0EF44FEA174A250CBCFBFAF81FFA61
:1006100087F90AFB18CC45EA0C4508FB09F3AB4205
:100620000AD9ED1908F1FF3280F02381AB4240F284
:100630002081A8F102083D44ED1AA4B2B5FBFAF0FE
:100640000AFB105544EA054400FB09F9A14509D904
:10065000E41900F1FF3380F00A81A14540F20781DF
:1006600002383C44A4EB090440EA08400021002E73
:1006700061D024FA0EF4002334607360BDE8F08783
:100680008B4207D9002E54D0002186E8210008466D
:10069000BDE8F087B3FA83F1002940F08E80AB42C9
:1006A00002D3824200F2FA80841A65EB030501202E
:1006B000AC46002E3FD086E81010BDE8F08712B996
:1006C0000127B7FBF2F7B7FA87FEBEF1000F34D16E
:1006D000EB1B3A0C1FFA87FC0121B3FBF2F8250C47
:1006E00002FB183345EA03450CFB08F3AB4207D97C
:1006F000ED1908F1FF3002D2AB4200F2D180804602
:10070000ED1AA3B2B5FBF2F002FB105543EA054423
:100710000CFB00FCA44507D9E41900F1FF3302D219
:10072000A44500F2B8801846A4EB0C0440EA084047
:100730009DE731463046BDE8F087CEF1200405FA4A
:100740000EF307FA0EF720FA04F83A0C25FA04F42F
:1007500048EA0308B4FBF2F14FEA184502FB1144E2
:100760001FFA87FC45EA044501FB0CF3AB4200FA93
:100770000EF409D9ED1901F1FF3080F08A80AB4207
:1007800040F2878002393D44EB1A1FFA88F5B3FB2B
:10079000F2F002FB103345EA034500FB0CF3AB42D9
:1007A00007D9ED1900F1FF386FD2AB426DD902388D
:1007B0003D44EB1A40EA01418FE7C1F1200722FADC
:1007C00007F88B4005FA01F448EA030320FA07FE14
:1007D0004FEA134CFD404EEA040EB5FBFCF94FEA1C
:1007E0001E440CFB19551FFA83F844EA054509FB22
:1007F00008F4AC4202FA01F200FA01FA08D9ED1845
:1008000009F1FF3043D2AC4241D9A9F102091D449C
:100810002D1B1FFA8EFEB5FBFCF00CFB10554EEAAB
:10082000054400FB08F8A04507D9E41800F1FF359E
:1008300029D2A04527D902381C4440EA0940A4EB3C
:100840000804A0FB02894C45C6464D4615D312D07C
:1008500056B1BAEB0E0364EB050404FA07F7CB407C
:100860001F43CC40376074600021BDE8F087184614
:10087000F8E69046E0E6C245EAD2B8EB020E69EB34
:1008800003050138E4E72846D7E7404691E781466B
:10089000BEE7014678E702383C4445E7084608E7EA
:1008A000A8F102083D442BE7704700BFF0B58BB0BC
:1008B0000024059406940794089409940194304BFD
:1008C0001A6B42F004021A631A6B02F004020192DE
:1008D000019A02941A6B42F080021A631A6B02F0BA
:1008E00080020292029A03941A6B42F001021A6388
:1008F0001A6B02F001020392039A04941A6B42F0FD
:1009000002021A631B6B03F002030493049B1D4D48
:1009100022464FF49071284600F0B1FE1A4E22464E
:100920004FF48661304600F0AAFE4FF40053059361
:100930004FF404130693079405A9144800F0BEFD74
:100940004FF490730593012706970794089405A91F
:10095000284600F0B3FD4FF486630593069707948D
:10096000089405A9304600F0A9FD4FF48063059373
:100970000694079405A9284600F0A0FD0BB0F0BD31
:10098000003802400000024000040240000802401B
:1009900072B6FEE708B50A480A4B03604FF4E1332C
:1009A000436000238360C36003610C224261836162
:1009B000C36100F0A9F900B908BDFFF7E9FF00BF66
:1009C000280000200044004000B595B030220021EE
:1009D00008A8FFF709FD00230393049305930693EA
:1009E000079301931F4A116C41F080511164126CFE
:1009F00002F080520192019A02931B490A6822F484
:100A0000404242F400420A600A6802F44042029204
:100A1000029A0221089101220B9210220C920E914F
:100A20000F9310924FF4A87311930423129307238A
:100A3000139308A800F006FA80B90F23039302214C
:100A40000491002305934FF480520692079303A864
:100A500000F05EFC20B915B05DF804FBFFF798FFCD
:100A6000FFF796FF003802400070004008B500F024
:100A70008DFEFFF7A9FFFFF719FFFFF78BFF00F0CF
:100A8000DDFF01F069F80A4C01222021204600F028
:100A9000F6FDC82000F0A6FE00222021204600F02E
:100AA000EEFDC82000F09EFE00F0BAFEEBE700BFAE
:100AB00000000240FEE7FEE7FEE7FEE7FEE77047C4
:100AC0007047704708B500F07BFE08BD00B583B0E5
:100AD000002100910C4B5A6C42F480425A645A6CCB
:100AE00002F480420092009A01911A6C42F0805206
:100AF0001A641B6C03F080530193019B072000F0E4
:100B0000C5FD03B05DF804FB0038024000B589B0B4
:100B10000023039304930593069307930268144BF1
:100B20009A4202D009B05DF804FB0021019103F55F
:100B3000FA331A6C42F400321A641A6C02F400326E
:100B40000192019A02911A6B42F001021A631B6B27
:100B500003F001030293029B0C23039302230493EB
:100B60000723079303A9034800F0A8FCDAE700BFB6
:100B70000044004000000240F8B5044602681369D2
:100B800023F44053C1680B43136183680269134324
:100B900042691343C26913430168CA6822F41642CA
:100BA00022F00C021343CB600268536923F44073B4
:100BB00081690B4353610368314A934232D002F595
:100BC000806293422ED000F059FCE369B3F5004FE8
:100BD0002BD025680021061841EB010736184F413C
:100BE000FB0043EA5673F20016461F4663689A00FC
:100BF0009B0F80197941FFF7D1FC224CA4FB0032F6
:100C00005109642202FB110213013233A4FB0323B6
:100C10005B0903F0F00202EB011203F00F0313442F
:100C2000AB60F8BD00F03AFCCFE72568002106185C
:100C300041EB010736184F41FB0043EA5673F200BF
:100C400016461F466268002392185B41801979415D
:100C5000FFF7A4FC0B4CA4FB00325109642202FBF9
:100C60001102D3003233A4FB03235B095A0002F4C0
:100C7000F87202EB011203F007031344AB60F8BDF6
:100C8000001001401F85EB512DE9F04104460F464D
:100C900016469846069D23681B6837EA03030CBF77
:100CA00001230023B3422CD1B5F1FF3FF3D02DB186
:100CB00000F092FDA0EB08008542ECD2226802F120
:100CC0000C0353E8003F23F4D0730C3242E80031A8
:100CD0000029F3D1226802F1140353E8003F23F006
:100CE0000103143242E800310029F3D1202384F8B3
:100CF0003D3084F83E30002384F83C300320BDE8CA
:100D0000F0810020BDE8F08158B310B5044690F89A
:100D10003D300BB3242384F83D302268D36823F49C
:100D20000053D3602046FFF727FF2268136923F49E
:100D3000904313612268536923F02A0353612268A8
:100D4000D36843F40053D36000202064202384F848
:100D50003D3084F83E3010BD80F83C30FFF7D6FEC1
:100D6000D8E7012070472DE9F04182B01E4690F887
:100D70003D30DBB2202B04D00223184602B0BDE880
:100D8000F08104460D469046002954D0002A54D0E4
:100D900090F83C30012B01D10223EEE7012380F8CB
:100DA0003C3000230364212380F83D3000F014FD23
:100DB0000746A4F82480A4F82680A368B3F5805FD2
:100DC00005D04FF00008002384F83C3012E023697E
:100DD00013B14FF00008F6E7A8460025F3E72268B4
:100DE00038F8023BC3F308035360E38C9BB2013B2A
:100DF0009BB2E384E38C9BB273B100963B46002226
:100E000080212046FFF740FFC8B9002DE7D02368B6
:100E100015F8012B5A60E8E700963B460022402176
:100E20002046FFF731FF034608B10323A5E7202240
:100E300084F83D20A1E701239FE701239DE70323D9
:100E40009BE70000002800F0E98170B582B00446FD
:100E5000036813F0010F3BD0A74B9B6803F00C0312
:100E6000042B2CD0A44B9B6803F00C03082B21D03F
:100E70006368B3F5803F4FD0B3F5A02F52D09E4B9F
:100E80001A6822F480321A601A6822F480221A60EA
:100E90006368002B50D000F09FFC0546964B1B6802
:100EA00013F4003F14D100F097FC401B6428F5D9DF
:100EB0000320B8E1904B5B6813F4800FD8D08E4BC1
:100EC0001B6813F4003F03D06368002B00F0A88177
:100ED000236813F0020F55D0874B9B6813F00C0F5B
:100EE0003ED0854B9B6803F00C03082B33D0E3689E
:100EF000002B68D00122814B1A6000F06DFC054682
:100F00007D4B1B6813F0020F54D100F065FC401BB1
:100F10000228F5D9032086E1774A136843F4803329
:100F20001360B5E7744B1A6842F480221A601A689D
:100F300042F480321A60ABE700F04EFC05466E4B7F
:100F40001B6813F4003FC3D000F046FC401B64282C
:100F5000F5D9032067E1684B5B6813F4800FC6D1B5
:100F6000654B1B6813F0020F04D0E368012B01D01E
:100F7000012058E1604A136823F0F803216943EA2D
:100F8000C1031360236813F0080F40D0636963B393
:100F900001225B4B1A6000F01FFC0546564B5B6F4D
:100FA00013F0020F33D100F017FC401B0228F5D9D3
:100FB000032038E1504A136823F0F803216943EA1B
:100FC000C1031360DEE700224C4B1A6000F004FC02
:100FD0000546494B1B6813F0020FD3D000F0FCFB11
:100FE000401B0228F5D903201DE10022444B1A6062
:100FF00000F0F2FB0546404B5B6F13F0020F06D08A
:1010000000F0EAFB401B0228F5D903200BE123681E
:1010100013F0040F79D0384B1B6C13F0805F33D181
:1010200000230193344B1A6C42F080521A641B6CFB
:1010300003F080530193019B0125324B1B6813F48D
:10104000807F23D0A368012B34D0052B38D02A4BC6
:101050001A6F22F001021A671A6F22F004021A674F
:10106000A368002B36D000F0B7FB0646224B1B6F5F
:1010700013F0020F48D100F0AFFB801B41F2883320
:101080009842F3D90320CEE00025D6E71D4A136825
:1010900043F48073136000F09FFB0646194B1B68F6
:1010A00013F4807FCED100F097FB801B0228F5D986
:1010B0000320B8E0104A136F43F001031367CFE732
:1010C0000D4B1A6F42F004021A671A6F42F00102C8
:1010D0001A67C5E700F080FB0646074B1B6F13F04D
:1010E000020F11D000F078FB801B41F28833984248
:1010F000F3D9032097E000BF0038024000004742C8
:10110000800E474200700040EDB9A369002B00F04B
:101110008980484A926802F00C02082A51D0022BBA
:1011200017D00022444B1A6000F056FB0446414B96
:101130001B6813F0007F42D000F04EFB001B02281A
:10114000F5D903206FE03B4A136C23F080531364FE
:10115000DBE70022384B1A6000F03EFB0546354BBA
:101160001B6813F0007F06D000F036FB401B0228FE
:10117000F5D9032057E0E369226A1343626A43EA20
:101180008213A26A5208013A43EA0243E26A43EA3E
:101190000263284A53600122274B1A6000F01CFBAF
:1011A0000446244B1B6813F0007F06D100F014FBAB
:1011B000001B0228F5D9032035E0002033E0002091
:1011C00031E0012B31D01B4B5B6803F48001E269F5
:1011D000914201D0012026E003F03F02216A8A42B9
:1011E00001D001201FE0616A47F6C0721A40B2EBDD
:1011F000811F01D0012016E003F44031A26A520899
:10120000013AB1EB024F01D001200CE003F0706312
:10121000E26AB3EB026F0AD0012004E001207047BC
:10122000012000E0002002B070BD0120FBE700209B
:10123000F9E700BF0038024060004742F8B5314B83
:101240009B6803F00C03042B59D0082B01D02E48C7
:10125000F8BD2C4B5A6802F03F025B6813F4800F14
:101260002AD0284B5B68C3F388131E4600275C0115
:101270000025E41A65EB0705A90141EA9461A00184
:10128000001B61EB0501CB0043EA5073C400A019B9
:1012900043EB07014B0243EAD05344022046194670
:1012A0000023FFF77BF9174B5B68C3F3014301335E
:1012B0005B00B0FBF3F0F8BD124B5B68C3F388131F
:1012C0001E4600275C010025E41A65EB0705A9010D
:1012D00041EA9461A001001B61EB0501CB0043EAE8
:1012E0005073C400A01943EB07018B0243EA9053EB
:1012F0008402204619460023FFF750F9D3E703483C
:10130000F8BD00BF003802400024F40000127A004B
:10131000002800F09E8070B50446504B1B6803F017
:1013200007038B4209D2CBB24C4A1370136803F007
:101330000703994201D0012070BD236813F0020F0A
:1013400017D013F0040F04D0454A936843F4E053D8
:101350009360236813F0080F04D0414A936843F464
:10136000604393603E4A936823F0F003A068034310
:1013700093600D46236813F0010F32D06368012B90
:1013800021D09A1E012A25D9354A126812F0020F7F
:1013900061D033498A6822F0030213438B6000F066
:1013A0001BFA06462E4B9B6803F00C036268B3EBF6
:1013B000820F16D000F010FA801B41F28833984259
:1013C000F0D9032070BD264A126812F4003FE0D124
:1013D000012070BD224A126812F0007FD9D101208D
:1013E00070BD1E4B1B6803F007039D4209D2EAB291
:1013F0001A4B1A701B6803F007039D4201D00120AD
:1014000070BD236813F0040F06D0154A936823F4C7
:10141000E053E1680B439360236813F0080F07D093
:101420000F4A936823F46043216943EAC103936040
:10143000FFF704FF0A4B9B68C3F30313094AD35C0D
:10144000D840094B1860094B186800F079F9002062
:1014500070BD01207047012070BD00BF003C0240FC
:10146000003802405C1C0008080000200400002036
:10147000014B1868704700BF0800002008B5FFF74F
:10148000F7FF044B9B68C3F38223034AD35CD84025
:1014900008BD00BF003802406C1C000808B5FFF70B
:1014A000E7FF044B9B68C3F34233034AD35CD84045
:1014B00008BD00BF003802406C1C000800230F2B41
:1014C00000F2CD80F0B583B062E085684FEA430E4C
:1014D000032707FA0EF725EA0705CE6806FA0EF687
:1014E00035438560456825EA02024D68C5F300155D
:1014F0009D402A43426057E0DD08083550F825201A
:1015000003F00706B6000F27B74022EA07020F696B
:1015100007FA06F6324340F8252059E0042700E098
:10152000002707FA06F6324302354D4E46F82520CD
:101530004C4A9568E24305EA02064F6817F4801F9B
:1015400001D044EA0506474DAE60ED6802EA0506A3
:101550004F6817F4001F01D044EA0506414DEE60C4
:101560006D6802EA05064F6817F4003F01D044EAAF
:1015700005063C4D6E602D682A404E6816F4803F8B
:1015800001D044EA0502374C226001330F2B64D8A6
:1015900001229A400C681440A242F6D14D6805F031
:1015A0000305013D012D90D94A6802F00302032A88
:1015B00009D0C2685F000326BE4022EA06028D6899
:1015C000BD402A43C2604A6802F00302022A93D057
:1015D00002685F000326BE4022EA06024D6805F05D
:1015E0000305BD402A4302604A6812F4403FCCD054
:1015F000002201921C4A556C45F480455564526C9A
:1016000002F480420192019A9D08AE1C144A52F8DD
:10161000262003F00306B6000F27B74022EA070290
:10162000124FB8423FF47CAF07F58067B8420ED046
:1016300007F58067B8420CD007F58067B8420AD03A
:1016400007F58067B8423FF469AF072769E70127CC
:1016500067E7022765E7032763E703B0F0BD70473C
:1016600000380140003C01400038024000000240C8
:101670000369194201D1002070470120704712B957
:10168000090481617047816170470000074AD3688F
:1016900023F4E0631B041B0C000200F4E060184319
:1016A00040F0BF6040F40030D060704700ED00E0D3
:1016B00030B4164BDB68C3F30223C3F10704042CD8
:1016C00028BF04241D1D062D17D9033B012505FA4B
:1016D00004F4013C2140994005FA03F3013B134017
:1016E000194300280BDB0901C9B200F1604000F585
:1016F000614080F8001330BC70470023E6E700F03B
:101700000F000901C9B2024B1954F4E700ED00E0E3
:1017100014ED00E00138B0F1807F0AD2064B58602A
:10172000F021064A82F823100020986007221A60F0
:1017300070470120704700BF10E000E000ED00E0BE
:1017400010B504460E4B18784FF47A73B3FBF0F3E0
:101750000C4A1068B0FBF3F0FFF7DCFF68B90F2C00
:1017600001D9012010BD002221464FF0FF30FFF7C4
:101770009FFF054B1C60002010BD012010BD00BF65
:1017800000000020080000200400002008B50B4BDA
:101790001A6842F400721A601A6842F480621A6091
:1017A0001A6842F480721A600320FFF76FFF00206E
:1017B000FFF7C6FFFFF78AF9002008BD003C024092
:1017C000034A1168034B1B780B441360704700BF3A
:1017D0006C00002000000020014B1868704700BF1B
:1017E0006C00002038B50446FFF7F6FF0546B4F15B
:1017F000FF3F02D0044B1B781C44FFF7EDFF401B5A
:101800008442FAD838BD00BF00000020034AD2F855
:10181000883043F47003C2F88830704700ED00E070
:1018200008B501224FF480710148FFF728FF08BD79
:101830000000024008B500224FF480710148FFF714
:101840001EFF08BD0000024008B501224FF4806170
:101850000148FFF714FF08BD0004024008B500224C
:101860004FF480610148FFF70AFF08BD0004024001
:1018700008B5002210210248FFF701FF08BD00BF94
:101880000004024008B5012210210248FFF7F7FECC
:1018900008BD00BF0004024008B501222021024813
:1018A000FFF7EDFE08BD00BF0004024008B50022AE
:1018B00020210248FFF7E3FE08BD00BF00040240FC
:1018C00008B54FF480610248FFF7D2FE08BD00BFA3
:1018D0000000024008B50120FFF784FF08BD38B5BD
:1018E0000446FFF7F7FF002508E0FFF7ADFFFFF71D
:1018F00097FF6400E4B2FFF7EDFF0135072D09DC27
:10190000FFF798FFFFF7E6FF14F0800FEDD1FFF728
:10191000A5FFECE7FFF78EFF38BD38B5FFF7DAFF1C
:1019200000252C4612E0FFF785FFFFF7D3FFFFF7F6
:1019300095FFFFF775FFFFF7CDFF6400E4B2FFF7F7
:10194000BFFF0443E4B2FFF7C5FF0135072DEADD11
:10195000FFF770FF204638BD70B504460D461646A9
:10196000FFF786FF2046FFF7BAFF002403E0FFF7EA
:10197000D4FF30550134AC42F9DBFFF783FF70BD73
:1019800070B504460D461646FFF772FF2046FFF776
:10199000A6FF002403E0305DFFF7A1FF0134AC4255
:1019A000F9DBFFF76FFF70BD2DE9F04389B000AFA1
:1019B000814688461646FFF7E3FF444608F10703D1
:1019C00023F00703ADEB030D6D466A46414609F06F
:1019D000DF00FFF7C1FF0023A34218DAE95CF25CE5
:1019E000914201D10133F7E73C460B4D0FCD0FC4B7
:1019F00095E80F0084E80F003846FEF761FD642388
:101A000082B239460548FFF7AEF9012000E0002018
:101A10002437BD46BDE8F083C01D00082800002023
:101A200000B583B00DF1070201210720FFF794FFF5
:101A30009DF8070003B05DF804FB000030B5C5B0A9
:101A40003CAC3F4D0FCD0FC495E80F0007C424F800
:101A5000023B1B0C23703CA8FEF732FD394C64237B
:101A600082B23CA92046FFF77EF95322364927A8C7
:101A7000FEF720FC27A8FEF723FD642382B227A9E6
:101A80002046FFF770F9FFF711FF44AC002304F87C
:101A9000753D224601212120FFF786FF22460121C4
:101AA0002220FFF781FF224601212420FFF77CFF3F
:101AB0000E238DF89B30224601212020FFF774FF72
:101AC000224B1B6844AA42F87C3D0421A020FFF76A
:101AD00057FFFFF7E1FEFFF7A3FF05460120FFF7E1
:101AE000F9FEFFF7E3FE08238DF89B302246012123
:101AF0002020FFF759FF15F02E0F10D14622144970
:101B000001A8FEF7D7FB01A8FEF7DAFC642382B236
:101B100001A90C48FFF727F9002045B030BD9022FD
:101B20000C4901A8FEF7C6FB01A8FEF7C9FC642317
:101B300082B201A90348FFF716F90120EDE700BFC3
:101B4000741C000828000020941C0008501C000889
:101B5000E81C0008301D000830B585B0FFF7A6FE70
:101B60001F4B93E8030002908DF80C1002AA052188
:101B70003020FFF705FF002504AC04F8095D22467C
:101B800001212120FFF710FF8DF807502246012187
:101B90002220FFF709FF8DF807502246012124205B
:101BA000FFF702FF28238DF8073022460121252068
:101BB000FFF7FAFE07238DF8073022460121262081
:101BC000FFF7F2FE0E238DF8073022460121202078
:101BD000FFF7EAFE9620FFF77DFE05B030BD00BF9F
:101BE000541C0008DFF834D00D480E490E4A00237B
:101BF00002E0D458C4500433C4188C42F9D30B4AC1
:101C00000B4C002301E013600432A242FBD3FFF728
:101C1000FDFDFEF727FBFEF729FF7047008001203E
:101C2000000000200C000020F01D00080C00002027
:101C300070000020FEE70000F8B500BFF8BC08BC4B
:101C40009E467047F8B500BFF8BC08BC9E4670477A
:101C5000DEADBEEF10DE101010000000000000002E
:101C6000000000000102030406070809000000004C
:101C7000010203042D2D2D2D206E72663234207446
:101C8000782073656C6620746573742E202D2D2D5D
:101C90002D0A00002D2D2D2D2054686973207465A8
:101CA000737420746F207665726966696573206647
:101CB000756E6374696F6E206F6620612074726147
:101CC0006E6D69747465722073656E6420776974D3
:101CD000686F757420612072656365697665722E20
:101CE000202D2D2D2D0A00000A203E206E52463256
:101CF00034207472616E736D697373696F6E2073D3
:101D0000656C662D74657374206861732066616903
:101D10006C65642E205354415455532069732065DB
:101D20007870656374656420307832452E00000059
:101D30000A203E206E52463234207472616E736DFA
:101D4000697373696F6E2073656C662D7465737447
:101D500020686173207061737365642E2053544151
:101D6000545553206861732076616C7565206F66E9
:101D700020307832452C2054585F44532028747208
:101D8000616E7366657220646174612073656E7440
:101D90002920776173207365742C2052585F505F3F
:101DA0004E4F203D203131312C206D65616E732006
:101DB0005258204649464F20456D7074792E0A00CE
:101DC00050726F626C656D2077726974696E6720FE
:101DD000746F20535049207265676973746572008F
:081DE000ECE7FF7F01000000A9
:041DE8002D020008C0
:041DEC0005020008E4
:0C1DF00001000000100000000024F400BE
:0400000508001BE5EF
:00000001FF
