:020000040800F2
:1000000000800120C92C0008411600084316000892
:1000100045160008471600084916000800000000B1
:100020000000000000000000000000004B16000867
:100030004D160008000000004F1600085116000879
:10004000192D0008192D0008192D0008192D000878
:10005000192D0008192D0008192D0008192D000868
:10006000192D0008192D0008192D0008192D000858
:10007000192D0008192D0008192D0008192D000848
:10008000192D0008192D0008192D00080000000086
:10009000000000000000000000000000192D000812
:1000A000192D0008192D0008192D0008192D000818
:1000B000192D0008192D0008192D0008192D000808
:1000C000192D0008192D0008192D0008192D0008F8
:1000D000192D0008192D0008192D00080000000036
:1000E000192D0008192D0008192D00080000000026
:1000F000000000000000000000000000192D0008B2
:1001000000000000192D0008192D0008192D000805
:1001100000000000000000000000000000000000DF
:10012000192D0008192D0008192D0008192D000897
:10013000192D000800000000000000000000000071
:10014000000000000000000000000000192D000861
:10015000192D0008192D0008192D0008192D000867
:10016000192D0008192D00080000000000000000F3
:10017000000000000000000000000000000000007F
:1001800000000000192D0008000000000000000021
:04019000192D00081D
:1001C000044B05481B1A062B02D9044B03B11847F0
:1001D000704700BF73000020700000200000000086
:1001E00005490648091A891001EBD171491002D05E
:1001F000034B03B1184770477000002070000020C7
:100200000000000010B5064C237843B9FFF7D8FF73
:10021000044B13B10448AFF300800123237010BDD9
:1002200070000020000000001C2D000808B5084BDD
:100230001BB108490848AFF300800848036813B9A8
:10024000BDE80840CCE7064B002BF9D09847F7E70C
:1002500000000000740000201C2D00087000002029
:100260000000000070B50F4E0F4D761BB61018BF82
:10027000002405D0013455F8043B9847A642F9D133
:100280000A4E0B4D761B02F049FDB61018BF002434
:1002900006D0013455F8043B9847A642F9D170BD09
:1002A00070BD00BFF82F0008F82F0008FC2F0008D1
:1002B000F82F0008844641EA000313F003036DD1D0
:1002C000403A41D351F8043B40F8043B51F8043B19
:1002D00040F8043B51F8043B40F8043B51F8043B20
:1002E00040F8043B51F8043B40F8043B51F8043B10
:1002F00040F8043B51F8043B40F8043B51F8043B00
:1003000040F8043B51F8043B40F8043B51F8043BEF
:1003100040F8043B51F8043B40F8043B51F8043BDF
:1003200040F8043B51F8043B40F8043B51F8043BCF
:1003300040F8043B51F8043B40F8043B51F8043BBF
:1003400040F8043B403ABDD2303211D351F8043B5F
:1003500040F8043B51F8043B40F8043B51F8043B9F
:1003600040F8043B51F8043B40F8043B103AEDD20E
:100370000C3205D351F8043B40F8043B043AF9D25F
:10038000043208D0D2071CBF11F8013B00F8013B32
:1003900001D30B8803806046704700BF082A13D33F
:1003A0008B078DD010F003038AD0C3F10403D21A57
:1003B000DB071CBF11F8013B00F8013B80D331F88B
:1003C000023B20F8023B7BE7043AD9D3013A11F80B
:1003D000013B00F8013BF9D20B7803704B78437076
:1003E0008B7883706046704770B4860746D0541E81
:1003F000002A41D0CAB2034602E014F1FF343BD3D5
:1004000003F8012B9D07F8D1032C2ED9CDB245EA74
:1004100005250F2C45EA054519D903F1100226469A
:10042000103E0F2E42F8105C42F80C5C42F8085C5B
:1004300042F8045C02F11002F2D8A4F1100222F09A
:100440000F0204F00F041032032C13440DD91E4682
:100450002246043A032A46F8045BFAD8221F22F007
:1004600003020432134404F003042CB1C9B21C4447
:1004700003F8011B9C42FBD170BC70471446034635
:10048000C2E700BF0CB4F0B59DB022AC029154F8A5
:10049000042B069123466FF000454FF402774FF688
:1004A000FF7602A90194ADF8147004950795ADF894
:1004B000166000F093F9029B00221A701DB0BDE88F
:1004C000F04002B0704700BF0EB4F0B59CB021AB55
:1004D0000F4953F8042B019305466FF00044086858
:1004E00002954FF402774FF6FF7602A90695ADF814
:1004F000147004940794ADF8166000F06FF9029B35
:1005000000221A701CB0BDE8F04003B0704700BF75
:1005100000000020000000000000000000000000BB
:1005200000000000000000000000000000000000CB
:1005300000000000000000000000000000000000BB
:1005400090F800F06DE9024520F007016FF0000C13
:1005500010F0070491F820F040F049804FF00004BB
:100560006FF00700D1E9002391F840F000F1080096
:1005700082FA4CF2A4FA8CF283FA4CF3A2FA8CF3CE
:100580004BBBD1E9022382FA4CF200F10800A4FA35
:100590008CF283FA4CF3A2FA8CF3E3B9D1E9042389
:1005A00082FA4CF200F10800A4FA8CF283FA4CF3C0
:1005B000A2FA8CF37BB9D1E9062301F1200182FA7A
:1005C0004CF200F10800A4FA8CF283FA4CF3A2FA80
:1005D0008CF3002BC6D0002A04BF04301A4612BA8E
:1005E000B2FA82F2FDE8024500EBD2007047D1E991
:1005F000002304F00305C4F100004FEAC50514F020
:10060000040F91F840F00CFA05F562EA05021CBFF0
:1006100063EA050362464FF00004A9E72DE9F047BD
:100620008E689E420C461D46174628D8804688890B
:1006300010F4906F32D04E692368096906EB4606C4
:10064000A3EB010906EBD6766B1C76104B44B34244
:10065000324684BF1E463246430522D511464046E7
:1006600000F0BAFC824680B34A462169FFF722FEB9
:10067000A38923F4906343F08003A38116E0086804
:100680001E462A46394600F0FBFBA2682368961BEB
:100690002B44A66023600020BDE8F087086835463B
:1006A000EFE7404600F0F6FC824650B1A6EB0903A6
:1006B0000AEB09006661C4F810A02060A3602E4612
:1006C000DFE72169404600F03FFC0C23C8F800300A
:1006D000A38943F04003A3814FF0FF30BDE8F087CA
:1006E0002DE9F04F936883B09046002B70D082467E
:1006F0000C4617688D68086842E0A38913F4906F70
:100700002ED06569216905EB4505A0EB010B05EBD2
:10071000D5750BF101006D103044A8422A4684BF04
:1007200005462A465B0538D51146504600F054FC74
:1007300000283CD05A4621690190FFF7BBFDA289F1
:10074000019B22F4906242F08002A281A5EB0B0291
:1007500003EB0B00656123612060A2603546B34660
:100760005A46494600F08CFBD8F80830A268206849
:10077000551B58449E1BA5602060C8F808603EB316
:100780007E683B460837002EFAD0AE42D3F8009080
:10079000AB46B2D23546B346E2E7504600F07AFCAB
:1007A00003460028D2D12169504600F0CDFB0C232E
:1007B000CAF80030A389002243F040034FF0FF3015
:1007C000A381C8F80820C8F8042003B0BDE8F08F62
:1007D0000020C8F8040003B0BDE8F08F2DE9F04F09
:1007E00014468A899DB0150689460393824603D52F
:1007F0000B69002B00F0EB8030238DF82A30237832
:100800007C4E0022202109928DF829100127002B0F
:1008100000F08480252B254603D117E0252B00F01E
:10082000878015F8013F002BF8D1B5EB040B75D08C
:1008300022465B4649465046FFF7F0FE01306DD038
:10084000099B2A785B440993002A67D000234FF064
:10085000FF3201350493079306938DF853301A93B2
:10086000059204E0049A07FA03F3134304932978EA
:100870000522304600F0B4FA2C46831B01350028CF
:10088000F0D1049BD90644BF20228DF85320217853
:100890001A0744BF2B228DF853202A296BD0A1F1CF
:1008A0003002092A0BD8079B14F8011F03EB8303BE
:1008B00002EB4303A1F13002092AF5D907932E294F
:1008C00041D04D4D0322284600F08AFA38B1049BEE
:1008D000401B402202FA00F00343013404932178C4
:1008E00046488DF828100622013400F079FA0028D5
:1008F0004BD0434B03B303AB00934A46414B04A98F
:100900005046AFF300808046B8F1FF3F06D0099B08
:10091000434409932378002B7FF47CAFB9F80C3063
:100920005B0654BF09984FF0FF301DB0BDE8F08F53
:10093000B5EB040B8AD07BE7039B073323F0070357
:1009400008330393E3E761782A2904F1010026D0F4
:10095000A1F130020023092A05930446B1D814F806
:10096000011F03EB830302EB4303A1F13002092AC9
:10097000F5D90593A5E7039A11680432002903927B
:100980001FDB07916178013499E703AB00934A4676
:100990001C4B04A9504600F0D1F88046B4E7039BF5
:1009A0001A680592002A03F104030393B8BF4FF0BD
:1009B000FF3204F10203AEBFA178A17805921C4674
:1009C0007FE7494243F0020307910493DAE74021AD
:1009D00000F002FBC9F80000C9F8100018B140236C
:1009E000C9F8143008E70C23CAF800304FF0FF3084
:1009F0009BE700BFB42F0008BC2F0008C02F0008E1
:100A0000000000001D0600082DE9F0470C46914645
:100A10000A698968DDF820808A42B8BF0A46C9F8A9
:100A2000002094F8431006461F4611B10132C9F860
:100A30000020236899065DD5D9F800200232C9F854
:100A40000020236813F0060F19461DD1E1688A1AA9
:100A5000002AD8BF194617DD04F1190A002505E060
:100A6000E368D9F800209B1AAB420CDD0123524603
:100A700039463046C047013005F10105F0D14FF04D
:100A8000FF30BDE8F087216894F84330003318BF89
:100A900001238A060AD5E1185A1C302081F8430048
:100AA000224494F8451082F84310023304F14302C3
:100AB00039463046C0470130E1D0236803F00603D1
:100AC000042B29D0A36822699342C8BF4FF00009C4
:100AD00030DD9B1A99441A34002501E04D4529D098
:100AE0000123224639463046C047013005F1010551
:100AF000F4D1C4E713F0060F08D1E168D9F800205B
:100B00008A1A002AD8BF1946A6DCBDE794F84330FC
:100B1000003318BF0123C9E7D9F80010E068A368C3
:100B20002269A0EB0109934229EAE979D1DCB9F104
:100B3000000FD0D10020BDE8F08700BF2DE9F043C1
:100B40000C46097E85B06E29064617460C989846D5
:100B500004F1430C55D00FD8632900F01B8100F23B
:100B6000D68000295CD0582940F0E88084F84510F0
:100B70002268DFF860E213E0732900F0FD8000F2E4
:100B800089806F2900F0E480702940F0D7802268C6
:100B900042F0200222607823DFF83CE284F84530FE
:100BA0000368150603F1040100F1FF8055064BBFF1
:100BB0001B881B6801600160D00744BF42F020021F
:100BC0002260002B40F09580226822F020022260F3
:100BD0001021002284F843206068A0600028C0F241
:100BE0008D80226822F004022260002B67D1002849
:100BF00040F08680654608296FD0ACEB0503236181
:100C000011E023681A0600F1D38013F0400F036847
:100C1000626903F1040101601B6814BF1A801A6045
:100C2000002365462361CDF800803B4603AA214698
:100C30003046FFF7E9FE013021D02A4623693946C4
:100C40003046C04701301AD02368E06813F0020F25
:100C5000039B19D0C21A002A16DD04F119090025D8
:100C600004E0E068039BC21AAA420DDD01234A4654
:100C700039463046C047013005F10105F1D14FF04A
:100C8000FF3005B0BDE8F0839842B8BF184605B004
:100C9000BDE8F08375295BD078294FD122687AE7C7
:100CA0006168A1602D200029C3F1000384F843008E
:100CB00021DB22F00402DFF81CE122600A216546F4
:100CC000B3FBF1F201FB123013461EF8002005F8C9
:100CD000012D002BF4D108298FD12368D9078CD599
:100CE000626823699A4288DC302305F8013C013DA3
:100CF00083E710216DE7DFF8DCE00A21002BDED16D
:100D00009EF8003084F8423004F1420573E764290C
:100D100001D0692912D122680368150603F1040184
:100D200052D455064BBFB3F900301B680160016017
:100D3000002BB5DBDFF89CE00A214DE7012384F8A6
:100D40004210236104F14205002384F843306AE72E
:100D500023681A0633D413F0400F036803F104022A
:100D600015BF1B881B68026002606F2914BF0A212F
:100D70000821DFF860E02CE703686268191D016054
:100D80001D680021284600F02BF800B3401B60606E
:100D90002061D9E703681A68191D0123016004F175
:100DA000420584F842202361CEE701601B6803E717
:100DB00003686269191D01601B681A6030E70368E7
:100DC0001A1D02601B68D0E701601B68B0E760680D
:100DD000DEE700BFC82F0008DC2F0008000000007D
:100DE00001F0FF01102A2BDB10F0070F08D010F8DC
:100DF000013B013A8B422DD010F0070F42B3F6D1E0
:100E0000F0B441EA012141EA014122F007047FF0F8
:100E100000070023F0E80256083C85EA010586EA4F
:100E2000010685FA47F5A3FA87F586FA47F6A5FA8B
:100E300087F68EB9EED1F0BC01F0FF0102F0070297
:100E400032B110F8013B013A83EA010313B1F8D142
:100E50000020704701387047002D06BF3546033823
:100E6000073815F0010F07D1013015F4807F02BF5C
:100E7000013015F4C03F0130F0BC0138704700BFAD
:100E80008842F0B50DD98B1898420AD28418002AEE
:100E900051D0224613F8014D02F8014D9942F9D183
:100EA000F0BD0F2A48D941EA00039B0746D100F163
:100EB000100401F11003154653F8106C44F8106C3F
:100EC00053F80C6C44F80C6C53F8086C44F8086C3C
:100ED000103D53F8046C44F8046C0F2D03F110031B
:100EE00004F11004E8D8A2F1100323F00F0302F07C
:100EF0000F0E1033BEF1030F1944034421D91E1FF6
:100F00000D467446043C55F8047B46F8047F032CD8
:100F1000F8D8AEF1040424F003040434214423443B
:100F200002F0030262B1013B0A4411F8014B03F8DD
:100F3000014F8A42F9D1F0BD0346F3E70346F2E7D9
:100F4000F0BD7246EEE700BF91B151F8043C0439A0
:100F5000002BB8BFC9181F4B1A68FAB18A4230B4C7
:100F60000AD908680C18A24226D04A60196030BC21
:100F700070478B4203D81A465368002BF9D1146886
:100F800015198D420DD006D808680C189C4219D04E
:100F90004B605160EBE70C230360E8E74A6019609F
:100FA000704709680C44111999421460DFD10ACBCB
:100FB0000C4453601460DAE7146852684A602044B5
:100FC0000860D3E71C685B684B6020440860516090
:100FD000CDE700BF8C00002070B5CC1C24F00304CA
:100FE00008340C2C38BF0C24002C06463BDBA142F5
:100FF00039D8274D296851B10A68121B04D436E04C
:101000001A68121B1AD519464B68002BF8D169686B
:10101000002937D02146304600F064F8431C22D026
:10102000C31C23F00305A84205D0291A304600F05E
:1010300059F8013017D02C602B4604E00B2A0DD94B
:101040001A6013441C6003F10B0020F007001A1D06
:10105000821A02D05142995070BD70BD8B420ED0A1
:101060005A684A60EFE70C233360002070BD0B2AFA
:1010700003D84A680B462A60E5E70B46E0E70A46D4
:101080000B46F8E7304600F02DF86860C2E700BF75
:101090008C000020F8B51446F9B1C2B106460D46E1
:1010A00000F032F8844201D82846F8BD2146304687
:1010B000FFF792FF074670B122462946FFF7FAF87C
:1010C000294630463D46FFF73FFF2846F8BDFFF76B
:1010D0003BFF2546E8E70546E6E71146BDE8F84050
:1010E000FFF77ABF38B5074C002305460846236052
:1010F00000F014F8431C00D038BD2368002BFBD04F
:101100002B6038BDE000002051F8040C0028A0F14D
:101110000400BCBF0B58C018704700BF044A054903
:101120001368002B08BF0B46184410601846704720
:1011300094000020E800002053B94AB9002908BFF4
:1011400000281CBF4FF0FF314FF0FF3000F07AB99C
:10115000ADF1080C6DE904CE00F006F8DDF804E00E
:10116000DDE9022304B070472DE9F0478C460D46B7
:101170000446089E002B51D18A4217466DD9B2FA17
:1011800082FEBEF1000F0BD0CEF1200C01FA0EF55D
:1011900020FA0CFC02FA0EF74CEA050C00FA0EF4E9
:1011A0004FEA174A250CBCFBFAF81FFA87F90AFB2D
:1011B00018CC45EA0C4508FB09F3AB420AD9ED19F6
:1011C00008F1FF3280F02381AB4240F22081A8F188
:1011D00002083D44ED1AA4B2B5FBFAF00AFB105523
:1011E00044EA054400FB09F9A14509D9E41900F1D5
:1011F000FF3380F00A81A14540F2078102383C4468
:10120000A4EB090440EA08400021002E61D024FA32
:101210000EF4002334607360BDE8F0878B4207D979
:10122000002E54D0002186E821000846BDE8F08752
:10123000B3FA83F1002940F08E80AB4202D38242A0
:1012400000F2FA80841A65EB03050120AC46002EFB
:101250003FD086E81010BDE8F08712B90127B7FB30
:10126000F2F7B7FA87FEBEF1000F34D1EB1B3A0C50
:101270001FFA87FC0121B3FBF2F8250C02FB18339F
:1012800045EA03450CFB08F3AB4207D9ED1908F119
:10129000FF3002D2AB4200F2D1808046ED1AA3B2F9
:1012A000B5FBF2F002FB105543EA05440CFB00FCD1
:1012B000A44507D9E41900F1FF3302D2A44500F296
:1012C000B8801846A4EB0C0440EA08409DE731467C
:1012D0003046BDE8F087CEF1200405FA0EF307FA98
:1012E0000EF720FA04F83A0C25FA04F448EA030849
:1012F000B4FBF2F14FEA184502FB11441FFA87FCD8
:1013000045EA044501FB0CF3AB4200FA0EF409D99F
:10131000ED1901F1FF3080F08A80AB4240F2878006
:1013200002393D44EB1A1FFA88F5B3FBF2F002FBD9
:10133000103345EA034500FB0CF3AB4207D9ED1926
:1013400000F1FF386FD2AB426DD902383D44EB1A41
:1013500040EA01418FE7C1F1200722FA07F88B40EC
:1013600005FA01F448EA030320FA07FE4FEA134C9A
:10137000FD404EEA040EB5FBFCF94FEA1E440CFB9F
:1013800019551FFA83F844EA054509FB08F4AC42F5
:1013900002FA01F200FA01FA08D9ED1809F1FF305A
:1013A00043D2AC4241D9A9F102091D442D1B1FFAB9
:1013B0008EFEB5FBFCF00CFB10554EEA054400FB1D
:1013C00008F8A04507D9E41800F1FF3529D2A04557
:1013D00027D902381C4440EA0940A4EB0804A0FBCA
:1013E00002894C45C6464D4615D312D056B1BAEBCC
:1013F0000E0364EB050404FA07F7CB401F43CC400F
:10140000376074600021BDE8F0871846F8E6904622
:10141000E0E6C245EAD2B8EB020E69EB03050138FB
:10142000E4E72846D7E7404691E78146BEE7014614
:1014300078E702383C4445E7084608E7A8F1020887
:101440003D442BE7704700BFF0B58BB000240594F6
:1014500006940794089409940194304B1A6B42F057
:1014600004021A631A6B02F004020192019A0294B8
:101470001A6B42F080021A631A6B02F08002029229
:10148000029A03941A6B42F001021A631A6B02F07B
:1014900001020392039A04941A6B42F002021A6347
:1014A0001B6B03F002030493049B1D4D22464FF473
:1014B0009071284600F0A9FE1A4E22464FF486612C
:1014C000304600F0A2FE4FF4005305934FF404138E
:1014D0000693079405A9144800F0B6FD4FF49073E5
:1014E0000593012706970794089405A9284600F05C
:1014F000ABFD4FF48663059306970794089405A9FE
:10150000304600F0A1FD4FF48063059306940794E4
:1015100005A9284600F098FD0BB0F0BD0038024048
:1015200000000240000402400008024072B6FEE7DC
:1015300008B50A480A4B03604FF4E13343600023C7
:101540008360C36003610C2242618361C36100F068
:10155000A1F900B908BDFFF7E9FF00BF980000201E
:101560000044004000B595B03022002108A8FEF7E5
:101570003BFF002303930493059306930793019382
:101580001F4A116C41F080511164126C02F08052BC
:101590000192019A02931B490A6822F4404242F4E4
:1015A00000420A600A6802F440420292029A022152
:1015B000089101220B9210220C920E910F9310921F
:1015C0004FF4A8731193042312930723139308A8CD
:1015D00000F0FEF980B90F23039302210491002348
:1015E00005934FF480520692079303A800F056FC2F
:1015F00020B915B05DF804FBFFF798FFFFF796FFE1
:10160000003802400070004000B58BB000F084FE4E
:10161000FFF7A8FFFFF718FFFFF78AFF07496846A3
:1016200001F0F6FA01F014F800231A46FF2168468B
:1016300001F0D6FA684601F0BFF9F5E7382D000849
:10164000FEE7FEE7FEE7FEE7FEE7704770477047FC
:1016500008B500F07BFE08BD00B583B00021009105
:101660000C4B5A6C42F480425A645A6C02F4804229
:101670000092009A01911A6C42F080521A641B6C1D
:1016800003F080530193019B072000F0C5FD03B0D8
:101690005DF804FB0038024000B589B000230393D5
:1016A00004930593069307930268144B9A4202D061
:1016B00009B05DF804FB0021019103F5FA331A6CBF
:1016C00042F400321A641A6C02F400320192019A58
:1016D00002911A6B42F001021A631B6B03F00103C3
:1016E0000293029B0C230393022304930723079383
:1016F00003A9034800F0A8FCDAE700BF004400405B
:1017000000000240F8B504460268136923F4405310
:10171000C1680B4313618368026913434269134331
:10172000C26913430168CA6822F4164222F00C020F
:101730001343CB600268536923F4407381690B4300
:1017400053610368314A934232D002F5806293427A
:101750002ED000F059FCE369B3F5004F2BD025687B
:101760000021061841EB010736184F41FB0043EA00
:101770005673F20016461F4663689A009B0F801945
:101780007941FFF7D9FC224CA4FB003251096422B5
:1017900002FB110213013233A4FB03235B0903F0A4
:1017A000F00202EB011203F00F031344AB60F8BD2B
:1017B00000F03AFCCFE725680021061841EB01074D
:1017C00036184F41FB0043EA5673F20016461F4697
:1017D0006268002392185B4180197941FFF7ACFCE5
:1017E0000B4CA4FB00325109642202FB1102D3000E
:1017F0003233A4FB03235B095A0002F4F87202EBB4
:10180000011203F007031344AB60F8BD0010014060
:101810001F85EB512DE9F04104460F4616469846C8
:10182000069D23681B6837EA03030CBF01230023CE
:10183000B3422CD1B5F1FF3FF3D02DB100F092FDB2
:10184000A0EB08008542ECD2226802F10C0353E8B9
:10185000003F23F4D0730C3242E800310029F3D169
:10186000226802F1140353E8003F23F0010314320D
:1018700042E800310029F3D1202384F83D3084F878
:101880003E30002384F83C300320BDE8F081002086
:10189000BDE8F08158B310B5044690F83D300BB365
:1018A000242384F83D302268D36823F40053D360A6
:1018B0002046FFF727FF2268136923F49043136142
:1018C0002268536923F02A0353612268D36843F4E2
:1018D0000053D36000202064202384F83D3084F836
:1018E0003E3010BD80F83C30FFF7D6FED8E701202F
:1018F00070472DE9F04182B01E4690F83D30DBB2D2
:10190000202B04D00223184602B0BDE8F081044623
:101910000D469046002954D0002A54D090F83C300F
:10192000012B01D10223EEE7012380F83C30002394
:101930000364212380F83D3000F014FD0746A4F82D
:101940002480A4F82680A368B3F5805F05D04FF00B
:101950000008002384F83C3012E0236913B14FF0F3
:101960000008F6E7A8460025F3E7226838F8023BAE
:10197000C3F308035360E38C9BB2013B9BB2E38447
:10198000E38C9BB273B100963B4600228021204637
:10199000FFF740FFC8B9002DE7D0236815F8012BE9
:1019A0005A60E8E700963B46002240212046FFF7B8
:1019B00031FF034608B10323A5E7202284F83D2028
:1019C000A1E701239FE701239DE703239BE7000095
:1019D000002800F0E98170B582B00446036813F076
:1019E000010F3BD0A74B9B6803F00C03042B2CD0BA
:1019F000A44B9B6803F00C03082B21D06368B3F55C
:101A0000803F4FD0B3F5A02F52D09E4B1A6822F4DE
:101A100080321A601A6822F480221A606368002BF0
:101A200050D000F09FFC0546964B1B6813F4003F16
:101A300014D100F097FC401B6428F5D90320B8E1CD
:101A4000904B5B6813F4800FD8D08E4B1B6813F457
:101A5000003F03D06368002B00F0A881236813F0D7
:101A6000020F55D0874B9B6813F00C0F3ED0854B6F
:101A70009B6803F00C03082B33D0E368002B68D07D
:101A80000122814B1A6000F06DFC05467D4B1B68FE
:101A900013F0020F54D100F065FC401B0228F5D969
:101AA000032086E1774A136843F480331360B5E777
:101AB000744B1A6842F480221A601A6842F4803229
:101AC0001A60ABE700F04EFC05466E4B1B6813F442
:101AD000003FC3D000F046FC401B6428F5D903202A
:101AE00067E1684B5B6813F4800FC6D1654B1B68D8
:101AF00013F0020F04D0E368012B01D0012058E15C
:101B0000604A136823F0F803216943EAC1031360B4
:101B1000236813F0080F40D0636963B301225B4B65
:101B20001A6000F01FFC0546564B5B6F13F0020F66
:101B300033D100F017FC401B0228F5D9032038E10F
:101B4000504A136823F0F803216943EAC103136084
:101B5000DEE700224C4B1A6000F004FC0546494BBE
:101B60001B6813F0020FD3D000F0FCFB401B0228CF
:101B7000F5D903201DE10022444B1A6000F0F2FB6E
:101B80000546404B5B6F13F0020F06D000F0EAFBF6
:101B9000401B0228F5D903200BE1236813F0040F42
:101BA00079D0384B1B6C13F0805F33D10023019345
:101BB000344B1A6C42F080521A641B6C03F0805351
:101BC0000193019B0125324B1B6813F4807F23D0C6
:101BD000A368012B34D0052B38D02A4B1A6F22F082
:101BE00001021A671A6F22F004021A67A368002B19
:101BF00036D000F0B7FB0646224B1B6F13F0020FE6
:101C000048D100F0AFFB801B41F288339842F3D9F2
:101C10000320CEE00025D6E71D4A136843F4807305
:101C2000136000F09FFB0646194B1B6813F4807F7E
:101C3000CED100F097FB801B0228F5D90320B8E035
:101C4000104A136F43F001031367CFE70D4B1A6F70
:101C500042F004021A671A6F42F001021A67C5E7E0
:101C600000F080FB0646074B1B6F13F0020F11D0EC
:101C700000F078FB801B41F288339842F3D90320AF
:101C800097E000BF0038024000004742800E474204
:101C900000700040EDB9A369002B00F08980484A2C
:101CA000926802F00C02082A51D0022B17D00022B1
:101CB000444B1A6000F056FB0446414B1B6813F07E
:101CC000007F42D000F04EFB001B0228F5D9032014
:101CD0006FE03B4A136C23F080531364DBE7002270
:101CE000384B1A6000F03EFB0546354B1B6813F07D
:101CF000007F06D000F036FB401B0228F5D90320F8
:101D000057E0E369226A1343626A43EA8213A26AD4
:101D10005208013A43EA0243E26A43EA0263284A6C
:101D200053600122274B1A6000F01CFB0446244B31
:101D30001B6813F0007F06D100F014FB001B022883
:101D4000F5D9032035E0002033E0002031E0012BFD
:101D500031D01B4B5B6803F48001E269914201D0F2
:101D6000012026E003F03F02216A8A4201D00120CF
:101D70001FE0616A47F6C0721A40B2EB811F01D0C2
:101D8000012016E003F44031A26A5208013AB1EB97
:101D9000024F01D001200CE003F07063E26AB3EB64
:101DA000026F0AD0012004E001207047012000E00A
:101DB000002002B070BD0120FBE70020F9E700BF62
:101DC0000038024060004742F8B5314B9B6803F091
:101DD0000C03042B59D0082B01D02E48F8BD2C4BF6
:101DE0005A6802F03F025B6813F4800F2AD0284B38
:101DF0005B68C3F388131E4600275C010025E41AC4
:101E000065EB0705A90141EA9461A001001B61EBA4
:101E10000501CB0043EA5073C400A01943EB07014E
:101E20004B0243EAD0534402204619460023FFF7F1
:101E300083F9174B5B68C3F3014301335B00B0FBCD
:101E4000F3F0F8BD124B5B68C3F388131E460027FE
:101E50005C010025E41A65EB0705A90141EA9461DC
:101E6000A001001B61EB0501CB0043EA5073C400E5
:101E7000A01943EB07018B0243EA905384022046EA
:101E800019460023FFF758F9D3E70348F8BD00BF10
:101E9000003802400024F40000127A00002800F00C
:101EA0009E8070B50446504B1B6803F007038B42BD
:101EB00009D2CBB24C4A1370136803F0070399425E
:101EC00001D0012070BD236813F0020F17D013F06A
:101ED000040F04D0454A936843F4E05393602368A9
:101EE00013F0080F04D0414A936843F460439360B1
:101EF0003E4A936823F0F003A068034393600D46C5
:101F0000236813F0010F32D06368012B21D09A1E91
:101F1000012A25D9354A126812F0020F61D03349DF
:101F20008A6822F0030213438B6000F01BFA064616
:101F30002E4B9B6803F00C036268B3EB820F16D044
:101F400000F010FA801B41F288339842F0D9032048
:101F500070BD264A126812F4003FE0D1012070BD26
:101F6000224A126812F0007FD9D1012070BD1E4BA9
:101F70001B6803F007039D4209D2EAB21A4B1A709C
:101F80001B6803F007039D4201D0012070BD236848
:101F900013F0040F06D0154A936823F4E053E16868
:101FA0000B439360236813F0080F07D00F4A936820
:101FB00023F46043216943EAC1039360FFF704FF00
:101FC0000A4B9B68C3F30313094AD35CD840094BFF
:101FD0001860094B186800F079F9002070BD0120E5
:101FE0007047012070BD00BF003C02400038024035
:101FF000442D00086C00002068000020014B186888
:10200000704700BF6C00002008B5FFF7F7FF044BD6
:102010009B68C3F38223034AD35CD84008BD00BF4A
:1020200000380240542D000808B5FFF7E7FF044BC5
:102030009B68C3F34233034AD35CD84008BD00BF5A
:1020400000380240542D000800230F2B00F2CD80F1
:10205000F0B583B062E085684FEA430E032707FAC4
:102060000EF725EA0705CE6806FA0EF635438560B9
:10207000456825EA02024D68C5F300159D402A43D4
:10208000426057E0DD08083550F8252003F00706C8
:10209000B6000F27B74022EA07020F6907FA06F6D3
:1020A000324340F8252059E0042700E0002707FAD2
:1020B00006F6324302354D4E46F825204C4A9568C7
:1020C000E24305EA02064F6817F4801F01D044EA94
:1020D0000506474DAE60ED6802EA05064F6817F445
:1020E000001F01D044EA0506414DEE606D6802EA2A
:1020F00005064F6817F4003F01D044EA05063C4D41
:102100006E602D682A404E6816F4803F01D044EA84
:102110000502374C226001330F2B64D801229A400C
:102120000C681440A242F6D14D6805F00305013D4C
:10213000012D90D94A6802F00302032A09D0C2682F
:102140005F000326BE4022EA06028D68BD402A4396
:10215000C2604A6802F00302022A93D002685F005C
:102160000326BE4022EA06024D6805F00305BD4085
:102170002A4302604A6812F4403FCCD00022019208
:102180001C4A556C45F480455564526C02F48042FB
:102190000192019A9D08AE1C144A52F8262003F0C1
:1021A0000306B6000F27B74022EA0702124FB842D3
:1021B0003FF47CAF07F58067B8420ED007F5806723
:1021C000B8420CD007F58067B8420AD007F580679F
:1021D000B8423FF469AF072769E7012767E702279D
:1021E00065E7032763E703B0F0BD7047003801409F
:1021F000003C0140003802400000024003691942DF
:1022000001D1002070470120704712B90904816193
:102210007047816170470000074AD36823F4E06388
:102220001B041B0C000200F4E060184340F0BF6088
:1022300040F40030D060704700ED00E030B4164B41
:10224000DB68C3F30223C3F10704042C28BF042472
:102250001D1D062D17D9033B012505FA04F4013C89
:102260002140994005FA03F3013B1340194300282C
:102270000BDB0901C9B200F1604000F5614080F854
:10228000001330BC70470023E6E700F00F0009019F
:10229000C9B2024B1954F4E700ED00E014ED00E080
:1022A0000138B0F1807F0AD2064B5860F021064A0F
:1022B00082F823100020986007221A6070470120DE
:1022C000704700BF10E000E000ED00E010B50446EC
:1022D0000E4B18784FF47A73B3FBF0F30C4A106886
:1022E000B0FBF3F0FFF7DCFF68B90F2C01D9012038
:1022F00010BD002221464FF0FF30FFF79FFF054B36
:102300001C60002010BD012010BD00BF6400002033
:102310006C0000206800002008B50B4B1A6842F4DE
:1023200000721A601A6842F480621A601A6842F4F5
:1023300080721A600320FFF76FFF0020FFF7C6FFCF
:10234000FFF78AF9002008BD003C0240034A1168EB
:10235000034B1B780B441360704700BFDC00002068
:1023600064000020014B1868704700BFDC000020AB
:1023700038B50446FFF7F6FF0546B4F1FF3F02D03B
:10238000044B1B781C44FFF7EDFF401B8442FAD836
:1023900038BD00BF64000020034AD2F8883043F4FF
:1023A0007003C2F88830704700ED00E010B50446B5
:1023B000FEF7C6F8642382B221460248FFF799FA75
:1023C00010BD00BF9800002008B50120FFF7D0FF26
:1023D00008BD000038B50446FFF7F6FF002510E001
:1023E00001224FF480611448FFF70FFF01224FF4E0
:1023F00080711248FFF709FF6400E4B2FFF7E4FFC1
:102400000135072D11DC00224FF480710B48FFF7D6
:10241000FCFEFFF7D9FF14F0800FE1D100224FF44A
:1024200080610548FFF7F1FEE0E700224FF480717C
:102430000248FFF7EAFE38BD0004024000000240F7
:1024400070B5FFF7C1FF0026344622E0164D00228A
:102450004FF480712846FFF7D8FEFFF7B5FF002242
:102460004FF480611148FFF7D0FE01224FF48071D4
:102470002846FFF7CAFEFFF7A7FF6400E4B24FF457
:1024800080612846FFF7BAFE0443E4B2FFF79CFFE1
:102490000136072EDADD00224FF480710248FFF783
:1024A000B4FE204670BD00BF0000024000040240A0
:1024B00070B504460D461646002210210948FFF764
:1024C000A4FE2046FFF786FF002403E0FFF7B8FFD5
:1024D00030550134AC42F9DB012210210148FFF7ED
:1024E00094FE70BD0004024070B504460D461646C9
:1024F000002210210948FFF788FE2046FFF76AFFF7
:10250000002403E0305DFFF765FF0134AC42F9DBE6
:10251000012210210148FFF778FE70BD000402403F
:1025200008B5012220210248FFF76FFE08BD00BF59
:102530000004024008B5002220210248FFF765FE92
:1025400008BD00BF000402402DE9F04790B000AF85
:1025500005460C469046402200213846FDF744FFD0
:10256000424621462846FFF7BFFFA246E31D23F05F
:102570000703ADEB030DE9466A46214605F0DF008F
:10258000FFF796FF0026564554DA19F8062008EBA7
:10259000060418F806309A4224D13C46284D0FCD47
:1025A0000FC40FCD0FC42B6823603846FDF7C8FF5A
:1025B000244C642382B239462046FFF79AF919F871
:1025C000063018F8062020493846FDF77DFF3846CA
:1025D000FDF7B6FF642382B239462046FFF789F93A
:1025E0000136D0E73D46DFF864E0BEE80F000FC5D6
:1025F000BEE80F000FC5DEF800302B603846FDF74F
:102600009FFF104D642382B239462846FFF771F9C7
:1026100019F8063022780C493846FDF755FF384640
:10262000FDF78EFF642382B239462846FFF761F931
:10263000012000E000204037BD46BDE8F08700BF24
:10264000682F0008980000203C2F0008182F000871
:1026500010B58CB00DF12F0201210020FFF728FFEB
:102660009DF82F20B34902A8FDF72EFF02A8FDF721
:1026700067FFB14C642382B202A92046FFF739F903
:102680000DF12F0201210846FFF712FF9DF82F20C0
:10269000AA4902A8FDF718FF02A8FDF751FF64231D
:1026A00082B202A92046FFF724F90DF12F02012181
:1026B0000220FFF7FDFE9DF82F20A14902A8FDF79B
:1026C00003FF02A8FDF73CFF642382B202A9204663
:1026D000FFF70FF90DF12F0201210320FFF7E8FEAC
:1026E0009DF82F20974902A8FDF7EEFE02A8FDF7FE
:1026F00027FF642382B202A92046FFF7FAF80DF102
:102700002F0201210420FFF7D3FE9DF82F208E49D0
:1027100002A8FDF7D9FE02A8FDF712FF642382B2DA
:1027200002A92046FFF7E5F80DF12F02012105204F
:10273000FFF7BEFE9DF82F20844902A8FDF7C4FED6
:1027400002A8FDF7FDFE642382B202A92046FFF72E
:10275000D0F80DF12F0201210620FFF7A9FE9DF808
:102760002F207B4902A8FDF7AFFE02A8FDF7E8FE87
:10277000642382B202A92046FFF7BBF80DF12F02B5
:1027800001210720FFF794FE9DF82F20714902A830
:10279000FDF79AFE02A8FDF7D3FE642382B202A9D8
:1027A0002046FFF7A6F80AAA04210A20FFF780FEB8
:1027B0009DF828209DF829309DF82A109DF82B00BF
:1027C00001900091644902A8FDF77EFE02A8FDF782
:1027D000B7FE642382B202A92046FFF78AF80AAA4C
:1027E00004210B20FFF764FE9DF828209DF8293076
:1027F0009DF82A109DF82B0001900091574902A8DE
:10280000FDF762FE02A8FDF79BFE642382B202A9D7
:102810002046FFF76EF80AAA04210C20FFF748FEB5
:102820009DF828209DF829309DF82A109DF82B004E
:10283000019000914A4902A8FDF746FE02A8FDF763
:102840007FFE642382B202A92046FFF752F80AAA4B
:1028500004210D20FFF72CFE9DF828209DF829303B
:102860009DF82A109DF82B00019000913D4902A887
:10287000FDF72AFE02A8FDF763FE642382B202A9D7
:102880002046FFF736F80AAA04210E20FFF710FEB3
:102890009DF828209DF829309DF82A109DF82B00DE
:1028A00001900091304902A8FDF70EFE02A8FDF745
:1028B00047FE642382B202A92046FFF71AF80AAA4B
:1028C00004211620FFF7F4FD9DF828209DF82930FB
:1028D0009DF82A109DF82B0001900091234902A831
:1028E000FDF7F2FD02A8FDF72BFE642382B202A9D8
:1028F0002046FEF7FEFF0AAA04211020FFF7D8FDAC
:102900009DF828209DF829309DF82A109DF82B006D
:1029100001900091164902A8FDF7D6FD02A8FDF727
:102920000FFE642382B202A92046FEF7E2FF0CB03C
:1029300010BD00BF5C2D000898000020702D00081D
:10294000842D00089C2D0008B02D0008C82D00081B
:10295000DC2D0008F02D0008042E00082C2E0008A5
:10296000542E00087C2E0008A42E0008CC2E00084F
:10297000F42E0008F0B54478151902351B2D17DC2C
:1029800000F1080EA71F0EEB07067170002104E08E
:102990005D5C7418A5700131C9B29142F8D3531C23
:1029A0000EF8073043781A44023242700020F0BD1E
:1029B0004FF0FF30F0BD000000B583B090F8243038
:1029C0000133DBB280F82430022B02D9002380F8D7
:1029D000243090F82430064AD35C02AA02F8013D64
:1029E00001212520FFF7B0FD03B05DF804FB00BF17
:1029F000AC2F000830B583B0044600238370112348
:102A0000C3702223037133234371442383715523FD
:102A1000C371022303700623437002AB052203F83F
:102A2000012D01221146FFF7A5FF256A2B780BB96E
:102A300003B030BD2846FDF783FD2B46C2B2092105
:102A40002046FFF797FFF3E710B404E001220AE005
:102A50000270013021464B1EDCB241B3037813F003
:102A6000800FF3D1002213F0400F01D042F0020298
:102A700013F0200F01D042F0040213F0100F01D028
:102A800042F0080213F0080F01D042F0100213F0D8
:102A9000040F01D042F0200213F0020F01D042F0E7
:102AA000400213F0010FD3D042F08002D0E75DF86E
:102AB000044B704710B4044690F824300E4AD25CA0
:102AC00042F040020FE052085B00DBB233B112F07B
:102AD000010FF8D082F088021943F4E723785940B7
:102AE0002170013401464B1ED8B211B101230021DF
:102AF000ECE75DF8044B7047A82F0008F0B4AA2358
:102B000013705370937028E05B08937004F0010118
:102B1000B94206D083F0DA039370537883F06003F0
:102B200053704000C0B26408A8B1137803F00107E5
:102B300059081170537813F0010F02D061F07F0132
:102B4000117059085170937813F0010FDCD061F0C7
:102B50007F015170D8E7304629464D1EEDB219B1BC
:102B6000461C04780120DFE7F0BC7047F0B591B057
:102B700007464478A51FEDB2064605F10802A11CE0
:102B80000244C9B2FFF7BAFF0534E4B22146384621
:102B9000FFF790FF21463846FFF756FF0D48FFF735
:102BA00005FC002408E0325D0B496846FDF78CFC0B
:102BB0006846FFF7FBFB013405F10B039C42F2DB97
:102BC0000648FFF7F3FB3A462021A020FFF78CFCD4
:102BD00011B0F0BD8C2F0008A02F0008282E00088F
:102BE000F8B505460E4617461C46FFF703FF34B1FD
:102BF0003B46224631462846FFF7BCFE20B9284610
:102C0000FFF7B4FF0020F8BD4FF0FF30F8BD000023
:102C100070B582B006460162FFF78CFC002502AC5D
:102C200004F8015D224601212120FFF78DFC0723D6
:102C30008DF80730224601212620FFF785FC96F803
:102C400024301F4AD35C8DF807302246012125200D
:102C5000FFF77AFC8DF80750224601212420FFF768
:102C600073FC02238DF80730224601212320FFF751
:102C70006BFC01268DF80760224631462220FFF7C3
:102C800063FC104B1B6802AD45F8083D2A46042141
:102C90003020FFF759FC2A4604212A20FFF754FC74
:102CA00006238DF80730224631462020FFF74CFCE2
:102CB0009620FFF789FBFFF733FC02B070BD00BF21
:102CC000AC2F0008342D0008DFF834D00D480E4931
:102CD0000E4A002302E0D458C4500433C4188C4276
:102CE000F9D30B4A0B4C002301E013600432A242DB
:102CF000FBD3FFF751FBFDF7B5FAFEF785FC7047F4
:102D0000008001200000002070000020003000083A
:102D100070000020E4000020FEE70000F8B500BFCE
:102D2000F8BC08BC9E467047F8B500BFF8BC08BCAC
:042D30009E46704704
:102D340071917D6B6E524632345F424C4500000007
:102D44000000000000000000010203040607080957
:102D54000000000001020304434F4E4649473A2055
:102D64003C3078253032783E0A000000454E5F4101
:102D7400413A203C3078253032783E0A0000000089
:102D8400454E5F5258414444523A203C30782530F5
:102D940032783E0A0000000053455455505F4157B5
:102DA4003A203C3078253032783E0A005345545559
:102DB400505F524554523A203C3078253032783EA8
:102DC4000A00000052465F43483A203C30782530E0
:102DD40032783E0A0000000052465F534554555075
:102DE4003A203C3078253032783E0A00535441541E
:102DF40055533A203C3078253032783E0A000000A2
:102E040052585F414444525F50303A2025233032B7
:102E1400782025233032782025233032782025234A
:102E24003032783E0A00000052585F414444525FF9
:102E340050313A202523303278202523303278202F
:102E440025233032782025233032783E0A000000D2
:102E540052585F414444525F50323A202523303265
:102E640078202523303278202523303278202523FA
:102E74003032783E0A00000052585F414444525FA9
:102E840050333A20252330327820252330327820DD
:102E940025233032782025233032783E0A00000082
:102EA40052585F414444525F50343A202523303213
:102EB40078202523303278202523303278202523AA
:102EC4003032783E0A00000052585F414444525F59
:102ED40050353A202523303278202523303278208B
:102EE40025233032782025233032783E0A00000032
:102EF40054585F414444523A2025233032782025E7
:102F0400233032782025233032782025233032783C
:102F14003E0A000050726F626C656D2077726974AE
:102F2400696E6720746F2053504920726567697316
:102F3400746572202D2D200077726974696E672084
:102F4400646174613A203C25233032783E207265F6
:102F540061645F646174613A203C25233032783EB9
:102F64000A00000053756363657373207772697494
:102F7400696E6720746F20535049207265676973C6
:102F8400746572202D2D20007072696E74696E67ED
:102F9400206F75746275663A200000002523303274
:102FA4007800000025262700021A50004300000084
:102FB400232D302B20000000686C4C0065666745AB
:102FC40046470000303132333435363738394142E0
:102FD400434445460000000030313233343536373F
:0C2FE4003839616263646566000000001B
:082FF00078E1FF7F0100000001
:042FF8002D0200089E
:042FFC0005020008C2
:10300000040000200000000000000000000000009C
:1030100000000000000000000000000000000000B0
:1030200000000000B02F00080000000000000000B9
:103030000000000000000000000000000000000090
:103040000000000000000000000000000000000080
:103050000000000000000000000000000000000070
:103060000000000001000000100000000024F40037
:0400000508002CC9FA
:00000001FF
