:020000040800F2
:100000000080012015450008710A0008730A0008E5
:10001000750A0008770A0008790A00080000000045
:100020000000000000000000000000007B0A000843
:100030007D0A0008000000007F0A0008810A00080D
:1000400065450008654500086545000865450008E8
:1000500065450008654500086545000865450008D8
:1000600065450008654500086545000865450008C8
:1000700065450008654500086545000865450008B8
:10008000654500086545000865450008000000005A
:1000900000000000000000000000000065450008AE
:1000A0006545000865450008654500086545000888
:1000B0006545000865450008654500086545000878
:1000C0006545000865450008654500086545000868
:1000D000654500086545000865450008000000000A
:1000E00065450008654500086545000800000000FA
:1000F000000000000000000000000000654500084E
:1001000000000000654500086545000865450008D9
:1001100000000000000000000000000000000000DF
:100120006545000865450008654500086545000807
:10013000654500080000000000000000000000000D
:10014000000000000000000000000000890A000814
:1001500065450008654500086545000865450008D7
:10016000654500086545000800000000000000002B
:10017000000000000000000000000000000000007F
:1001800000000000654500080000000000000000BD
:0401900065450008B9
:1001C000044B05481B1A062B02D9044B03B11847F0
:1001D000704700BFFB000020F80000200000000076
:1001E00005490648091A891001EBD171491002D05E
:1001F000034B03B118477047F8000020F8000020B7
:100200000000000010B5064C237843B9FFF7D8FF73
:10021000044B13B10448AFF300800123237010BDD9
:10022000F8000020000000006845000808B5084BF1
:100230001BB108490848AFF300800848036813B9A8
:10024000BDE80840CCE7064B002BF9D09847F7E70C
:1002500000000000FC00002068450008F8000020B5
:100260000000000070B50F4E0F4D761BB61018BF82
:10027000002405D0013455F8043B9847A642F9D133
:100280000A4E0B4D761B04F06FF9B61018BF002410
:1002900006D0013455F8043B9847A642F9D170BD09
:1002A00070BD00BF04460008044600080846000868
:1002B00004460008844641EA000313F003036DD1AD
:1002C000403A41D351F8043B40F8043B51F8043B19
:1002D00040F8043B51F8043B40F8043B51F8043B20
:1002E00040F8043B51F8043B40F8043B51F8043B10
:1002F00040F8043B51F8043B40F8043B51F8043B00
:1003000040F8043B51F8043B40F8043B51F8043BEF
:1003100040F8043B51F8043B40F8043B51F8043BDF
:1003200040F8043B51F8043B40F8043B51F8043BCF
:1003300040F8043B51F8043B40F8043B51F8043BBF
:1003400040F8043B403ABDD2303211D351F8043B5F
:1003500040F8043B51F8043B40F8043B51F8043B9F
:1003600040F8043B51F8043B40F8043B103AEDD20E
:100370000C3205D351F8043B40F8043B043AF9D25F
:10038000043208D0D2071CBF11F8013B00F8013B32
:1003900001D30B8803806046704700BF082A13D33F
:1003A0008B078DD010F003038AD0C3F10403D21A57
:1003B000DB071CBF11F8013B00F8013B80D331F88B
:1003C000023B20F8023B7BE7043AD9D3013A11F80B
:1003D000013B00F8013BF9D20B7803704B78437076
:1003E0008B7883706046704770B4860746D0541E81
:1003F000002A41D0CAB2034602E014F1FF343BD3D5
:1004000003F8012B9D07F8D1032C2ED9CDB245EA74
:1004100005250F2C45EA054519D903F1100226469A
:10042000103E0F2E42F8105C42F80C5C42F8085C5B
:1004300042F8045C02F11002F2D8A4F1100222F09A
:100440000F0204F00F041032032C13440DD91E4682
:100450002246043A032A46F8045BFAD8221F22F007
:1004600003020432134404F003042CB1C9B21C4447
:1004700003F8011B9C42FBD170BC70471446034635
:10048000C2E700BF00000000000000000000000004
:10049000000000000000000000000000000000005C
:1004A000000000000000000000000000000000004C
:1004B000000000000000000000000000000000003C
:1004C00090F800F06DE9024520F007016FF0000C94
:1004D00010F0070491F820F040F049804FF000043C
:1004E0006FF00700D1E9002391F840F000F1080017
:1004F00082FA4CF2A4FA8CF283FA4CF3A2FA8CF34F
:100500004BBBD1E9022382FA4CF200F10800A4FAB5
:100510008CF283FA4CF3A2FA8CF3E3B9D1E9042309
:1005200082FA4CF200F10800A4FA8CF283FA4CF340
:10053000A2FA8CF37BB9D1E9062301F1200182FAFA
:100540004CF200F10800A4FA8CF283FA4CF3A2FA00
:100550008CF3002BC6D0002A04BF04301A4612BA0E
:10056000B2FA82F2FDE8024500EBD2007047D1E911
:10057000002304F00305C4F100004FEAC50514F0A0
:10058000040F91F840F00CFA05F562EA05021CBF71
:1005900063EA050362464FF00004A9E753B94AB97C
:1005A000002908BF00281CBF4FF0FF314FF0FF307B
:1005B00000F07AB9ADF1080C6DE904CE00F006F850
:1005C000DDF804E0DDE9022304B070472DE9F047CF
:1005D0008C460D460446089E002B51D18A42174690
:1005E0006DD9B2FA82FEBEF1000F0BD0CEF1200C15
:1005F00001FA0EF520FA0CFC02FA0EF74CEA050C93
:1006000000FA0EF44FEA174A250CBCFBFAF81FFA61
:1006100087F90AFB18CC45EA0C4508FB09F3AB4205
:100620000AD9ED1908F1FF3280F02381AB4240F284
:100630002081A8F102083D44ED1AA4B2B5FBFAF0FE
:100640000AFB105544EA054400FB09F9A14509D904
:10065000E41900F1FF3380F00A81A14540F20781DF
:1006600002383C44A4EB090440EA08400021002E73
:1006700061D024FA0EF4002334607360BDE8F08783
:100680008B4207D9002E54D0002186E8210008466D
:10069000BDE8F087B3FA83F1002940F08E80AB42C9
:1006A00002D3824200F2FA80841A65EB030501202E
:1006B000AC46002E3FD086E81010BDE8F08712B996
:1006C0000127B7FBF2F7B7FA87FEBEF1000F34D16E
:1006D000EB1B3A0C1FFA87FC0121B3FBF2F8250C47
:1006E00002FB183345EA03450CFB08F3AB4207D97C
:1006F000ED1908F1FF3002D2AB4200F2D180804602
:10070000ED1AA3B2B5FBF2F002FB105543EA054423
:100710000CFB00FCA44507D9E41900F1FF3302D219
:10072000A44500F2B8801846A4EB0C0440EA084047
:100730009DE731463046BDE8F087CEF1200405FA4A
:100740000EF307FA0EF720FA04F83A0C25FA04F42F
:1007500048EA0308B4FBF2F14FEA184502FB1144E2
:100760001FFA87FC45EA044501FB0CF3AB4200FA93
:100770000EF409D9ED1901F1FF3080F08A80AB4207
:1007800040F2878002393D44EB1A1FFA88F5B3FB2B
:10079000F2F002FB103345EA034500FB0CF3AB42D9
:1007A00007D9ED1900F1FF386FD2AB426DD902388D
:1007B0003D44EB1A40EA01418FE7C1F1200722FADC
:1007C00007F88B4005FA01F448EA030320FA07FE14
:1007D0004FEA134CFD404EEA040EB5FBFCF94FEA1C
:1007E0001E440CFB19551FFA83F844EA054509FB22
:1007F00008F4AC4202FA01F200FA01FA08D9ED1845
:1008000009F1FF3043D2AC4241D9A9F102091D449C
:100810002D1B1FFA8EFEB5FBFCF00CFB10554EEAAB
:10082000054400FB08F8A04507D9E41800F1FF359E
:1008300029D2A04527D902381C4440EA0940A4EB3C
:100840000804A0FB02894C45C6464D4615D312D07C
:1008500056B1BAEB0E0364EB050404FA07F7CB407C
:100860001F43CC40376074600021BDE8F087184614
:10087000F8E69046E0E6C245EAD2B8EB020E69EB34
:1008800003050138E4E72846D7E7404691E781466B
:10089000BEE7014678E702383C4445E7084608E7EA
:1008A000A8F102083D442BE7704700BF30B58BB07C
:1008B0000024059406940794089409940194224B0B
:1008C0001A6B42F004021A631A6B02F004020192DE
:1008D000019A02941A6B42F080021A631A6B02F0BA
:1008E00080020292029A03941A6B42F001021A6388
:1008F0001A6B02F001020392039A04941A6B42F0FD
:1009000002021A631B6B03F002030493049B0F4D56
:1009100022462021284602F05FFA4FF40053059347
:100920004FF404130693079405A9094802F07AF9D5
:1009300020230593012306930794089405A92846CC
:1009400002F070F90BB030BD0038024000000240E8
:100950000008024072B6FEE708B50A480A4B036079
:100960004FF4E133436000238360C36003610C22D2
:1009700042618361C36102F08BFB00B908BDFFF7E0
:10098000E9FF00BF340300200044004000B595B0EB
:100990003022002108A8FFF727FD002303930493CA
:1009A0000593069307930193204A116C41F08051FF
:1009B0001164126C02F080520192019A02931C4A57
:1009C000136823F4404343F400431360136803F4B3
:1009D00040430293029B012308934FF4A023099301
:1009E00002230E934FF480030F9304231093A82245
:1009F000119212930723139308A801F0D7FD80B931
:100A00000F23039302210491002305934FF4805296
:100A10000692079303A802F02FF820B915B05DF8ED
:100A200004FBFFF797FFFFF795FF00BF0038024078
:100A30000070004000B585B002F062FAFFF7A6FF33
:100A4000FFF734FFFFF788FF02F088FB074B0FCB5F
:100A50000DF1100E0EE90F001021684602F012FF92
:100A60004FF47A7002F078FAF6E700BF804500088C
:100A7000FEE7FEE7FEE7FEE7FEE7704770477047D8
:100A800008B502F057FA08BD08B5024800F030FC7E
:100A900008BD00BF5808002000B583B000210091B8
:100AA0000C4B5A6C42F480425A645A6C02F48042F5
:100AB0000092009A01911A6C42F080521A641B6CE9
:100AC00003F080530193019B072002F08BF903B0E0
:100AD0005DF804FB0038024000B589B000230393A1
:100AE00004930593069307930268144B9A4202D02D
:100AF00009B05DF804FB0021019103F5FA331A6C8B
:100B000042F400321A641A6C02F400320192019A23
:100B100002911A6B42F001021A631B6B03F001038E
:100B20000293029B0C23039302230493072307934E
:100B300003A9034802F076F8DAE700BF004400405A
:100B40000000024012230B80004870471C00002068
:100B500004230B800048704730000020002393429C
:100B600016D230B40BE0373401F8134000015C00BA
:100B7000013400250D550133DBB2934206D2040F38
:100B8000092CF0D8303401F81340EFE730BC70473F
:100B90007047000038B50A4B186804331C680433EA
:100BA0001B68C01800D138BD064D0822A91CFFF7EC
:100BB000D5FF042205F112012046FFF7CFFFF2E72F
:100BC000107AFF1F3400002008B51A230B80FFF7AE
:100BD000E1FF014808BD00BF3400002008B50A4607
:100BE00028B10549054802F067FC034808BD0249E1
:100BF000024802F061FCF8E778030020C0450008D5
:100C000010B5044C0A462146034802F055FC204624
:100C100010BD00BF78030020AC45000808B50A46A7
:100C200028B10549054802F047FC034808BD0249C0
:100C3000024802F041FCF8E77803002090450008E4
:100C400008B50A4628B10549054802F035FC0348B5
:100C500008BD0249024802F02FFCF8E778030020A3
:100C60009C4500082DE9F04782B0D0F80080CA000A
:100C70000A4493000344DA6D5B6D9A4255D8C1462D
:100C80009B1A01EBC104A2000244926C934200D86B
:100C90001A460C46074602F1030A4FEA9A0A15E083
:100CA00006F1030A4FEA9A0AE30023449D003D44FB
:100CB000E96C3B7C0093B3B2E2B2404601F001FA2A
:100CC000EB6C3344EB64EB6D1E44EE6509EB4413AF
:100CD00003F510639B699BB29A4512D8E300234445
:100CE0009A003A44D16D536D99420AD24BB15B1AC6
:100CF00004EBC4018A003A44966CB342D0D81E4635
:100D0000CEE7E3002344980007447A6DFB6D9A42D6
:100D10000FD804F00F040123A340D8F8344824EA84
:100D20000304C8F83448002000E0012002B0BDE808
:100D3000F0870020FAE7F0B58BB0002800F08A8039
:100D40000446056890F8BD3423B3032384F8BD340A
:100D5000EB6B13F4807F01D100232361206800F046
:100D6000D1FE254655F8107B6E460FCD0FC60FCD30
:100D70000FC695E8030086E80300231D0ECB384616
:100D800000F0FEFD58B1022384F8BD340125284649
:100D90000BB0F0BD80F8BC3402F0AAFBD5E700210F
:100DA000206801F091FB002315E0D900C8188200EB
:100DB0002244012082F83D0082F83C30A2F8443001
:100DC000002082F840009064D064CA189100214449
:100DD00048650133DBB26568AB42E6D3002315E01A
:100DE000D800C1188A002244002182F87D1282F8BE
:100DF0007C3282F88012C2F88812C2F88C12C218B3
:100E000090002044C0F894120133DBB29D42E7D831
:100E1000254655F8107B6E460FCD0FC60FCD0FC679
:100E200095E8030086E80300231D0ECB384600F04A
:100E3000C5FE054620B1022384F8BD340125A6E78E
:100E4000002384F83830012384F8BD34206801F091
:100E5000F9FA9CE701259AE7026890F8BC34012B67
:100E600019D010B5012380F8BC34836A012B0AD055
:100E70000446006800F040FE206801F0D5FA00202A
:100E800084F8BC0410BD8369012BF1D0936B43F44B
:100E900080339363ECE702207047000070B504468E
:100EA0000D460068066C00EB411303F5306399684A
:100EB0002269012A11D0384A964256D03DB905EB35
:100EC000C50293002344D3F89432002B5ED0E9B2DC
:100ED000204603F088FA002070BD11F0080F09D0F9
:100EE0002E4A9642F7D911F4004FF4D04FF4004245
:100EF0009A60F0E711F0200F2AD111F0280FEAD103
:100F0000264A964202D911F4004F24D1E90029441F
:100F10008A002244D2F898121B69C3F31203CB1A39
:100F2000C2F89C327DB905EBC5018A002244D2F893
:100F30009422A2B1E90029448A002244D2F88C12FA
:100F40000B44C2F88C32E9B2204603F04CFAC2E7F7
:100F500020229A60BFE74FF400429A60BBE704F298
:100F6000C442012101F0F2FAEDE711F4004F09D17A
:100F700011F0200F01D020229A60E9B2204603F040
:100F800032FAA8E74FF400429A60A4E704F2C442A0
:100F9000002101F0DBFA9AE70A31544F0A30544F2E
:100FA00038B5044603681D6C03EB4111D1F8082BDA
:100FB0000E4B9D4207D901F5306112F4004F02D06B
:100FC0004FF400438B60204603F02DF8074B9D4201
:100FD00002D92369012B01D0002038BD04F2C4429C
:100FE0000121206801F0B2FAF6E700BF0A30544F41
:100FF00090F8BC34012B01D10220704710B5044693
:10100000012380F8BC3480F83810006801F0FCF946
:10101000002084F8BC0410BDF8B511F0800F1ED17B
:1010200001F00F06F500AF19BC00274604F51E7449
:10103000044404343E460644002586F87D5201F0FF
:101040000F012170E2602371627802B12181022BCD
:1010500014D090F8BC34012B13D10220F8BD01F05C
:101060000F06F500AF19BC00274638340444043499
:101070003E460644012586F83D50E0E700236371B3
:10108000E7E70546012380F8BC342146006800F0FC
:101090006EFE002085F8BC04F8BD38B511F0800F55
:1010A00017D101F00F04E2001519AB001D4603F53E
:1010B0001E73034404332C460444002284F87D222A
:1010C00001F00F01197090F8BC24012A10D1022000
:1010D00038BD01F00F04E2001519AB001D4638338E
:1010E000034404332C460444012284F83D20E7E7FE
:1010F0000446012280F8BC241946006800F082FEF4
:10110000002084F8BC0438BD70B501F00F05EE0076
:1011100071198C0004F51E740444211D2E44B40082
:101120000444C4F88C22C4F894320023C4F89C32DE
:1011300084F87D3284F87C520369012B06D065B1B6
:10114000DAB2006800F0D2FF002070BD05EBC506E2
:10115000B4000444C4F89022F1E7DAB2006800F069
:10116000BFFEF1E701F00F0101EBC1018B00184454
:10117000D0F89C02704770B501F00F05EE007119B0
:101180008C0038340444211D2E44B4000444E2642D
:1011900063650023E365012384F83D3084F83C5007
:1011A0000369012B06D05DB1DAB2006800F09EFF42
:1011B000002070BD05EBC506B40004442265F2E7CB
:1011C000DAB2006800F08CFEF2E738B501F00F05E6
:1011D00043689D4238D811F0800F15D1CA005418C9
:1011E000A3001C4603F51E73034404332246024445
:1011F000002182F87D1201229A701D7090F8BC24A3
:10120000012A0DD1022038BDEA0051198B00194680
:101210003833034404330144012281F83D20EAE7D6
:101220000446012280F8BC241946006801F091F8B8
:101230001DB1002084F8BC0438BD04F2C442217CF6
:10124000206801F083F9F4E7012038BD01F00F03B5
:10125000426893422FD810B511F0800F14D1DA00F4
:10126000D418A1000C4601F51E7101440431044458
:10127000002284F87D2200228A700B7090F8BC3422
:10128000012B0DD1022010BDDA00D418A1000C46AC
:101290003831014404310444012284F83D20EAE756
:1012A0000446012380F8BC34006801F07FF8002078
:1012B00084F8BC0410BD0120704708B511F0800F00
:1012C0000CD101F00F0101EBC1018B0003F51E7180
:1012D00001440431006800F093FE08BD01F00F01E5
:1012E00001EBC1018B0003F1380101440431F1E746
:1012F0002DE9F04F83B004460668304601F0E0F86F
:1013000010B103B0BDE8F08F35460746206801F004
:10131000A7F80028F5D006F5006ADAF80830C3F31C
:101320000D23C4F8FC34206801F09AF810F0020F85
:1013300004D02268536903F002035361206801F06E
:101340008FF810F0100F13D02268936923F0100368
:101350009361D6F8208008F00F09C8F34343022BAD
:101360004CD0062B71D02268936943F0100393612F
:10137000206801F075F810F4002F7AD1206801F090
:101380006FF810F4802F40F0E580206801F068F8D5
:101390000028C0F26A81206801F062F810F4006F42
:1013A0000AD0DAF8083013F0010F40F07881226893
:1013B000536903F400635361206801F051F810F49D
:1013C000805F40F07081206801F04AF810F4005FFF
:1013D00040F0C781206801F043F810F0080F40F09A
:1013E000D881206801F03CF810F0800F00F0EB810C
:1013F000B36923F08003B3610127D4E147F6F073AA
:1014000018EA030FAFD04FEAC90301934B444FEAE8
:10141000830BA3444FEA1818C8F30A02DBF88C12B6
:10142000304600F071FFC8F30A08DBF88C32434401
:10143000CBF88C32019B99444FEA89032344D3F8BB
:101440009C324344CBF89C328DE7082204F2C4411D
:10145000304600F059FFC8F30A184FEAC90303EBFE
:1014600009018A002244D2F89C324344C2F89C32DB
:1014700079E7206800F0F8FF8046B94635E005EBD3
:1014800049130122C3F8082B49462046FFF706FD01
:101490003DE005EB49130822C3F8082B49462046D6
:1014A000FFF77EFD36E009EBC9029300234493F871
:1014B0007F32012B44D005EB49130222C3F8082BDD
:1014C0001BF0200F04D005EB49132022C3F8082B92
:1014D0001BF4005F05D005EB49134FF40052C3F82D
:1014E000082B09F101094FEA5808B8F1000F3FF441
:1014F00045AF18F0010FF4D05FFA89F30193194654
:10150000206800F0C1FF834610F0010FB7D11BF037
:10151000080FBED11BF0100F04D005EB49131022A9
:10152000C3F8082B1BF0020FCAD0736913F0800FA9
:10153000B9D0DAF8043043F48063CAF80430B2E773
:1015400093002344002283F87F220199204602F071
:1015500035F8B0E7206800F08FFF8046B94625E0F7
:101560000199204602F0CAFF1BF0080F04D005EBDA
:1015700049130822C3F808291BF0100F04D005EB0B
:1015800049131022C3F808291BF0400F04D005EBC3
:1015900049134022C3F808291BF0020F44D11BF065
:1015A000800F5DD109F101094FEA5808B8F1000F29
:1015B0003FF4EBAE18F0010FF4D05FFA89F301931A
:1015C0001946206800F069FF834610F0010FCBD068
:1015D00009F00F03012101FA03F2DAF8343023EAAB
:1015E0000203CAF8343005EB4913C3F8081923691C
:1015F0008B42B5D14FEAC9024A4493002344996C07
:10160000DA6C0A44DA64B9F1000FA9D109EBC90216
:10161000930023445B6D002BA2D104F2C44201214C
:10162000206800F093FF9BE74946304600F070FACF
:1016300009EBC9029300234493F83F30012B05D0F6
:1016400005EB49130222C3F80829A8E793002344B5
:10165000002283F83F200199204601F0B5FFEFE713
:1016600049462046FFF7FEFA9CE7DAF8043023F0FB
:101670000103CAF8043094F8F434012B08D0204652
:1016800001F096FF2268536903F00043536182E63C
:10169000002184F8F414204600F048F9F2E72046CF
:1016A00001F06EFF83E6DAF8043023F00103CAF894
:1016B00004301021206800F02BFA63689F421BD28F
:1016C00005EB47134FF67F31C3F80819D3F800290B
:1016D00022F40012C3F80029C3F8081BD3F8002B2A
:1016E00022F40012C3F8002BD3F8002B42F0006262
:1016F000C3F8002B0137E0E7DAF81C3043F00113A0
:10170000CAF81C30236BEBB1DAF8843043F00B03DA
:10171000CAF88430DAF8443043F00B03CAF8443096
:10172000D6F8003823F4FE63C6F8003804F2C44249
:10173000217C206800F00AFF2268536903F480537B
:10174000536140E6DAF8143043F4005343F02B03BE
:10175000CAF81430DAF8103043F00B03CAF810302E
:10176000DEE7206800F0E1FE206800F0EFFAE060BC
:10177000276801F031FA227B0146384600F046F92D
:10178000204601F0B1FF2268536903F4005353610E
:1017900020E6204601F0EEFE2268536903F00803BC
:1017A00053611EE6013763689F420CD207EBC70204
:1017B0009300234493F87F32012BF3D1F9B22046F2
:1017C000FFF77BFDEEE7206800F04AFE10F4801F73
:1017D0003AD1206800F044FE10F4001F6FD1206859
:1017E00000F03EFE10F0804F6BD1206800F038FE14
:1017F00010F0040F3FF485AD23685D6815F0040F09
:1018000068D123685A6815435D607AE501376368DB
:101810009F421BD205EB4713D3F8001907EBC70211
:101820009300234493F84030012BEFD10029EDDAE7
:1018300093002344012283F83F2067F07F01C9B25F
:101840002046FFF73AFDE1E70127E0E72268536908
:1018500003F480135361BCE701336268934228D2DA
:1018600005EB4312D2F8000B03EBC3018A002244BC
:1018700092F88022012AEFD10028EDDA00F48030BE
:10188000D4F8FC2402F001029042E5D18A002244FF
:10189000012182F87F12B26942F08002B26172695E
:1018A00012F0800FD8D1DAF8043043F40073CAF88C
:1018B00004302268536903F4001353618FE7012356
:1018C000CBE7204601F086FE2268536903F080438F
:1018D00053618AE7204601F07EFE92E730B4046847
:1018E000606A29B10D46A36A00EB134000230CE0A7
:1018F00040EA0240A06212E003F1400104EB8101E2
:10190000496800EB11400133DBB2691E8B42F3D30F
:1019100040EA024005F13F0104EB810148600020EC
:1019200030BC704703685962002070477047000060
:1019300082B000230193019B01330193019A0F4B65
:101940009A4215D80369002BF5DA00230193036945
:1019500043F001030361019B01330193019A074B9B
:101960009A4208D8036913F0010FF4D1002000E077
:10197000032002B070470320FBE700BF400D0300C7
:1019800084B010B5044603A880E80E00089B012B24
:101990000DD0E36843F04003E3602046FFF7C8FF43
:1019A0000C9B23BBA36B43F48033A36313E0A36BB3
:1019B00023F48033A363E36823F4840323F0400318
:1019C000E360E36823F44013E3600F9B012B09D02D
:1019D0002046FFF7ADFF069B012B0DD0BDE8104060
:1019E00004B07047E36843F48013E360F0E7A36B4F
:1019F00023F48033A363EEE7A36843F00603A360F8
:101A0000A36843F02003A360E8E70000022A0AD09D
:101A10000921C26822F47052C260C36843EA81237C
:101A2000C360002070472A4B0B442A4A93423FD997
:101A3000294B0B44294A93423CD9A1F57403A3F5E1
:101A40001053274A934237D9A1F18373A3F5E74393
:101A500002F5C332A032934230D9224B0B44224AC2
:101A600093422DD9214B0B4402F5922202F5787254
:101A7000934227D91E4B0B4402F5C32202F5207274
:101A8000934221D9A1F1B773A3F5585302F5B712C8
:101A900002F55872934219D9164B0B4402F51222E3
:101AA00002F5F862934201D90621B2E70721B0E7B7
:101AB0000F21AEE70E21ACE70D21AAE70C21A8E724
:101AC0000B21A6E70A21A4E70921A2E70821A0E744
:101AD000405327FFFF340C00401E1BFF3F420F0006
:101AE0007F4F120060B6E5FE5FE3160000D3CEFE26
:101AF000C05BB3FEE05459FE836843F0010383608A
:101B000000207047836823F0010383600020704742
:101B100082B000230193019B01330193019A0F4B83
:101B20009A4215D80369002BF5DA00230193890145
:101B300041F020010161019B01330193019A074BA0
:101B40009A4208D8036913F0200FF4D1002000E076
:101B5000032002B070470320FBE700BF400D0300E5
:101B600082B000230193019B01330193019A0E4B34
:101B70009A4213D80369002BF5DA0023019310234E
:101B80000361019B01330193019A074B9A4208D8E4
:101B9000036913F0100FF4D1002000E0032002B01D
:101BA00070470320FBE700BF400D0300D0F800386A
:101BB0001943C0F8001800207047000084B02DE9D8
:101BC000F041044607A880E80E002546002306E001
:101BD00003F1400204EB82020021516001330E2B1D
:101BE000F6D9119BA3BBD4F8043843F00203C4F820
:101BF0000438A36B43F40013A363A36B23F4002303
:101C0000A363A36B23F48023A3630023C4F8003EE3
:101C100004F50066D4F80038C4F800380C9B012B9A
:101C20001FD003212046FFF7C1FF10212046FFF7F8
:101C30006FFF804608B14FF001082046FFF790FF84
:101C400008B14FF00108002333617361F3611FE0B5
:101C5000A36B23F40013A363A36B43F40023A363D8
:101C6000D3E7099B23B900212046FFF79FFFDCE75C
:101C700001212046FFF79AFFD7E7C3B94FF0006074
:101C8000C2F8000900220A614FF67F328A600133F0
:101C900007998B4210D205EB431202F51061D2F87E
:101CA00000090028E9DB0020C2F80009EAE74FF04C
:101CB0009040C2F80009E5E700230AE0BBB14FF00D
:101CC0009047C2F8007B002202614FF67F328260AB
:101CD00001338B4210D205EB431202F53060D2F88B
:101CE000007B002FEADB0027C2F8007BEBE74FF018
:101CF0000067C2F8007BE6E7336923F48073336141
:101D00000023A3616FF0804363610A9B1BB9A36941
:101D100043F01003A361A2690B4B1343A3610D9B16
:101D20001BB1A36943F00803A361119B012B04D0ED
:101D30004046BDE8F04104B07047A36943F08043DA
:101D400043F00403A361F3E700383C80D0F808387F
:101D500013F0060307D0022B07D0062B01D00F206B
:101D6000704702207047002070470220704770B40F
:101D70000B784A78012A22D0D0F81C2803F00F06ED
:101D80000124B44042EA0442C0F81C2800EB43108E
:101D9000D0F8003B13F4004F0ED1D0F8003BCA68D6
:101DA000C2F30A02097942EA8142134343F08053A5
:101DB00043F40043C0F8003B002070BC7047D0F8EB
:101DC0001C4803F00F06B24092B22243C0F81C2810
:101DD00000EB4310D0F8002912F4004FECD1D0F8FA
:101DE0000029CC68C4F30A04097944EA814444EA2E
:101DF0008353134343F0805343F40043C0F8003946
:101E0000DAE7000030B40B784A78012A24D000EBDE
:101E10004313D3F8002B002A50DBD0F83C580A7843
:101E200002F00F02012404FA02F225EA0242C0F88D
:101E30003C28D0F81C28097801F00F018C4022EAD8
:101E40000444C0F81C48D3F8001B234A0A40C3F8D6
:101E5000002B002030BC704700EB4313D3F800295F
:101E6000002A1EDBD0F83C580A7802F00F02012449
:101E700004FA02F292B225EA0202C0F83C28D0F835
:101E80001C28097801F00F018C40A4B222EA040456
:101E9000C0F81C48D3F80019104A0A40C3F80029BA
:101EA000D7E7D3F8002942F00062C3F80029D3F83D
:101EB000002942F08042C3F80029D3E7D3F8002B71
:101EC00042F00062C3F8002BD3F8002B42F08042AE
:101ED000C3F8002BA1E700BF0078F3EF007833ECE4
:101EE00070B40B784C78012C28D000EB431000F52F
:101EF00030631C69E40CE4041C611C6924F0FF5489
:101F000024F4C0141C618C690CB1CC688C61CC6861
:101F1000CC611C6944F400241C611C69CD69C5F3C3
:101F200012052C431C61012A65D0D0F8003B43F018
:101F30000443C0F8003B002070BC70478C696CBB48
:101F400000EB4314D4F8105925F0FF5525F4C015C3
:101F5000C4F81059D4F8105945F40025C4F81059A4
:101F6000D4F81059ED0CED04C4F81059012A33D0FF
:101F700000EB4313D3F8002942F00442C3F80029D0
:101F80008B69002BD7D0D0F83428097801F00F04E2
:101F90000121A1400A43C0F83428CCE700EB4314E8
:101FA00004F510642569ED0CED042561256925F023
:101FB000FF5525F4C01525618E69CD68AE4200D964
:101FC0008D61256945F40025256125698E69C6F373
:101FD000120635432561C9E74A691AB100EB43117E
:101FE000C1F8142900EB4310D0F8002942F0044254
:101FF000C0F800299FE70A69002A96D05A6194E741
:1020000010B483B00023019304464B78012B0BD00E
:102010000B7800EB4313D3F8002B002A2DDB0020B4
:1020200003B05DF8044B70470B7800EB4313D3F813
:102030000029002A01DB0020F2E7D3F8002942F052
:102040000062C3F800290B7800EB4310D0F8003988
:1020500043F08043C0F80039019B01330193019A9A
:1020600042F210739A4228D80B7804EB4313D3F84A
:102070000039002BF0DB0020D2E7D3F8002B42F030
:102080000062C3F8002B0B7800EB4310D0F8003B44
:1020900043F08043C0F8003B019B01330193019A58
:1020A00042F210739A420AD80B7804EB4313D3F828
:1020B000003B002BF0DB0020B2E70120B0E701205D
:1020C000AEE770B49DF80C4064B903339E0807E096
:1020D00000EB023303F5805351F8045B1D600134BB
:1020E000B442F5D3002070BC70470000F0B583B057
:1020F0000C784B78012B2BD000EB441404F53063A3
:102100001D69ED0CED041D611D6925F0FF5525F4D9
:10211000C0151D618D69002D40F0C5801D69CE6818
:10212000C6F3120635431D611D6945F400251D6186
:10213000012A00F0CE800B79012B00F0D080D4F87A
:10214000003B43F00443C4F8003B002003B0F0BD63
:102150008B6983BB00EB4413D3F8105925F0FF556E
:1021600025F4C015C3F81059D3F8105945F40025CB
:10217000C3F81059D3F81059ED0CED04C3F81059F9
:10218000012A4CD000EB4414D4F8003943F0044346
:10219000C4F800390B79012B6AD08B69002BD4D09D
:1021A000D0F834380A7802F00F0101228A40134334
:1021B000C0F83438C9E700EB4413D3F81059ED0CDC
:1021C000ED04C3F81059D3F8105925F0FF5525F444
:1021D000C015C3F81059D3F810698D69CF683D4414
:1021E000013DB5FBF7F5474F07EAC5453543C3F851
:1021F0001059D3F810598E69C6F312063543C3F847
:10220000105903F510630D79012DB9D11D6925F021
:10221000C0451D611D6945F000551D61B0E74B6962
:102220001BB100EB4412C2F814390B79012B08D012
:1022300000EB4414D4F8003943F00443C4F80039E7
:1022400083E7D0F8083813F4807F08D100EB4412FC
:10225000D2F8003943F00053C2F80039E8E700EB48
:102260004412D2F8003943F08053C2F80039DFE756
:10227000D0F8083813F4807F0ED1D4F8003943F039
:102280000053C4F8003914460B4609691A781B8BB1
:102290000094FFF716FF58E7D4F8003943F0805355
:1022A000C4F80039EFE7CE683544013DB5FBF6F5DB
:1022B000AFB206FB07F6CE611E69124F07EAC545AD
:1022C00035431D611D69CE69C6F3120635431D6194
:1022D0002EE70A69002A3FF42EAF5A612BE7D0F8A7
:1022E000083813F4807F06D1D4F8003B43F0005344
:1022F000C4F8003B23E7D4F8003B43F08053C4F814
:10230000003B1CE70000F81F70B483B00646950838
:1023100002F00302002305E006F58054246841F82A
:10232000044B0133AB42F7D37AB100F58050036818
:1023300001930025EBB2DC00019BE34001F8013B77
:102340000135013A92B2002AF4D1084603B070BCBC
:1023500070470B784A78012A14D000EB4310D0F86C
:10236000002B002A06DB2BB1D0F8003B23F0804382
:10237000C0F8003BD0F8003B43F40013C0F8003B2A
:102380000020704700EB4310D0F80029002A06DB3C
:102390002BB1D0F8003923F08043C0F80039D0F8D1
:1023A000003943F40013C0F80039E9E70B784A78A4
:1023B000012A0ED000EB4310D0F8003B23F40013A9
:1023C000C0F8003B0B79023BDBB2012B15D9002092
:1023D000704700EB4310D0F8003923F40013C0F825
:1023E00000390B79023BDBB2012BF0D8D0F8003971
:1023F00043F08053C0F80039E9E7D0F8003B43F0E0
:102400008053C0F8003BE2E7D0F8003823F4FE63C5
:10241000C0F80038D0F80038090101F4FE610B4320
:10242000C0F8003800207047D0F8003E23F00303C6
:10243000C0F8003ED0F8043823F00203C0F8043896
:1024400000207047D0F8003E23F00303C0F8003EA0
:10245000D0F8043843F00203C0F804380020704775
:102460004269806910407047D0F8183800F5006064
:10247000C0691840000C7047D0F8183800F50060AB
:10248000C069184080B2704700EB4111D1F8082BA9
:1024900000F5006040691040704710B4D0F8102873
:1024A000D0F8343801F00F04E340DB01DBB2134312
:1024B00000EB4111D1F8080918405DF8044B704752
:1024C000406900F00100704738B50546C36823F045
:1024D000C043C360012913D029BBC36843F08043C4
:1024E000C3600024012000F037FD01342846FFF7C7
:1024F000E7FF08B1312CF5D9322C12D0002038BDBD
:10250000C36843F00053C3600024012000F024FDA1
:1025100001342846FFF7D4FF0128EDD0312CF4D93F
:10252000EAE7012038BD012038BDD0F8003923F496
:10253000FF6323F00703C0F80039D0F8043843F4F0
:102540008073C0F8043800207047000010B4046C99
:10255000154B9C4203D9D0F8003B002B16DB00241E
:10256000C0F8104BD0F8104B44F40024C0F8104BC6
:10257000D0F8104B44F01804C0F8104BD0F8104BB2
:1025800044F0C044C0F8104B012903D000205DF88E
:10259000044B7047C0F8142BD0F8003B43F0802365
:1025A000C0F8003BF2E700BF0A30544F002800F0AB
:1025B000E98170B582B00446036813F0010F3BD087
:1025C000A74B9B6803F00C03042B2CD0A44B9B68F7
:1025D00003F00C03082B21D06368B3F5803F4FD084
:1025E000B3F5A02F52D09E4B1A6822F480321A60A5
:1025F0001A6822F480221A606368002B50D000F021
:10260000A5FC0546964B1B6813F4003F14D100F05F
:102610009DFC401B6428F5D90320B8E1904B5B6812
:1026200013F4800FD8D08E4B1B6813F4003F03D0F7
:102630006368002B00F0A881236813F0020F55D0C7
:10264000874B9B6813F00C0F3ED0854B9B6803F0C3
:102650000C03082B33D0E368002B68D00122814B98
:102660001A6000F073FC05467D4B1B6813F0020FE7
:1026700054D100F06BFC401B0228F5D9032086E101
:10268000774A136843F480331360B5E7744B1A68D4
:1026900042F480221A601A6842F480321A60ABE772
:1026A00000F054FC05466E4B1B6813F4003FC3D08A
:1026B00000F04CFC401B6428F5D9032067E1684B0F
:1026C0005B6813F4800FC6D1654B1B6813F0020FD3
:1026D00004D0E368012B01D0012058E1604A13685F
:1026E00023F0F803216943EAC1031360236813F060
:1026F000080F40D0636963B301225B4B1A6000F09E
:1027000025FC0546564B5B6F13F0020F33D100F0EA
:102710001DFC401B0228F5D9032038E1504A1368FC
:1027200023F0F803216943EAC1031360DEE70022C6
:102730004C4B1A6000F00AFC0546494B1B6813F02D
:10274000020FD3D000F002FC401B0228F5D9032071
:102750001DE10022444B1A6000F0F8FB0546404B97
:102760005B6F13F0020F06D000F0F0FB401B022855
:10277000F5D903200BE1236813F0040F79D0384B0F
:102780001B6C13F0805F33D100230193344B1A6C20
:1027900042F080521A641B6C03F080530193019B3A
:1027A0000125324B1B6813F4807F23D0A368012BD3
:1027B00034D0052B38D02A4B1A6F22F001021A6749
:1027C0001A6F22F004021A67A368002B36D000F0BB
:1027D000BDFB0646224B1B6F13F0020F48D100F0E1
:1027E000B5FB801B41F288339842F3D90320CEE039
:1027F0000025D6E71D4A136843F48073136000F088
:10280000A5FB0646194B1B6813F4807FCED100F060
:102810009DFB801B0228F5D90320B8E0104A136FF6
:1028200043F001031367CFE70D4B1A6F42F0040228
:102830001A671A6F42F001021A67C5E700F086FBBB
:102840000646074B1B6F13F0020F11D000F07EFB02
:10285000801B41F288339842F3D9032097E000BFF0
:102860000038024000004742800E4742007000409E
:10287000EDB9A369002B00F08980484A926802F004
:102880000C02082A51D0022B17D00022444B1A60A8
:1028900000F05CFB0446414B1B6813F0007F42D004
:1028A00000F054FB001B0228F5D903206FE03B4ADF
:1028B000136C23F080531364DBE70022384B1A605B
:1028C00000F044FB0546354B1B6813F0007F06D033
:1028D00000F03CFB401B0228F5D9032057E0E369D8
:1028E000226A1343626A43EA8213A26A5208013AD7
:1028F00043EA0243E26A43EA0263284A5360012240
:10290000274B1A6000F022FB0446244B1B6813F08F
:10291000007F06D100F01AFB001B0228F5D9032026
:1029200035E0002033E0002031E0012B31D01B4B9B
:102930005B6803F48001E269914201D0012026E046
:1029400003F03F02216A8A4201D001201FE0616A40
:1029500047F6C0721A40B2EB811F01D0012016E089
:1029600003F44031A26A5208013AB1EB024F01D0A0
:1029700001200CE003F07063E26AB3EB026F0AD04F
:10298000012004E001207047012000E0002002B097
:1029900070BD0120FBE70020F9E700BF00380240CE
:1029A00060004742F8B5314B9B6803F00C03042BE1
:1029B00059D0082B01D02E48F8BD2C4B5A6802F094
:1029C0003F025B6813F4800F2AD0284B5B68C3F387
:1029D00088131E4600275C010025E41A65EB0705F5
:1029E000A90141EA9461A001001B61EB0501CB0044
:1029F00043EA5073C400A01943EB07014B0243EABA
:102A0000D0534402204619460023FDF7C7FD174B5B
:102A10005B68C3F3014301335B00B0FBF3F0F8BD27
:102A2000124B5B68C3F388131E4600275C01002528
:102A3000E41A65EB0705A90141EA9461A001001BB6
:102A400061EB0501CB0043EA5073C400A01943EBCE
:102A500007018B0243EA9053840220461946002363
:102A6000FDF79CFDD3E70348F8BD00BF00380240E6
:102A70000024F40000127A00002800F09E8070B557
:102A80000446504B1B6803F007038B4209D2CBB2BC
:102A90004C4A1370136803F00703994201D00120D8
:102AA00070BD236813F0020F17D013F0040F04D089
:102AB000454A936843F4E0539360236813F0080F8A
:102AC00004D0414A936843F4604393603E4A93685C
:102AD00023F0F003A068034393600D46236813F0CE
:102AE000010F32D06368012B21D09A1E012A25D90B
:102AF000354A126812F0020F61D033498A6822F019
:102B0000030213438B6000F021FA06462E4B9B68AC
:102B100003F00C036268B3EB820F16D000F016FAD4
:102B2000801B41F288339842F0D9032070BD264AB9
:102B3000126812F4003FE0D1012070BD224A1268F1
:102B400012F0007FD9D1012070BD1E4B1B6803F02D
:102B500007039D4209D2EAB21A4B1A701B6803F0B0
:102B600007039D4201D0012070BD236813F0040FBC
:102B700006D0154A936823F4E053E1680B43936051
:102B8000236813F0080F07D00F4A936823F46043BB
:102B9000216943EAC1039360FFF704FF0A4B9B6876
:102BA000C3F30313094AD35CD840094B1860094B9F
:102BB000186800F07FF9002070BD012070470120E7
:102BC00070BD00BF003C024000380240D8450008FC
:102BD0005400002050000020014B1868704700BFCF
:102BE0005400002008B5FFF7F7FF044B9B68C3F3C0
:102BF0008223034AD35CD84008BD00BF003802409E
:102C0000E845000808B5FFF7E7FF044B9B68C3F3EE
:102C10004233034AD35CD84008BD00BF00380240AD
:102C2000E845000800230F2B00F2CD80F0B583B0FB
:102C300062E085684FEA430E032707FA0EF725EA9C
:102C40000705CE6806FA0EF635438560456825EA25
:102C500002024D68C5F300159D402A43426057E0CB
:102C6000DD08083550F8252003F00706B6000F27C9
:102C7000B74022EA07020F6907FA06F6324340F826
:102C8000252059E0042700E0002707FA06F6324322
:102C900002354D4E46F825204C4A9568E24305EA38
:102CA00002064F6817F4801F01D044EA0506474D1D
:102CB000AE60ED6802EA05064F6817F4001F01D008
:102CC00044EA0506414DEE606D6802EA05064F686C
:102CD00017F4003F01D044EA05063C4D6E602D68B4
:102CE0002A404E6816F4803F01D044EA0502374C72
:102CF000226001330F2B64D801229A400C681440E3
:102D0000A242F6D14D6805F00305013D012D90D991
:102D10004A6802F00302032A09D0C2685F00032652
:102D2000BE4022EA06028D68BD402A43C2604A685E
:102D300002F00302022A93D002685F000326BE401D
:102D400022EA06024D6805F00305BD402A430260F1
:102D50004A6812F4403FCCD0002201921C4A556CC4
:102D600045F480455564526C02F480420192019A08
:102D70009D08AE1C144A52F8262003F00306B60044
:102D80000F27B74022EA0702124FB8423FF47CAF48
:102D900007F58067B8420ED007F58067B8420CD0BF
:102DA00007F58067B8420AD007F58067B8423FF45C
:102DB00069AF072769E7012767E7022765E7032768
:102DC00063E703B0F0BD704700380140003C0140AC
:102DD000003802400000024012B9090481617047C6
:102DE00081617047074AD36823F4E0631B041B0C1E
:102DF000000200F4E060184340F0BF6040F400308F
:102E0000D060704700ED00E030B4164BDB68C3F3D0
:102E10000223C3F10704042C28BF04241D1D062D22
:102E200017D9033B012505FA04F4013C21409940E0
:102E300005FA03F3013B1340194300280BDB09019A
:102E4000C9B200F1604000F5614080F8001330BC69
:102E500070470023E6E700F00F000901C9B2024BFA
:102E60001954F4E700ED00E014ED00E0002808DB61
:102E7000420900F01F00012303FA00F0014B43F860
:102E80002200704700E100E00138B0F1807F0AD2F3
:102E9000064B5860F021064A82F823100020986003
:102EA00007221A6070470120704700BF10E000E061
:102EB00000ED00E010B504460E4B18784FF47A731D
:102EC000B3FBF0F30C4A1068B0FBF3F0FFF7DCFF44
:102ED00068B90F2C01D9012010BD002221464FF006
:102EE000FF30FFF791FF054B1C60002010BD012053
:102EF00010BD00BF4E0000205400002050000020F4
:102F000008B50B4B1A6842F400721A601A6842F452
:102F100080621A601A6842F480721A600320FFF718
:102F200061FF0020FFF7C6FFFDF7B6FD002008BDDA
:102F3000003C0240034A1168034B1B780B441360AA
:102F4000704700BF780500204E000020014B186834
:102F5000704700BF7805002038B50446FFF7F6FF3C
:102F60000546B4F1FF3F02D0044B1B781C44FFF729
:102F7000EDFF401B8442FAD838BD00BF4E00002050
:102F8000F8B504460268136923F44053C1680B4343
:102F9000136183680269134342691343C26913438F
:102FA0000168CA6822F4164222F00C021343CB6077
:102FB0000268536923F4407381690B4353610368CA
:102FC000314A934232D002F5806293422ED0FFF70D
:102FD00009FEE369B3F5004F2BD0256800210618E0
:102FE00041EB010736184F41FB0043EA5673F200EC
:102FF00016461F4663689A009B0F80197941FDF7BA
:10300000CDFA224CA4FB00325109642202FB1102CA
:1030100013013233A4FB03235B0903F0F00202EB3C
:10302000011203F00F031344AB60F8BDFFF7EAFD94
:10303000CFE725680021061841EB010736184F41FC
:10304000FB0043EA5673F20016461F4662680023EF
:1030500092185B4180197941FDF7A0FA0B4CA4FB53
:1030600000325109642202FB1102D3003233A4FB67
:1030700003235B095A0002F4F87202EB011203F019
:1030800007031344AB60F8BD001001401F85EB51EE
:1030900058B310B5044690F83D300BB3242384F8A0
:1030A0003D302268D36823F40053D3602046FFF7F5
:1030B00067FF2268136923F4904313612268536900
:1030C00023F02A0353612268D36843F40053D3608A
:1030D00000202064202384F83D3084F83E3010BD69
:1030E00080F83C30FDF7F8FCD8E70120704700007D
:1030F000034AD2F8883043F47003C2F8883070472E
:1031000000ED00E00020704700207047002070476D
:1031100010B5D0F8D43203F1B00250F822408CB18F
:1031200000EB820043687BB194F80002FF280DD0C9
:103130009B6894F8012221469847FF2384F80032C7
:10314000002010BD032010BD002010BD002010BDC8
:103150000A23038000487047D400002038B527496F
:103160000B680022C3F8B822C3F8C422C3F8D022E7
:103170002348C3F8B402012083F89C021A700B683C
:103180001A78AAB11D4C25681E4BC5F8B832DB6A07
:1031900000209847C5F8D0022368D3F8D422B03273
:1031A00003EB8203184A5A601848FDF755FE38BDF4
:1031B000164CC4F80835C3F8C8424FF0A04323604A
:1031C000042363600223E36000252561A361E561B8
:1031D00025626562E56225632046FDF7ACFD80212E
:1031E0002046FEF79FFB402229462046FEF776FB4D
:1031F000802201212046FEF771FBC3E7F400002086
:103200000000002058000020E000002058080020A6
:10321000D0F8D432B03350F823302BB1C3F80812B1
:10322000C3F810220020704703207047D0F8D43232
:10323000B03350F823301BB1C3F80412002070479C
:103240000320704710B5064C002206492046FFF7C0
:10325000DFFF05492046FFF7E9FF002010BD00BF52
:103260007C05002064150020640D002008B5D0F80E
:10327000B83213B11B68984708BD002008BD08B5D7
:10328000D0F8B8325B68984700B1032008BD0174DC
:10329000704790F89C32DBB280F89D32042380F8AE
:1032A0009C320020704790F89C32DBB2042B01D096
:1032B0000020704790F89D32DBB280F89C32F7E72F
:1032C00008B590F89C32DBB2032B01D0002008BD7A
:1032D000D0F8B832002BF9D0DB69002BF6D0984734
:1032E000F4E708B5D0F8D432AE3350F823205AB101
:1032F00090F89C32DBB2032B01D0002008BD136A8A
:1033000023B19847002008BD032008BD002008BD58
:1033100008B5D0F8D432AE3350F8232022B190F85B
:103320009C32DBB2032B00D008BD536A002BFBD0CC
:103330009847F9E708B5012380F89C32D0F8B832F5
:1033400033B15B680179984708B1032008BD08BD17
:10335000002008BD0020704703780A8813440B80C2
:10336000037818447047428803789A4218D930B5D8
:1033700083B00D460446ADF806306288BDF80630CD
:103380009A420AD90DF10601FFF7E6FF4378052BB3
:10339000F3D18378AB42F0D100E0002003B030BD20
:1033A00000207047F8B507460F4C82212046FFF7F2
:1033B000DAFF064601212046FFF7D5FF05468121A9
:1033C0002046FFF7D0FF0EB11023B3711DB140238B
:1033D0002B7100236B7118B14023037100234371DB
:1033E00043233B800048F8BD90000020F8B5074615
:1033F0000F4C82212046FFF7B6FF064601212046EA
:10340000FFF7B1FF054681212046FFF7ACFF0EB163
:103410001023B3711DB100232B7102236B7118B1FE
:10342000002303710223437143233B800048F8BD0E
:1034300090000020F8B507460F4C82212046FFF788
:1034400092FF064601212046FFF78DFF05468121A8
:103450002046FFF788FF0EB11023B3711DB1402342
:103460002B7100236B7118B140230371002343714A
:1034700043233B800048F8BD900000200B78037088
:103480004B7843708B78CA7843EA022343800B79E8
:103490004A7943EA022383808B79CA7943EA02237B
:1034A000C3807047002302E00133DBB201300278B1
:1034B000002AF9D118467047C8B170B50D461646B6
:1034C0000446FFF7EFFF01304000308028700323EF
:1034D0006B70022307E0EA5401345A1CD2B2002177
:1034E000A9540233DBB22278002AF4D170BD7047B0
:1034F00030B589B000230393049305930693079393
:103500000368B3F1A04F01D009B030BD002501958B
:10351000164C236B43F001032363236B03F0010379
:103520000193019B4FF4C05303930223049303239D
:1035300006930A23079303A90D48FFF773FB636BF8
:1035400043F0800363630295636C43F480436364D8
:10355000636C03F480430293029B2A46294643206E
:10356000FFF752FC4320FFF781FCCDE70038024013
:103570000000024008B5D0F80805FFF7A1FE08BD1D
:1035800010B50446D0F80805FFF783FE2268D2F88C
:10359000003E43F00103C2F8003E236A23B1034A10
:1035A000136943F00603136110BD00BF00ED00E096
:1035B00008B5D0F80805FFF776FE08BD08B5D0F8C5
:1035C0000805FFF7A5FE08BD08B5D0F80805FFF708
:1035D00088FE08BD704708B5D0F80805FFF7AAFEB9
:1035E00008BDD0F8C83211F0800F08D101F07F017A
:1035F00001EBC1018A00134493F87E02704701F089
:103600007F0101EBC1018A00134493F83E0070472B
:1036100008B5D0F8C802FDF7A5FD08BD38B5D0F84B
:10362000D432B03350F8235095B10446FFF7F0FF81
:10363000C5F80C02D4F8D402B03004EB8000436823
:10364000DB6805F50371D5F804029847002038BD02
:10365000032038BD004870471401002018B102282B
:1036600003D003207047002070470120704710B539
:103670001C4613462246D0F8C802FDF7CDFCFFF7E2
:10368000EDFF10BDF8B50446012380F89C320023FD
:10369000C0F894324360C0F8A43280F8A032D0F869
:1036A000B832EBB15B68EBB100219847B0B10327AA
:1036B0004023002211462046FFF7D9FF0126A4F837
:1036C00064614025C4F860512B46002280212046C9
:1036D000FFF7CDFFA68425623846F8BD0027E7E74F
:1036E0000027E5E70027E3E710B50446C3682BB1E0
:1036F000022B0DD0FDF72EF9012100E00021D4F8B6
:103700000805FFF7C4FDD4F80805FFF7BBFF10BD9F
:103710000121F4E708B5D0F8C802FDF7BEFCFFF7B9
:103720009DFF08BD38B504468121FFF7F3FF002552
:10373000258701212046FFF7EDFFA4F8785182216B
:103740002046FFF7E7FFA4F84C50A4F84E50D4F8F9
:10375000D43203F1B00254F8222062B1B03304EB4A
:1037600083035B685B689847D4F8D432B03344F87D
:103770002350C4F8BC52002038BD08B5D0F8C802A8
:10378000FDF723FDFFF76AFF08BD10B50446802151
:10379000FFF7F3FF00212046FFF7EFFF10BD08B54C
:1037A000D0F8C802FDF752FDFFF758FF08BD08B575
:1037B000D0F8C802FDF71CFCFFF750FF08BD08B5A4
:1037C000D0F8C802FDF7D7FCFFF748FF08BDF8B5F1
:1037D000D0F8C862D0F8D432B03350F8233083B375
:1037E00001F00F0404EB8405AA00024492694AB177
:1037F00004EBC407BD002E44B66CB2FBF6F506FB25
:10380000152292B10022C3F81422D0F8D422B0328B
:1038100000EB820042681469ACB10A4603F50471FA
:10382000D3F80802A0470020F8BD04EB8404A300ED
:10383000034400249C6123462246FFF7C0FF204634
:10384000F8BD0320F8BD0020F8BD08B5D0F8D4328B
:10385000B03350F823209AB1D2F814320BB10120C2
:1038600008BD0123C2F81432D2F81032C362D2F874
:103870001032D2F808228121FFF7A1FF002008BDF5
:10388000032008BD094BD3F8BC32D3F814320BB176
:103890000120704710B50A460146044C2046FFF748
:1038A000B7FC2046FFF7D1FF10BD00BF7C0500200C
:1038B00010B513460222C0F894228361C3610A4600
:1038C0000021FFF77CFF002010BD08B5CB88012B3D
:1038D0000DD190F89C3203F0FF029BB1022A09D966
:1038E000032A0FD10122011DFFF7E2FF08BDFFF7F8
:1038F0004CFF08BD0146002341F8083F0122FFF7B5
:10390000D7FF08BDFFF741FF08BD08B590F89C320E
:10391000013B022B12D8CB88022B0CD10123C360B0
:10392000D0F8A4320BB10323C360022200F10C01D2
:10393000FFF7BEFF08BDFFF728FF08BDFFF725FF13
:1039400008BD08B513460A460021FFF738FF0020DE
:1039500008BD08B50422C0F8942200231A4619466F
:10396000FFF72DFF002008BD70B505460C460B780B
:1039700003F06003202B07D0402B05D023B1FFF7C5
:1039800004FF0026304670BD95F89C32013B022BA7
:103990001FD82379012B16D8D5F8B8329A6882B18E
:1039A0000022C5F8D4229B6821462846984706463F
:1039B000E388002BE6D1002EE4D12846FFF7C9FFAB
:1039C000E0E70326F4E721462846FFF7DEFE00265F
:1039D000D8E721462846FFF7D8FE0026D2E770B583
:1039E00005460C468A88D6B20B7803F06003202B7C
:1039F00006D0402B04D0C3B1FFF7C7FE002070BD36
:103A000031462846FFF7A6FC002840F00281C5F8A1
:103A1000D40200F1AE0255F822209268002A00F08C
:103A2000FA8021462846904770BD4B78012B31D053
:103A3000002B6FD0032B40F0E88090F89C32DBB273
:103A4000022B05D0032B15D0FFF79FFE002070BD81
:103A500056B1802E08D03146FFF78FFE80212846D0
:103A6000FFF78BFE002070BD21462846FFF78DFE34
:103A7000002070BD4B8823B91EB1802E01D0CB88A9
:103A800023B12846FFF765FF002070BD3146FFF7E0
:103A900074FEF6E790F89C32DBB2022B05D0032BC4
:103AA00015D0FFF772FE002070BD56B1802E08D0F1
:103AB0003146FFF762FE80212846FFF75EFE0020B8
:103AC00070BD21462846FFF760FE002070BD4B8880
:103AD000002B40F0A28016F07F0F17D12846FFF789
:103AE00038FF31462846FFF735FC0346002840F0F2
:103AF0009680C5F8D402AE3355F823309B68002B6E
:103B000000F08F8021462846984770BD3146FFF768
:103B100046FEE3E790F89C32DBB2022B05D0032B84
:103B200028D0FFF732FE002070BD0EB1802E13D1D9
:103B300012F0800F14D106F07F0606EB8606B30064
:103B400003F5A8712944043100240C6002222846A0
:103B5000FFF7AEFE204670BDFFF717FE002070BDD8
:103B600006F07F0606EB8606B30003F11001294438
:103B70000431E9E752B2002A1EDB06F00F0303EB23
:103B8000830399000144B1F864311BB3002A26DB9A
:103B900006F07F0202EB8202930003F5A8742C4426
:103BA000043436B3802E24D031462846FFF719FD61
:103BB00040B3012323601EE006F00F0303EB8303F1
:103BC000990001448B8C002BE0D12146FFF7DDFDED
:103BD000002070BD2146FFF7D8FD002070BD06F023
:103BE0007F0202EB8202930003F110042C440434A0
:103BF000D7E700232360022221462846FFF758FE1C
:103C0000002070BD00232360F5E7FFF7BEFD002014
:103C100070BD002070BD002070BD002070BD002070
:103C200070BD002070BD30B583B004460D46002342
:103C3000ADF806304A88130A013B062B00F2C98012
:103C4000DFE803F0042137C7C7A5B500D0F8B432C8
:103C50001B680DF10601007C984700238BB9EA88A8
:103C6000002A00F0C180BDF80630002B00F0B780BC
:103C70009A4228BF1A46ADF8062001462046FFF7B3
:103C800017FE03B030BD037C4BB9D0F8B8329B6A45
:103C90000DF106009847022343700023DEE7D0F8B9
:103CA000B832DB6A0DF10600984702234370002307
:103CB000D4E7D2B2052A64D8DFE802F00313233335
:103CC0004353D0F8B4325B682BB10DF10601007C90
:103CD00098470023C2E72946FFF757FD012300203C
:103CE000BCE7D0F8B4329B682BB10DF10601007C23
:103CF00098470023B2E72946FFF747FD012300203C
:103D0000ACE7D0F8B432DB682BB10DF10601007CD2
:103D100098470023A2E72946FFF737FD012300203B
:103D20009CE7D0F8B4321B692BB10DF10601007C81
:103D30009847002392E72946FFF727FD012300203B
:103D40008CE7D0F8B4325B692BB10DF10601007C31
:103D50009847002382E72946FFF717FD012300203B
:103D60007CE7D0F8B4329B692BB10DF10601007CE1
:103D70009847002372E72946FFF707FD012300203B
:103D80006CE72946FFF701FD0123002066E7037C6D
:103D90003BB9D0F8B8325B6B0DF1060098470023B1
:103DA0005CE72946FFF7F1FC0123002056E7037C7E
:103DB0004BB9D0F8B8321B6B0DF1060098470723BA
:103DC000437000234AE72946FFF7DFFC0123002068
:103DD00044E72946FFF7D9FC012300203EE72946A6
:103DE0002046FFF7D2FC4CE72046FFF7B2FD48E73C
:103DF00038B504468B88FBB9CB88EBB94B887F2B51
:103E00001AD803F07F0590F89C32DBB2032B0CD05C
:103E100080F89E522946FFF7CAFC2046FFF799FD1D
:103E200035B1022384F89C3238BDFFF7AEFC38BDB3
:103E3000012384F89C3238BD2046FFF7A6FC38BD2C
:103E400070B504460D468E78012E04D9FFF79DFC0F
:103E50000326304670BD90F89C32DBB2022B09D0AD
:103E6000032B21D0FFF791FC31462046FFF707FADC
:103E70000326EEE7A6B146603146FFF7F7F906469E
:103E800038B129462046FFF780FC022384F89C3293
:103E9000DFE72046FFF75DFD032384F89C32D8E777
:103EA000FFF757FD0026D4E7C6B141688E4224D003
:103EB000C9B2FFF7E4F9666031462046FFF7D6F94C
:103EC0000646B0B129462046FFF75FFC217920461F
:103ED000FFF7D5F9022384F89C32BAE7022380F871
:103EE0009C3246603146FFF7CAF92046FFF731FDA4
:103EF000AFE72046FFF72DFDABE7FFF72AFD0026D1
:103F0000A7E708B54B88012B04D0022B07D0FFF799
:103F10003CFC08BDC0F8A432FFF71BFD08BD8B8830
:103F20001B0A80F8A032FFF714FD08BD08B590F811
:103F30009C32013B022B09D84B88012B00D008BDD5
:103F40000023C0F8A432FFF704FD08BDFFF71DFCF5
:103F5000F5E708B50B7803F06003202B06D0402B63
:103F600004D05BB1FFF711FC002008BDD0F8D432BB
:103F7000AE3350F823309B68984708BD4B78092B27
:103F800021D8DFE803F0141C201820090520100DAB
:103F9000FFF749FE002008BDFFF72AFF002008BDFB
:103FA000FFF74EFF08BDFFF790FC002008BDFFF7AC
:103FB000ACFC002008BDFFF7A4FF002008BDFFF700
:103FC000B5FF002008BDFFF7E0FB002008BD38B5B5
:103FD000044600F2AA252846FFF750FA0123C4F848
:103FE0009432B4F8B032C4F8983294F8AA1201F0BE
:103FF0001F03012B0DD03BB1022B0FD001F080012C
:104000002046FFF7BAFB38BD29462046FFF7A1FF3F
:1040100038BD29462046FFF7A7FC38BD2946204673
:10402000FFF7DDFC38BD08B500F2C441D0F8080543
:10403000FFF7CDFF08BD08B5D0F8C802FDF764F85A
:10404000FFF70CFB08BD70B504464FF40770FFF78F
:1040500001FB002848D005464FF407720021FCF709
:10406000C3F9D4F8D432B03344F82350C4F8BC5266
:10407000237C002B40D14FF4007302228121204683
:10408000FFF7F5FA012626874FF400730222314626
:104090002046FFF7ECFAA4F878611023A4F84E301C
:1040A0000823032282212046FFF7E1FA0123A4F826
:1040B0004C300026C5F80462D4F8D432B03304EB97
:1040C00083035B681B689847C5F81462C5F81862DB
:1040D000D5F8042262B3237C13B340230121204688
:1040E000FFF7A9FF002070BDD4F8D432B03300220E
:1040F00044F82320022070BD402302228121204663
:10410000FFF7B5FA012626874023022231462046D2
:10411000FFF7ADFAA4F878611023A4F84E30BFE79A
:104120004FF4007301212046FFF785FF304670BD34
:10413000022070BD08B5D0F8D432B03350F8232037
:1041400092B1037C3BB14023D2F804220121FFF756
:1041500072FF002008BD4FF40073D2F80422012141
:10416000FFF769FF002008BD032008BDF0B591B03E
:1041700004460E46164D01462846FFF757F82846D6
:10418000FFF7D8FF40252A4600216846FCF72CF9A6
:104190003678324621466846FCF78CF86846FCF7CC
:1041A0008FF907460DEB00020A4B03CB4DF80700D1
:1041B00051601B881381324600212046FCF714F918
:1041C00029466846FFF75EFB002011B0F0BD00BF36
:1041D0007C050020F045000810B513460322C0F806
:1041E0009422C0F85831C0F85C310A460021FFF72C
:1041F00022FF002010BDF0B583B0D0F8D47207F1D3
:10420000B00350F8236000238DF80730ADF8043078
:10421000002E75D00D4604460B7813F0600234D0A2
:10422000202A69D1CA882AB313F0800F0ED14B78A7
:1042300086F80032CA883F2A1AD8D2B286F80122FC
:1042400031462046FFF7C8FF00205AE0B03700EBA8
:1042500087077B689B68314668789847EA88072A11
:1042600028BF072231462046FFF722FB002048E006
:104270004022E3E707F1B00004EB800043689B684D
:1042800000224878984700203BE04B780B2B2FD832
:10429000DFE803F006392E2E2E2E2E2E2E2E15257B
:1042A00090F89C32DBB2032B03D0FFF76EFA0320A9
:1042B00027E0022201A9FFF7FBFA002021E090F895
:1042C0009C32DBB2032B03D0FFF75FFA032018E028
:1042D00001220DF10701FFF7EBFA002011E090F841
:1042E0009C32DBB2032B10D0FFF74FFA032008E01B
:1042F000FFF74BFA032004E0FFF747FA032000E042
:10430000032003B0F0BD0020FBE70020F9E708B56B
:1043100013460A460021FFF78EFE002008BD38B57F
:1043200004460D4600293DD11346D0F89422032AB5
:1043300001D0002038BDD0F85C11D0F86021914246
:1043400015D890F8AA3203F01F03022B04D190F87D
:10435000AE12FEF7FFFF054625B994F89C32DBB29A
:10436000032B0FD02046FFF7F4FA002038BD891A3E
:10437000C0F85C118A4228BF0A461946FFF7C7FFFA
:10438000002038BD05F1AE0354F823301B69002B23
:10439000E8D0C4F8D452AE3554F825301B69204615
:1043A0009847DFE701F07F01FEF7D4FF0246C0B96E
:1043B00094F89C32DBB2032B01D0002038BD00F111
:1043C000AE0354F823309B694BB1C4F8D402AE322B
:1043D00054F822309B6929462046984738BD002072
:1043E00038BD002038BD08B501EBC102930003447D
:1043F000D3F88C22D0F80805FFF791FF08BD08B567
:104400000522C0F8942200231A461946FFF713FE2E
:10441000002008BD38B5044600294BD11346D0F81A
:104420009422022A07D094F8A032002B60D00020FA
:1044300084F8A00238BDC269016A8A420ED88A4255
:1044400018D094F89C32DBB2032B27D08021204671
:10445000FFF793F92046FFF7D2FFE4E7521AC26153
:104460001946FFF76EFA00231A4619462046FFF751
:10447000E2FDD8E783699942E3D8D0F898229342C5
:10448000DFD200221146FFF75CFA0021C4F898122F
:104490000B460A462046FFF7CEFDC4E7D4F8B832F3
:1044A000DA68002AD2D00022C4F8D422DB68204681
:1044B0009847CBE70D4641F08001FEF74BFF0246DF
:1044C000C0B994F89C32DBB2032B01D0002038BD78
:1044D00000F1AE0354F823305B696BB1C4F8D40229
:1044E000AE3254F822305B6929462046984738BDE1
:1044F000002038BD002038BD002038BD08B501EBD4
:10450000C10293000344DA6CD0F80805FFF782FF7C
:1045100008BD0000DFF834D00D480E490E4A0023D4
:1045200002E0D458C4500433C4188C42F9D30B4A67
:104530000B4C002301E013600432A242FBD3FEF7D0
:10454000D7FDFBF78FFEFCF775FA7047008001205E
:1045500000000020F80000200C460008F8000020B1
:10456000641D0020FEE70000F8B500BFF8BC08BCE1
:104570009E467047F8B500BFF8BC08BC9E46704721
:1045800048656C6C6F2C20576F726C64210D0A00AB
:1045900043444320436F6E666967000043444320F1
:1045A000496E7465726661636500000053544D691D
:1045B00063726F656C656374726F6E69637300001C
:1045C00053544D3332205669727475616C20436FB9
:1045D0006D506F72740000000000000000000000C9
:1045E0000102030406070809000000000102030499
:0C45F000206563686F65642E0A000000FF
:0845FC00D0BFFF7F01000000A9
:044604002D0200087B
:04460800050200089F
:10460C00450B0008510B0008010C0008DD0B0008DD
:10461C00C90B00081D0C0008410C00081201000217
:10462C000202004083044057000201020301000013
:10463C00040309041A03000000000000000000003D
:10464C00000000000000000000000000000001005D
:10465C00100000000024F400474000082537000833
:10466C00F74100080000000011310008CF370008A6
:10467C001D360008000000000000000000000000D3
:10468C00ED330008A533000835340008513100081B
:10469C0009024300020100C03209040000010202B9
:1046AC00010005240010010524010001042402026C
:1046BC000524060001070582030800100904010007
:1046CC00020A0000000705010240000007058102F4
:1046DC00400000000A06000200000040010000003B
:1046EC004532000805310008093100086D41000809
:0846FC000D3100087C050020CF
:040000050800451595
:00000001FF
