:020000040800F2
:1000000000800120012D00088118000883180008D5
:1000100085180008871800088918000800000000EB
:100020000000000000000000000000008B18000825
:100030008D180008000000008F18000891180008B3
:10004000512D0008512D0008512D0008512D000898
:10005000512D0008512D0008512D0008512D000888
:10006000512D0008512D0008512D0008512D000878
:10007000512D0008512D0008512D0008512D000868
:10008000512D0008512D0008512D000800000000DE
:10009000000000000000000000000000512D0008DA
:1000A000512D0008512D0008512D0008512D000838
:1000B000512D0008512D0008512D0008512D000828
:1000C000512D0008512D0008512D0008512D000818
:1000D000512D0008512D0008512D0008000000008E
:1000E000512D0008512D0008512D0008000000007E
:1000F000000000000000000000000000512D00087A
:1001000000000000512D0008512D0008512D00085D
:1001100000000000000000000000000000000000DF
:10012000512D0008512D0008512D0008512D0008B7
:10013000512D000800000000000000000000000039
:10014000000000000000000000000000512D000829
:10015000512D0008512D0008512D0008512D000887
:10016000512D0008512D0008000000000000000083
:10017000000000000000000000000000000000007F
:1001800000000000512D00080000000000000000E9
:04019000512D0008E5
:1001C0000348044B834202D0034B03B118477047E6
:1001D0007000002070000020000000000548064963
:1001E0000B1AD90F01EBA301491002D0034B03B145
:1001F00018477047700000207000002000000000C9
:1002000010B5064C237843B9FFF7DAFF044B13B15E
:100210000448AFF300800123237010BD700000205C
:1002200000000000542D000808B5044B1BB1044920
:100230000448AFF30080BDE80840CFE700000000AD
:1002400074000020542D000870B50D4E0D4D761B26
:10025000B61006D0002455F8043B01349847A64256
:10026000F9D1094E094D761B02F074FDB61006D087
:10027000002455F8043B01349847A642F9D170BDDB
:10028000803400088034000884340008803400087A
:10029000830730B548D0541E002A3FD0CAB2034667
:1002A00001E0013C3AD303F8012B9D07F9D1032C5F
:1002B0002DD9CDB245EA05250F2C45EA054536D99D
:1002C000A4F1100222F00F0C03F1200EE6444FEAD5
:1002D000121C03F1100242E9045542E902551032A2
:1002E0007245F8D10CF1010214F00C0F03EB02126D
:1002F00004F00F0C13D0ACF1040323F00303043318
:10030000134442F8045B9342FBD10CF003042CB17C
:10031000CAB21C4403F8012B9C42FBD130BD644699
:100320001346002CF4D1F9E703461446BFE71A46FA
:10033000A446E0E70CB410B59CB01EAB6FF00044CF
:10034000CDE906140291084953F8042B059102A93E
:100350000193049400F080F9029B00221A701CB0F3
:10036000BDE8104002B070470802FFFF0EB410B5A0
:100370009DB06FF000411FABCDE906010491094922
:1003800053F8042B0290084C0868019302A90594C5
:1003900000F062F9029B00221A701DB0BDE8104007
:1003A00003B07047000000200802FFFF00000000BB
:1003B000000000000000000000000000000000003D
:1003C00090F800F06DE9024520F007016FF0000C95
:1003D00010F0070491F820F040F049804FF000043D
:1003E0006FF00700D1E9002391F840F000F1080018
:1003F00082FA4CF2A4FA8CF283FA4CF3A2FA8CF350
:100400004BBBD1E9022382FA4CF200F10800A4FAB6
:100410008CF283FA4CF3A2FA8CF3E3B9D1E904230A
:1004200082FA4CF200F10800A4FA8CF283FA4CF341
:10043000A2FA8CF37BB9D1E9062301F1200182FAFB
:100440004CF200F10800A4FA8CF283FA4CF3A2FA01
:100450008CF3002BC6D0002A04BF04301A4612BA0F
:10046000B2FA82F2FDE8024500EBD2007047D1E912
:10047000002304F00305C4F100004FEAC50514F0A1
:10048000040F91F840F00CFA05F562EA05021CBF72
:1004900063EA050362464FF00004A9E72DE9F0473F
:1004A0008F689F420C461D46164638D8824688897A
:1004B00010F4906F0ED108683D462A46314600F090
:1004C000C1FCA2682368D21B2B44A26023600020D9
:1004D000BDE8F0874B69096903EB4308236808EB23
:1004E000D878A3EB01096B1C4FEA68084B444345DD
:1004F000424684BF98464246430513D511465046AE
:1005000000F07EFD074608B321694A4600F000FC72
:10051000A38923F4906343F08003A38107E0086874
:100520001F46CAE7504600F0C5FD074650B107EB2D
:100530000900A8EB09032761C4F81480A3602060B8
:100540002F46BAE72169504600F0F8FC0C23CAF8A0
:100550000030A38943F040034FF0FF30A381B7E799
:100560002DE9F04F936883B09146002B6ED0176849
:100570008D6880460C460868083744E0A38913F468
:10058000906F2ED0D4E90415A0EB010A05EB4505C8
:1005900005EBD5750AEB06006D100130A8422A461E
:1005A00084BF05462A465B0537D51146404600F014
:1005B00027FD00283BD052462169019000F0A8FB9E
:1005C000A289019B22F4906242F08002A281A5EBF5
:1005D0000A0203EB0A006561A260236120603546D0
:1005E000B2465946524600F02DFCA068D9F80810D2
:1005F0002368451B8E1B03EB0A00A5602060C9F829
:1006000008601EB3083757E902B6002EFAD0B5428B
:10061000AA46B3D93546B246E3E7404600F04AFD64
:1006200003460028D3D12169404600F087FC0C2303
:10063000C8F80030A389002243F040034FF0FF3098
:10064000A381C9E9012203B0BDE8F08F0020C9F8F9
:10065000040003B0BDE8F08F2DE9F04F92468A897F
:1006600015069DB0884681461C4603D50A69002AB6
:1006700000F0EF80002209929AF800307E4D03943A
:1006800020228DF8292030228DF82A200126002BE7
:1006900072D0544603E014F8013F002B76D0252B8E
:1006A000F9D1B4EB0A0B74D12278002A64D000236C
:1006B0004FF0FF32CDE90523049307938DF85330B3
:1006C0001A93013404E0049A06FA03F313430493E3
:1006D000A246052214F8011B284600F0C9FA431B64
:1006E0000028F0D1049BD80644BF20228DF8532067
:1006F00019079AF8001044BF2B228DF853202A299D
:1007000054D1039A11680432002903927CDB0791CB
:100710009AF801100AF1010A2E2959D0574C0322E8
:10072000204600F0A5FA40B1049B001B402404FAC7
:1007300000F0034304930AF1010A1AF8011B504820
:100740008DF82810062200F093FA002862D04D4B55
:10075000002B52D003AA00924B4B424604A94846B4
:10076000AFF3008007467A1C06D0099B3B440993EF
:100770009AF80030002B8CD1B8F80C305B0654BFCF
:1007800009984FF0FF301DB0BDE8F08FB4EB0A0BB5
:10079000F2D05B46524641464846FFF77FFE0130A5
:1007A000EAD0099B22785B4409937EE7A1F13002ED
:1007B000092AB1D8079B1AF8011F03EB830302EB48
:1007C0004303A1F13002092AF5D92E290793A5D1B7
:1007D0009AF801102A2927D1039B9AF802101A6867
:1007E00005920433002A0AF102000393B8BF4FF0C8
:1007F000FF338246B8BF059390E7039B073323F08E
:10080000070308330393B0E7494243F0020307911B
:1008100004937DE703AA00921B4B424604A9484675
:1008200000F0CAF807469EE7A1F130020023092A2A
:1008300005930AF1010A3FF671AF1AF8011F03EBA5
:10084000830302EB4303A1F13002092AF5D9059392
:1008500064E7402100F0D4FBC8F80000C8F810009D
:1008600018B14022C8F8142004E70C23C9F800305E
:100870004FF0FF3087E700BF3C34000844340008E5
:1008800048340008000000009D0400082DE9F84FDE
:1008900092461F460A698B68DDF828909A42B8BFD5
:1008A0001A46CAF8002091F843300C46064613B1A8
:1008B0000132CAF80020226891065DD5DAF80030CE
:1008C0000233CAF80030226812F0060F11461ED11A
:1008D000E168CB1A002BD8BF114618DD04F1190BC3
:1008E0004FF0000805E0E568DAF80030ED1A4545FC
:1008F0000CDD01235A4639463046C847013008F11D
:100900000108F0D14FF0FF30BDE8F88F216894F86E
:100910004330003B18BF01238A060AD5E1185A1C50
:10092000302081F84300224494F8451082F84310A7
:10093000023304F1430239463046C8470130E1D062
:10094000236803F00603042B1DD0A3682269934299
:1009500025DD4FF000089B1A98441A34002501E069
:1009600045451CDA0123224639463046C847013046
:1009700005F10105F4D1C5E712F0060F12D0003BD6
:1009800018BF0123D5E7DAF80030E1682269C91AF7
:10099000A368934221EAE178DDDC0029DDDC002058
:1009A000BDE8F88FE168DAF80030CB1A002BD8BF29
:1009B000114693DCABE700BF2DE9F0470C4684B04D
:1009C0009046227E0C990746994604F14300002A7E
:1009D00033D0A2F15803DDB2202D67D8202B65D883
:1009E000DFE813F0DE00640064006400640064006B
:1009F00064006400640064006400A3006E0064008E
:100A00006400640064006E006400640064006400BC
:100A100021007F00C00064006400AE0064007F001D
:100A200064006400E50023681A0640F104810B6845
:100A300062691D1D0D601B681A60002382462361D8
:100A4000CDF80090434603AA21463846FFF71EFF23
:100A5000013020D02369524641463846C84701300C
:100A600019D02368E068039E9B0719D5831B002BD0
:100A700016DD04F1190A002504E0E068039E831BDB
:100A8000AB420DDD0123524641463846C84701308E
:100A900005F10105F1D14FF0FF3004B0BDE8F0875A
:100AA000B042B8BF304604B0BDE8F087012384F8F7
:100AB0004220236104F1420A002384F84330BFE757
:100AC00023681A0602D45E0600F1C1800D682A6808
:100AD00004350D601546002A6BDBDFF884C10A2659
:100AE00010E023681D0640F19C800B681D1D0D6001
:100AF0001D68DFF86CC16F2A0CBF08260A26002388
:100B000084F843306268A260002A7FDB236823F008
:100B100004032360002D5BD1002A79D18246082E80
:100B200065D0A0EB0A0020618AE70B6801221868F3
:100B300004330B6004F1420A84F842002261BBE7EF
:100B40000B686268181D0860D3F800A000215046A9
:100B500000F08EF8002800F08180A0EB0A006060B1
:100B60002061A9E7236843F0200323607822DFF89F
:100B7000F4C084F845200A68151D0D601D0643D495
:100B8000590641D51588DE0744BF43F02003236092
:100B9000002D44D1236823F0200323601026AEE704
:100BA000582384F84530DFF8B8C02368E3E72368AA
:100BB000DCE76268A2602D21002AC5F1000584F8F7
:100BC000431002DB23F004032360DFF894C00A26FD
:100BD0008246B5FBF6F306FB13512A461CF80110BA
:100BE0000AF8011DB2421D46F3D2082E99D123689E
:100BF000D90796D5626823699A4292DC30230AF8B5
:100C0000013C0AF1FF3A8CE71568BCE7002DDFD103
:100C10009CF8003084F8423004F1420A7FE7102645
:100C20006DE713F0400F0B6803F104050D600CBF76
:100C30001D681D885DE713F0400F0B68626903F1C2
:100C400004050D601B6814BF1A801A60F5E60A6877
:100C5000B2F9005004320A602A463CE760687FE738
:100C60005034000864340008000000000000000058
:100C700001F0FF01102A2BDB10F0070F08D010F84D
:100C8000013B013A8B422DD010F0070F42B3F6D151
:100C9000F0B441EA012141EA014122F007047FF06A
:100CA00000070023F0E80256083C85EA010586EAC1
:100CB000010685FA47F5A3FA87F586FA47F6A5FAFD
:100CC00087F68EB9EED1F0BC01F0FF0102F0070209
:100CD00032B110F8013B013A83EA010313B1F8D1B4
:100CE0000020704701387047002D06BF3546033895
:100CF000073815F0010F07D1013015F4807F02BFCE
:100D0000013015F4C03F0130F0BC0138704700BF1E
:100D1000844641EA000313F003036DD1403A41D306
:100D200051F8043B40F8043B51F8043B40F8043BC5
:100D300051F8043B40F8043B51F8043B40F8043BB5
:100D400051F8043B40F8043B51F8043B40F8043BA5
:100D500051F8043B40F8043B51F8043B40F8043B95
:100D600051F8043B40F8043B51F8043B40F8043B85
:100D700051F8043B40F8043B51F8043B40F8043B75
:100D800051F8043B40F8043B51F8043B40F8043B65
:100D900051F8043B40F8043B51F8043B40F8043B55
:100DA000403ABDD2303211D351F8043B40F8043BF5
:100DB00051F8043B40F8043B51F8043B40F8043B35
:100DC00051F8043B40F8043B103AEDD20C3205D305
:100DD00051F8043B40F8043B043AF9D2043208D0FD
:100DE000D2071CBF11F8013B00F8013B01D30B886F
:100DF00003806046704700BF082A13D38B078DD04D
:100E000010F003038AD0C3F10403D21ADB071CBF1E
:100E100011F8013B00F8013B80D331F8023B20F888
:100E2000023B7BE7043AD9D3013A11F8013B00F8C1
:100E3000013BF9D20B7803704B7843708B78837049
:100E40006046704788420DD98B1883420AD900EB5F
:100E5000020CBAB1624613F801CD02F801CD9942F5
:100E6000F9D170470F2A0ED8034602F1FF3C4AB170
:100E70000CF1010C013B8C4411F8012B03F8012FFC
:100E80006145F9D1704740EA01039B0750D1A2F1B7
:100E9000100370B501F1200C23F00F0501F1100EC5
:100EA00000F11004AC441B095EF8105C44F8105CBF
:100EB0005EF80C5C44F80C5C5EF8085C44F8085C76
:100EC0005EF8045C44F8045C0EF1100EE64504F193
:100ED0001004E9D1013312F00C0F01EB031102F001
:100EE0000F0400EB031327D0043C24F003064FEA61
:100EF000940C1E441C1F8E465EF8045B44F8045F8D
:100F0000B442F9D10CF1010402F0030203EB8403B3
:100F100001EB840102F1FF3C4AB10CF1010C013BF1
:100F20008C4411F8012B03F8012F6145F9D170BDF4
:100F300002F1FF3C03469BE72246EBE7002958D02D
:100F400030B551F8043C83B0002BA1F10404B8BFC4
:100F5000E418019000F0E8F8284A0198136833B1CA
:100F6000A3420DD9216804EB010C63452FD06360C7
:100F7000146003B0BDE8304000F0D8B8A34210D8E8
:100F80001A465B68002BF9D1116802EB010C64452D
:100F900019D02FD36360546003B0BDE8304000F037
:100FA000C5B8116802EB010CA44516D022D82168FF
:100FB00004EB010C6345EDD11D685B682944C4E96D
:100FC00000135460D5E7236819441160D1E71D6808
:100FD0005B682944C4E90013CAE724682144541813
:100FE000A3421160C5D1D3E900432144C2E90013F3
:100FF000BFE770470C230360BBE700BF8C000020F5
:10100000F8B5CD1C25F0030508350C2D38BF0C258F
:10101000002D064623DBA94221D8254F00F084F895
:101020003A6822B3144603E063682246FBB11C46CB
:1010300023685B1BF8D40B2B15D8636894420CBF54
:101040003B605360304600F071F804F10B00231D43
:1010500020F00700C21A01D01B1AA350F8BD0C23C0
:1010600033600020F8BD23601C442560EAE77968FE
:10107000C9B12946304600F045F8431C0CD0C41CC9
:1010800024F00304A04205D0211A304600F03AF8BB
:10109000013001D02560D5E70C233046336000F0E5
:1010A00045F80020F8BD304600F02CF87860E0E705
:1010B0008C000020F8B51446F9B1CAB106460D46B9
:1010C00000F036F8A04202D32F463846F8BD21463C
:1010D0003046FFF795FF07460028F6D022462946FE
:1010E000FFF716FE30462946FFF728FF3846F8BDC1
:1010F0002746FFF723FF3846F8BDBDE8F840114604
:10110000FFF77EBF38B5074D0022044608462A6027
:1011100000F018F8431C00D038BD2B68002BFBD022
:10112000236038BD94000020704700BF704700BFA7
:1011300051F8040C0028A0F10400BCBF0B58C018E3
:10114000704700BF044A05491368002B08BF0B46CF
:10115000184410601846704798000020E8000020EE
:1011600053B94AB9002908BF00281CBF4FF0FF310E
:101170004FF0FF3000F074B9ADF1080C6DE904CE0A
:1011800000F006F8DDF804E0DDE9022304B0704762
:101190002DE9F047089D04468E46002B4DD18A422A
:1011A000944669D9B2FA82F252B101FA02F3C2F15D
:1011B000200120FA01F10CFA02FC41EA030E9440EE
:1011C0004FEA1C48210CBEFBF8F61FFA8CF708FB0F
:1011D00016E341EA034306FB07F199420AD91CEBE7
:1011E000030306F1FF3080F01F81994240F21C8119
:1011F000023E63445B1AA4B2B3FBF8F008FB103361
:1012000044EA034400FB07F7A7420AD91CEB040495
:1012100000F1FF3380F00A81A74240F20781644465
:10122000023840EA0640E41B00261DB1D4400023EA
:10123000C5E900433146BDE8F0878B4209D9002D4E
:1012400000F0EF800026C5E9000130463146BDE8D8
:10125000F087B3FA83F6002E4AD18B4202D3824242
:1012600000F2F980841A61EB030301209E46002DF1
:10127000E0D0C5E9004EDDE702B9FFDEB2FA82F246
:10128000002A40F09280A1EB0C014FEA1C471FFAA4
:101290008CFE0126200CB1FBF7F307FB131140EA8B
:1012A00001410EFB03F0884208D91CEB010103F158
:1012B000FF3802D2884200F2CB804346091AA4B21A
:1012C000B1FBF7F007FB101144EA01440EFB00FEEE
:1012D000A64508D91CEB040400F1FF3102D2A64553
:1012E00000F2BB800846A4EB0E0440EA03409CE7F2
:1012F000C6F12007B34022FA07FC4CEA030C20FA9F
:1013000007F401FA06F31C43F9404FEA1C4900FABE
:1013100006F3B1FBF9F8200C1FFA8CFE09FB18113B
:1013200040EA014108FB0EF0884202FA06F20BD9AE
:101330001CEB010108F1FF3A80F08880884240F2FE
:101340008580A8F102086144091AA4B2B1FBF9F042
:1013500009FB101144EA014100FB0EFE8E4508D93D
:101360001CEB010100F1FF346CD28E456AD90238C2
:10137000614440EA0840A0FB0294A1EB0E01A142A7
:10138000C846A64656D353D05DB1B3EB080261EB15
:101390000E0101FA07F722FA06F3F1401F43C5E9EF
:1013A000007100263146BDE8F087C2F12003D84025
:1013B0000CFA02FC21FA03F3914001434FEA1C4767
:1013C0001FFA8CFEB3FBF7F007FB10360B0C43EA59
:1013D000064300FB0EF69E4204FA02F408D91CEB09
:1013E000030300F1FF382FD29E422DD90238634407
:1013F0009B1B89B2B3FBF7F607FB163341EA0341A7
:1014000006FB0EF38B4208D91CEB010106F1FF38F5
:1014100016D28B4214D9023E6144C91A46EA0046EC
:1014200038E72E46284605E70646E3E61846F8E67E
:101430004B45A9D2B9EB020864EB0C0E0138A3E7C7
:101440004646EAE7204694E74046D1E7D0467BE7A8
:10145000023B614432E7304609E76444023842E720
:10146000704700BF2DE9F0418AB00024059406942E
:101470000794089409940194344B1A6B42F00402C7
:101480001A631A6B02F004020192019A02941A6B19
:1014900042F080021A631A6B02F080020292029AF2
:1014A00003941A6B42F001021A631A6B02F00102F4
:1014B0000392039A04941A6B42F002021A631B6BA4
:1014C00003F002030493049B214E2246032130467D
:1014D00000F0BBFFDFF88080224640F233514046E7
:1014E00000F0B3FF1B4F224640F23941384600F06E
:1014F000ACFF4FF4005305934FF404130693079485
:1015000005A9304600F0C0FE03230593012506958A
:101510000794089405A9304600F0B6FE40F2335314
:10152000059306950794089405A9404600F0ACFE83
:1015300040F23943059306950794089405A9384667
:1015400000F0A2FE0AB0BDE8F08100BF0038024002
:1015500000080240000402400000024072B6FEE7AC
:1015600008B50A480A4B03604FF4E1334360002397
:101570008360C36003610C2242618361C36100F038
:10158000A9FA00B908BDFFF7E9FF00BF9C000020E1
:101590000044004000B595B03022002108A8FEF7B5
:1015A00077FE002303930493059306930793019317
:1015B0001F4A116C41F080511164126C02F080528C
:1015C0000192019A02931B490A6822F4404242F4B4
:1015D00000420A600A6802F440420292029A022122
:1015E000089101220B9210220C920E910F931092EF
:1015F0004FF4A8731193042312930723139308A89D
:1016000000F006FB80B90F2303930221049100230D
:1016100005934FF480520692079303A800F05EFDF5
:1016200020B915B05DF804FBFFF798FFFFF796FFB0
:101630000038024000700040F0B595B000F08CFF1B
:10164000FFF7A8FFFFF70EFFFFF78AFF01F050FA40
:101650007F4800F0CBFF13A801F010FA032001F03F
:1016600011FB4FF6FF7001F09CFA0DF10C0C794C58
:101670000FCCACE80F000FCCACE80F000FCCACE8FF
:101680000F002368ACF800300024CDF83E40CDF8C0
:101690004240CDF84640ADF84A404FF6FF760196FD
:1016A0001F25009501230A22214603A801F005FB0E
:1016B0000DF10C0C684F0FCFACE80F003B68CCF875
:1016C00000300196009501231422214603A801F061
:1016D000F4FA0DF10C0C614F0FCFACE80F000FCFF7
:1016E000ACE80F0097E803004CF8040B8CF80010EE
:1016F0000196009501231E22214603A801F0DDFA80
:101700000DF10C0C564F0FCFACE80F003B688CF876
:1017100000300196009501232822214603A801F0FC
:10172000CCFA0DF10C0C4F4F0FCFACE80F0097E83F
:101730000F00ACE807002CF8023B1B0C8CF80030C3
:101740000196009501233222214603A801F0B5FA43
:101750000DF10C0C444F0FCFACE80F000FCFACE8ED
:101760000F003B682CF8023B1B0C8CF800300196F4
:10177000009501233C22214603A801F09EFA0DF1B9
:101780000C0C3A4F0FCFACE80F0097E80F00ACE815
:1017900007002CF8023B1B0C8CF8003001960095DA
:1017A00001234622214603A801F087FA0DF10C0C13
:1017B0002F4F0FCFACE80F0097E80F00ACE8070001
:1017C000ACF800300196009501235022214603A871
:1017D00001F073FA0DF10C0C264F0FCFACE80F009F
:1017E00097E80F008CE80F000196009501235A221C
:1017F000214603A801F061FA1F4B0DF10C0C0FCB31
:10180000ACE80700ACF80030019600950123642293
:10181000214603A801F051FA0DF10C0C174F0FCF20
:10182000ACE80F003B682CF8023B1B0C8CF8003036
:101830000196009501236E22214603A801F03DFA8E
:10184000002001F0AEF94FF6FF7001F0AAF9F7E7BA
:10185000AC2D00086C2D0008BC2D0008D02D000810
:10186000F82D00080C2E00082C2E0008502E000821
:10187000702E0008902E0008B02E0008C02E000820
:10188000FEE7FEE7FEE7FEE7FEE7704770477047BA
:1018900008B500F07BFE08BD00B583B000210091C3
:1018A0000C4B5A6C42F480425A645A6C02F48042E7
:1018B0000092009A01911A6C42F080521A641B6CDB
:1018C00003F080530193019B072000F0C5FD03B096
:1018D0005DF804FB0038024000B589B00023039393
:1018E00004930593069307930268144B9A4202D01F
:1018F00009B05DF804FB0021019103F5FA331A6C7D
:1019000042F400321A641A6C02F400320192019A15
:1019100002911A6B42F001021A631B6B03F0010380
:101920000293029B0C230393022304930723079340
:1019300003A9034800F0A8FCDAE700BF0044004018
:1019400000000240F8B504460268136923F44053CE
:10195000C1680B43136183680269134342691343EF
:10196000C26913430168CA6822F4164222F00C02CD
:101970001343CB600268536923F4407381690B43BE
:1019800053610368314A934232D002F58062934238
:101990002ED000F059FCE369B3F5004F2BD0256839
:1019A0000021061841EB010736184F41FB0043EABE
:1019B0005673F20016461F4663689A009B0F801903
:1019C0007941FFF7CDFB224CA4FB00325109642280
:1019D00002FB110213013233A4FB03235B0903F062
:1019E000F00202EB011203F00F031344AB60F8BDE9
:1019F00000F03AFCCFE725680021061841EB01070B
:101A000036184F41FB0043EA5673F20016461F4654
:101A10006268002392185B4180197941FFF7A0FBAF
:101A20000B4CA4FB00325109642202FB1102D300CB
:101A30003233A4FB03235B095A0002F4F87202EB71
:101A4000011203F007031344AB60F8BD001001401E
:101A50001F85EB512DE9F04104460F461646984686
:101A6000069D23681B6837EA03030CBF012300238C
:101A7000B3422CD1B5F1FF3FF3D02DB100F092FD70
:101A8000A0EB08008542ECD2226802F10C0353E877
:101A9000003F23F4D0730C3242E800310029F3D127
:101AA000226802F1140353E8003F23F001031432CB
:101AB00042E800310029F3D1202384F83D3084F836
:101AC0003E30002384F83C300320BDE8F081002044
:101AD000BDE8F08158B310B5044690F83D300BB323
:101AE000242384F83D302268D36823F40053D36064
:101AF0002046FFF727FF2268136923F49043136100
:101B00002268536923F02A0353612268D36843F49F
:101B10000053D36000202064202384F83D3084F8F3
:101B20003E3010BD80F83C30FFF7D6FED8E70120EC
:101B300070472DE9F04182B01E4690F83D30DBB28F
:101B4000202B04D00223184602B0BDE8F0810446E1
:101B50000D469046002954D0002A54D090F83C30CD
:101B6000012B01D10223EEE7012380F83C30002352
:101B70000364212380F83D3000F014FD0746A4F8EB
:101B80002480A4F82680A368B3F5805F05D04FF0C9
:101B90000008002384F83C3012E0236913B14FF0B1
:101BA0000008F6E7A8460025F3E7226838F8023B6C
:101BB000C3F308035360E38C9BB2013B9BB2E38405
:101BC000E38C9BB273B100963B46002280212046F5
:101BD000FFF740FFC8B9002DE7D0236815F8012BA7
:101BE0005A60E8E700963B46002240212046FFF776
:101BF00031FF034608B10323A5E7202284F83D20E6
:101C0000A1E701239FE701239DE703239BE7000052
:101C1000002800F0E98170B582B00446036813F033
:101C2000010F3BD0A74B9B6803F00C03042B2CD077
:101C3000A44B9B6803F00C03082B21D06368B3F519
:101C4000803F4FD0B3F5A02F52D09E4B1A6822F49C
:101C500080321A601A6822F480221A606368002BAE
:101C600050D000F09FFC0546964B1B6813F4003FD4
:101C700014D100F097FC401B6428F5D90320B8E18B
:101C8000904B5B6813F4800FD8D08E4B1B6813F415
:101C9000003F03D06368002B00F0A881236813F095
:101CA000020F55D0874B9B6813F00C0F3ED0854B2D
:101CB0009B6803F00C03082B33D0E368002B68D03B
:101CC0000122814B1A6000F06DFC05467D4B1B68BC
:101CD00013F0020F54D100F065FC401B0228F5D927
:101CE000032086E1774A136843F480331360B5E735
:101CF000744B1A6842F480221A601A6842F48032E7
:101D00001A60ABE700F04EFC05466E4B1B6813F4FF
:101D1000003FC3D000F046FC401B6428F5D90320E7
:101D200067E1684B5B6813F4800FC6D1654B1B6895
:101D300013F0020F04D0E368012B01D0012058E119
:101D4000604A136823F0F803216943EAC103136072
:101D5000236813F0080F40D0636963B301225B4B23
:101D60001A6000F01FFC0546564B5B6F13F0020F24
:101D700033D100F017FC401B0228F5D9032038E1CD
:101D8000504A136823F0F803216943EAC103136042
:101D9000DEE700224C4B1A6000F004FC0546494B7C
:101DA0001B6813F0020FD3D000F0FCFB401B02288D
:101DB000F5D903201DE10022444B1A6000F0F2FB2C
:101DC0000546404B5B6F13F0020F06D000F0EAFBB4
:101DD000401B0228F5D903200BE1236813F0040F00
:101DE00079D0384B1B6C13F0805F33D10023019303
:101DF000344B1A6C42F080521A641B6C03F080530F
:101E00000193019B0125324B1B6813F4807F23D083
:101E1000A368012B34D0052B38D02A4B1A6F22F03F
:101E200001021A671A6F22F004021A67A368002BD6
:101E300036D000F0B7FB0646224B1B6F13F0020FA3
:101E400048D100F0AFFB801B41F288339842F3D9B0
:101E50000320CEE00025D6E71D4A136843F48073C3
:101E6000136000F09FFB0646194B1B6813F4807F3C
:101E7000CED100F097FB801B0228F5D90320B8E0F3
:101E8000104A136F43F001031367CFE70D4B1A6F2E
:101E900042F004021A671A6F42F001021A67C5E79E
:101EA00000F080FB0646074B1B6F13F0020F11D0AA
:101EB00000F078FB801B41F288339842F3D903206D
:101EC00097E000BF0038024000004742800E4742C2
:101ED00000700040EDB9A369002B00F08980484AEA
:101EE000926802F00C02082A51D0022B17D000226F
:101EF000444B1A6000F056FB0446414B1B6813F03C
:101F0000007F42D000F04EFB001B0228F5D90320D1
:101F10006FE03B4A136C23F080531364DBE700222D
:101F2000384B1A6000F03EFB0546354B1B6813F03A
:101F3000007F06D000F036FB401B0228F5D90320B5
:101F400057E0E369226A1343626A43EA8213A26A92
:101F50005208013A43EA0243E26A43EA0263284A2A
:101F600053600122274B1A6000F01CFB0446244BEF
:101F70001B6813F0007F06D100F014FB001B022841
:101F8000F5D9032035E0002033E0002031E0012BBB
:101F900031D01B4B5B6803F48001E269914201D0B0
:101FA000012026E003F03F02216A8A4201D001208D
:101FB0001FE0616A47F6C0721A40B2EB811F01D080
:101FC000012016E003F44031A26A5208013AB1EB55
:101FD000024F01D001200CE003F07063E26AB3EB22
:101FE000026F0AD0012004E001207047012000E0C8
:101FF000002002B070BD0120FBE70020F9E700BF20
:102000000038024060004742F8B5314B9B6803F04E
:102010000C03042B59D0082B01D02E48F8BD2C4BB3
:102020005A6802F03F025B6813F4800F2AD0284BF5
:102030005B68C3F388131E4600275C010025E41A81
:1020400065EB0705A90141EA9461A001001B61EB62
:102050000501CB0043EA5073C400A01943EB07010C
:102060004B0243EAD0534402204619460023FFF7AF
:1020700077F8174B5B68C3F3014301335B00B0FB98
:10208000F3F0F8BD124B5B68C3F388131E460027BC
:102090005C010025E41A65EB0705A90141EA94619A
:1020A000A001001B61EB0501CB0043EA5073C400A3
:1020B000A01943EB07018B0243EA905384022046A8
:1020C00019460023FFF74CF8D3E70348F8BD00BFDB
:1020D000003802400024F40000127A00002800F0CA
:1020E0009E8070B50446504B1B6803F007038B427B
:1020F00009D2CBB24C4A1370136803F0070399421C
:1021000001D0012070BD236813F0020F17D013F027
:10211000040F04D0454A936843F4E0539360236866
:1021200013F0080F04D0414A936843F4604393606E
:102130003E4A936823F0F003A068034393600D4682
:10214000236813F0010F32D06368012B21D09A1E4F
:10215000012A25D9354A126812F0020F61D033499D
:102160008A6822F0030213438B6000F01BFA0646D4
:102170002E4B9B6803F00C036268B3EB820F16D002
:1021800000F010FA801B41F288339842F0D9032006
:1021900070BD264A126812F4003FE0D1012070BDE4
:1021A000224A126812F0007FD9D1012070BD1E4B67
:1021B0001B6803F007039D4209D2EAB21A4B1A705A
:1021C0001B6803F007039D4201D0012070BD236806
:1021D00013F0040F06D0154A936823F4E053E16826
:1021E0000B439360236813F0080F07D00F4A9368DE
:1021F00023F46043216943EAC1039360FFF704FFBE
:102200000A4B9B68C3F30313094AD35CD840094BBC
:102210001860094B186800F079F9002070BD0120A2
:102220007047012070BD00BF003C024000380240F2
:10223000D42E00086C00002068000020014B1868B4
:10224000704700BF6C00002008B5FFF7F7FF044B94
:102250009B68C3F38223034AD35CD84008BD00BF08
:1022600000380240E42E000808B5FFF7E7FF044BF2
:102270009B68C3F34233034AD35CD84008BD00BF18
:1022800000380240E42E000800230F2B00F2CD801E
:10229000F0B583B062E085684FEA430E032707FA82
:1022A0000EF725EA0705CE6806FA0EF63543856077
:1022B000456825EA02024D68C5F300159D402A4392
:1022C000426057E0DD08083550F8252003F0070686
:1022D000B6000F27B74022EA07020F6907FA06F691
:1022E000324340F8252059E0042700E0002707FA90
:1022F00006F6324302354D4E46F825204C4A956885
:10230000E24305EA02064F6817F4801F01D044EA51
:102310000506474DAE60ED6802EA05064F6817F402
:10232000001F01D044EA0506414DEE606D6802EAE7
:1023300005064F6817F4003F01D044EA05063C4DFE
:102340006E602D682A404E6816F4803F01D044EA42
:102350000502374C226001330F2B64D801229A40CA
:102360000C681440A242F6D14D6805F00305013D0A
:10237000012D90D94A6802F00302032A09D0C268ED
:102380005F000326BE4022EA06028D68BD402A4354
:10239000C2604A6802F00302022A93D002685F001A
:1023A0000326BE4022EA06024D6805F00305BD4043
:1023B0002A4302604A6812F4403FCCD000220192C6
:1023C0001C4A556C45F480455564526C02F48042B9
:1023D0000192019A9D08AE1C144A52F8262003F07F
:1023E0000306B6000F27B74022EA0702124FB84291
:1023F0003FF47CAF07F58067B8420ED007F58067E1
:10240000B8420CD007F58067B8420AD007F580675C
:10241000B8423FF469AF072769E7012767E702275A
:1024200065E7032763E703B0F0BD7047003801405C
:10243000003C01400038024000000240036919429C
:1024400001D1002070470120704712B90904816151
:102450007047816170470000074AD36823F4E06346
:102460001B041B0C000200F4E060184340F0BF6046
:1024700040F40030D060704700ED00E030B4164BFF
:10248000DB68C3F30223C3F10704042C28BF042430
:102490001D1D062D17D9033B012505FA04F4013C47
:1024A0002140994005FA03F3013B134019430028EA
:1024B0000BDB0901C9B200F1604000F5614080F812
:1024C000001330BC70470023E6E700F00F0009015D
:1024D000C9B2024B1954F4E700ED00E014ED00E03E
:1024E0000138B0F1807F0AD2064B5860F021064ACD
:1024F00082F823100020986007221A60704701209C
:10250000704700BF10E000E000ED00E010B50446A9
:102510000E4B18784FF47A73B3FBF0F30C4A106843
:10252000B0FBF3F0FFF7DCFF68B90F2C01D90120F5
:1025300010BD002221464FF0FF30FFF79FFF054BF3
:102540001C60002010BD012010BD00BF64000020F1
:102550006C0000206800002008B50B4B1A6842F49C
:1025600000721A601A6842F480621A601A6842F4B3
:1025700080721A600320FFF76FFF0020FFF7C6FF8D
:10258000FFF78AF9002008BD003C0240034A1168A9
:10259000034B1B780B441360704700BFE000002022
:1025A00064000020014B1868704700BFE000002065
:1025B00038B50446FFF7F6FF0546B4F1FF3F02D0F9
:1025C000044B1B781C44FFF7EDFF401B8442FAD8F4
:1025D00038BD00BF64000020034AD2F8883043F4BD
:1025E0007003C2F88830704700ED00E010B5044673
:1025F000FDF7E6FE642382B221460248FFF799FA0E
:1026000010BD00BF9C00002008B501220221024835
:10261000FFF71BFF08BD00BF0008024008B50022FD
:1026200002210248FFF711FF08BD00BF0008024069
:1026300008B5012211460248FFF707FF08BD00BF99
:102640000004024008B5002201210248FFF7FDFE08
:1026500008BD00BF0004024008B501221021024855
:10266000FFF7F3FE08BD00BF0000024008B50022DE
:1026700010210248FFF7E9FE08BD00BF000002403C
:1026800008B5012202210248FFF7DFFE08BD00BFA6
:102690000000024010B5064C002202212046FFF740
:1026A000D4FE012202212046FFF7CFFE10BD00BF5D
:1026B0000000024008B5012211460248FFF7C5FE9E
:1026C00008BD00BF0000024008B5002201210248F9
:1026D000FFF7BBFE08BD00BF0000024030B587B069
:1026E0004FF4E0630193002502950224039401A9AD
:1026F0000A48FFF7C9FD4FF48763019302950394DD
:1027000001A90748FFF7C0FD8023019302950394B8
:1027100001A90448FFF7B8FD07B030BD0000024032
:10272000000402400008024030B587B04FF4E06377
:102730000193012502950024039401A90A48FFF79B
:10274000A3FD4FF4876301930295039401A9074801
:10275000FFF79AFD802301930295039401A9044891
:10276000FFF792FD07B030BD0000024000040240B8
:102770000008024070B51E4D4FF480712846FFF7E7
:102780005DFEC4011B4E4FF480613046FFF756FEDC
:1027900044EA801464B210213046FFF74FFE44EA49
:1027A000401464B220213046FFF748FE44EA00148A
:1027B00064B208213046FFF741FE44EAC00464B227
:1027C0004FF480612846FFF739FE44EA800464B282
:1027D00080210948FFF732FE44EA400464B24FF416
:1027E00000712846FFF72AFE40B22043C0B270BDF8
:1027F00000000240000402400008024070B5044698
:102800001A4EC2094FF480713046FFF71EFE184D74
:10281000C4F380124FF480612846FFF716FEC4F31C
:10282000401210212846FFF710FEC4F300122021A9
:102830002846FFF70AFEC4F3C00208212846FFF726
:1028400004FEC4F380024FF480613046FFF7FDFDC3
:10285000C4F3400280210748FFF7F7FD04F00102AE
:102860004FF400713046FFF7F0FD70BD00000240EC
:10287000000402400008024010B50446FFF7E2FEE3
:10288000FFF7F4FEFFF716FFFFF74EFF2046FFF7B6
:10289000B5FFFFF7FFFEFFF7CBFE10BD10B50446F6
:1028A000FFF7D0FEFFF7D8FEFFF704FFFFF73CFF6E
:1028B0002046FFF7A3FFFFF7EDFEFFF7B9FE10BDBF
:1028C00070B506460D46FFF7BDFEFFF7C5FEFFF7E4
:1028D000D7FEFFF703FF002407E0FFF7F5FEFFF741
:1028E00049FF3055FFF7E6FE0134A542F5DCFFF75E
:1028F0009FFE70BD08B5CB20FFF7BEFF3920FFF764
:10290000CDFF2C20FFF7CAFF0020FFF7C7FF3420C0
:10291000FFF7C4FF0220FFF7C1FF08BD08B5CF20B5
:10292000FFF7AAFF0020FFF7B9FFC120FFF7B6FFAE
:102930003020FFF7B3FF08BD08B5E820FFF79CFF84
:102940008520FFF7ABFF0020FFF7A8FF7820FFF7F7
:10295000A5FF08BD08B5EA20FFF78EFF0020FFF7AE
:102960009DFF0020FFF79AFF08BD08B5ED20FFF797
:1029700083FF6420FFF792FF0320FFF78FFF1220F1
:10298000FFF78CFF8120FFF789FF08BD08B5F7200E
:10299000FFF772FF2020FFF781FF08BD08B5C020B8
:1029A000FFF76AFF2320FFF779FF08BD08B5C120B4
:1029B000FFF762FF1020FFF771FF08BD08B5C520C3
:1029C000FFF75AFF3E20FFF769FF2820FFF766FF59
:1029D00008BD08B5C720FFF74FFF8620FFF75EFF51
:1029E00008BD08B53620FFF747FF0820FFF756FF60
:1029F00008BD08B53A20FFF73FFF5520FFF74EFF0F
:102A000008BD08B5B120FFF737FF0020FFF746FFEC
:102A10001020FFF743FF08BD08B5B620FFF72CFFD5
:102A20000820FFF73BFF8220FFF738FF2720FFF742
:102A300035FF08BD08B51120FFF71EFF7820FFF70E
:102A4000B7FD08BD08B52920FFF716FF08BD08B57A
:102A50002C20FFF711FF08BD08B5FFF7D5FD0120B9
:102A6000FFF7A6FDFFF7DAFD0120FFF7A1FDFFF755
:102A7000CBFD0120FFF79CFD08BD000030B593B0F1
:102A80000546D320FFF7F8FE04212846FFF718FF7C
:102A90000DF1080C134C0FCCACE80F000FCCACE8D8
:102AA0000F0023688CF8003002A8FDF789FC0E4C5B
:102AB000642382B202A92046FFF73BF8EB7800932B
:102AC000AB786A78094902A8FDF750FC02A8FDF727
:102AD00077FC642382B202A92046FFF72AF813B0DC
:102AE00030BD00BFEC2E00089C000020102F000815
:102AF00008B5FFF7B1FFFFF7FDFEFFF70FFFFFF788
:102B00001BFFFFF727FFFFF730FFFFF73FFFFFF740
:102B100045FFFFF74BFFFFF751FFFFF75AFFFFF7A6
:102B200060FFFFF766FFFFF76CFFFFF775FFFFF72A
:102B300081FFFFF787FFFFF78AFF08BD38B505461D
:102B40000C462A20FFF798FE280AFFF7A7FEE8B2F6
:102B5000FFF7A4FE200AFFF7A1FEE0B2FFF79EFEFA
:102B600038BD38B505460C462B20FFF785FE280AF0
:102B7000FFF794FEE8B2FFF791FE200AFFF78EFE02
:102B8000E0B2FFF78BFE38BD38B50C461D46114646
:102B9000FFF7D4FF29462046FFF7E3FFFFF757FF73
:102BA00038BD70B50546EF2340F23F1200210846BC
:102BB000FFF7EAFF00260CE0280AFFF76FFEE8B2F5
:102BC000FFF76CFE0134A4B2B4F5A07FF4D3013654
:102BD000B6B2EF2E01D80024F6E770BD10B514464A
:102BE000421C4B1C9BB292B2FFF7CEFF200AFFF7AC
:102BF00055FEE0B2FFF752FE10BD00002DE9F04F88
:102C000083B08346019192469846BDF830909DF876
:102C10003470002625E0C14501D0012F13D06D0886
:102C2000013464B2072C1ADC15F0010FF3D0012F28
:102C3000F5D1019BE11806EB0B00424689B280B248
:102C4000FFF7CCFFEBE7019BE11806EB0B004A46D0
:102C500089B280B2FFF7C2FFE1E700250AE0013642
:102C600076B2052E08DC052EF7D00AEB8A03334432
:102C7000034AD55C0024D5E703B0BDE8F08F00BF60
:102C8000402F000810B504463620FFF7F5FD032C51
:102C900006D8DFE804F002060A0E4820FFF7FEFD22
:102CA00010BD2820FFF7FAFDFAE78820FFF7F6FDB0
:102CB000F6E7E820FFF7F2FDF2E72DE9F04383B0F5
:102CC00006460D469046BDF82890BDF82C700024AD
:102CD0000DE00123019300974B46325D0FFA88F116
:102CE00028B2FFF78BFF0635ADB20134E4B23046AF
:102CF000FDF766FB8442ECD303B0BDE8F08300002F
:102D0000DFF834D00D480E490E4A002302E0D458B3
:102D1000C4500433C4188C42F9D30B4A0B4C002323
:102D200001E013600432A242FBD3FFF755FCFDF72C
:102D30008BFAFEF781FC7047008001200000002024
:102D4000700000208834000870000020E40000209B
:102D5000FEE70000F8B500BFF8BC08BC9E4670470F
:0C2D6000F8B500BFF8BC08BC9E467047E8
:102D6C003E2048656C6C6F2E204D79204E616D6550
:102D7C00206973204C7579616F2048616E2E204755
:102D8C007265617420746F206D65657420796F7540
:102D9C002100000000000000000000000000000006
:102DAC0068656C6C6F20776F726C64210A00000090
:102DBC003E2057686174277320796F7572206E619D
:102DCC006D653F00536F6D65207361792074686584
:102DDC0020776F726C642077696C6C20656E642050
:102DEC00696E20666972652C00000000536F6D657A
:102DFC002073617920696E206963652E00000000E4
:102E0C0046726F6D20776861742049766520746115
:102E1C0073746564206F6620646573697265000065
:102E2C004920686F6C6420776974682074686F73CC
:102E3C00652077686F206661766F7572206669729F
:102E4C00652E0000427574206966206974206861E3
:102E5C006420746F2070657269736820747769637D
:102E6C00652C000049207468696E6B2049206B6EDC
:102E7C006F7720656E6F756768206F662068617468
:102E8C0065000000546F20736179207468617420B0
:102E9C00666F72206465737472756374696F6E20EB
:102EAC0069636500497320616C736F20677265619B
:102EBC0074000000416E6420776F756C642073752C
:102ECC0066666963652E00000000000000000000CB
:102EDC0001020304060708090000000001020304B4
:102EEC002D205072696E74696E67204944342072CB
:102EFC00656769737465722076616C7565202D0A3F
:102F0C0000000000494C49393334312049432056E4
:102F1C00657273696F6E3A202564200A4943204D0F
:102F2C006F64656C3A2030782530327825303278F1
:102F3C000A00000000000000003E5B4F5B3E3E6B51
:102F4C004F6B3E1C3E7C3E1C183C7E3C181C577D37
:102F5C00571C1C5E7F5E1C00183C1800FFE7C3E783
:102F6C00FF0018241800FFE7DBE7FF30483A060E95
:102F7C002629792926407F050507407F05253F5ADC
:102F8C003CE73C5A7F3E1C1C08081C1C3E7F14224C
:102F9C007F22145F5F005F5F06097F017F006689F7
:102FAC00956A606060606094A2FFA29408047E043D
:102FBC000810207E201008082A1C08081C2A080863
:102FCC001E101010100C1E0C1E0C30383E38300623
:102FDC000E3E0E06000000000000005F000000071F
:102FEC00000700147F147F14242A7F2A122313084D
:102FFC00646236495620500008070300001C224129
:10300C00000041221C002A1C7F1C2A08083E0808CC
:10301C00008070300008080808080000606000207C
:10302C00100804023E5149453E00427F400072495F
:10303C004949462141494D331814127F1027454503
:10304C0045393C4A49493141211109073649494919
:10305C0036464949291E0000140000004034000087
:10306C0000081422411414141414004122140802F0
:10307C00015909063E415D594E7C1211127C7F4963
:10308C004949363E414141227F4141413E7F4949B8
:10309C0049417F090909013E414151737F080808E4
:1030AC007F00417F41002040413F017F08142241B5
:1030BC007F404040407F021C027F7F0408107F3E0F
:1030CC004141413E7F090909063E4151215E7F097C
:1030DC00192946264949493203017F01033F4040E3
:1030EC00403F1F2040201F3F4038403F63140814CE
:1030FC006303047804036159494D43007F41414106
:10310C000204081020004141417F040201020440E6
:10311C0040404040000307080020545478407F286A
:10312C004444383844444428384444287F38545460
:10313C00541800087E090218A4A49C787F08040483
:10314C007800447D40002040403D007F1028440022
:10315C0000417F40007C047804787C0804047838B3
:10316C0044444438FC1824241818242418FC7C08E3
:10317C00040408485454542404043F44243C404060
:10318C00207C1C2040201C3C4030403C4428102813
:10319C00444C9090907C4464544C4400083641005C
:1031AC000000770000004136080002010204023CD6
:1031BC002623263C1EA1A161123A4040207A3854A5
:1031CC00545559215555794122545478422155541E
:1031DC00784020545579400C1E5272123955555571
:1031EC0059395454545939555454580000457C415C
:1031FC000002457D420001457C407D1211127DF09C
:10320C00282528F07C545545002054547C547C0AC5
:10321C00097F4932494949323A4444443A324A488E
:10322C0048303A4141217A3A42402078009DA0A092
:10323C007D3D4242423D3D4040403D3C24FF2424E4
:10324C00487E4943662B2FFC2F2BFF0929F620C003
:10325C00887E090320545479410000447D41304854
:10326C00484A32384040227A007A0A0A727D0D1997
:10327C00317D2629292F28262929292630484D40F9
:10328C0020380808080808080808382F10C8ACBAF5
:10329C002F102834FA00007B000008142A14222274
:1032AC00142A1408AA005500AAAA55AA55AA000067
:1032BC0000FF00101010FF00141414FF001010FF7A
:1032CC0000FF1010F010F0141414FC001414F7008C
:1032DC00FF0000FF00FF1414F404FC141417101F5B
:1032EC0010101F101F1414141F00101010F00000E9
:1032FC0000001F101010101F10101010F010000004
:10330C0000FF101010101010101010FF1000000013
:10331C00FF140000FF00FF00001F10170000FC044A
:10332C00F414141710171414F404F40000FF00F72D
:10333C0014141414141414F700F714141417141090
:10334C00101F101F141414F4141010F010F00000BF
:10335C001F101F0000001F14000000FC140000F0E0
:10336C0010F01010FF10FF141414FF141010101F85
:10337C0000000000F010FFFFFFFFFFF0F0F0F0F096
:10338C00FFFFFF0000000000FFFF0F0F0F0F0F38B3
:10339C0044443844FC4A4A4A347E02020606027E01
:1033AC00027E0263554941633844443C04407E200C
:1033BC001E2006027E020299A5E7A5991C2A492A1D
:1033CC001C4C7201724C304A4D4D303048784830AC
:1033DC00BC625A463D3E494949007E0101017E2AA4
:1033EC002A2A2A2A44445F444440514A44404044D7
:1033FC004A51400000FF0103E080FF000008086B09
:10340C006B083612362436060F090F060000181802
:10341C000000001010003040FF0101001F01011ED0
:10342C0000191D1712003C3C3C3C00000000000041
:10343C00232D302B20000000686C4C00656667451E
:10344C004647000030313233343536373839414253
:10345C0043444546000000003031323334353637B2
:0C346C003839616263646566000000008E
:0834780018DDFF7F01000000D8
:043480002902000815
:043484000102000839
:103488000400002000000000000000000000000010
:103498000000000000000000000000000000000024
:1034A8000000000000000000000000000000000014
:1034B8000000000000000000000000000000000004
:1034C80000000000000000000000000000000000F4
:1034D80000000000000000000000000000000000E4
:1034E8000000000001000000100000000024F400AB
:0400000508002D01C1
:00000001FF
